{"contracts/FundingContract.sol":{"FundingContract":{"abi":[{"inputs":[{"internalType":"address","name":"_rewardToken","type":"address"},{"internalType":"address","name":"_projectDAO","type":"address"}],"stateMutability":"nonpayable","type":"constructor"},{"anonymous":false,"inputs":[{"indexed":true,"internalType":"uint256","name":"projectId","type":"uint256"},{"indexed":true,"internalType":"address","name":"contributor","type":"address"},{"indexed":false,"internalType":"uint96","name":"amount","type":"uint96"},{"indexed":false,"internalType":"uint32","name":"timestamp","type":"uint32"}],"name":"ContributionMade","type":"event"},{"anonymous":false,"inputs":[{"indexed":true,"internalType":"uint256","name":"projectId","type":"uint256"},{"indexed":true,"internalType":"address","name":"creator","type":"address"},{"indexed":false,"internalType":"uint96","name":"amount","type":"uint96"}],"name":"FundsWithdrawn","type":"event"},{"anonymous":false,"inputs":[{"indexed":true,"internalType":"address","name":"previousOwner","type":"address"},{"indexed":true,"internalType":"address","name":"newOwner","type":"address"}],"name":"OwnershipTransferred","type":"event"},{"anonymous":false,"inputs":[{"indexed":true,"internalType":"uint256","name":"projectId","type":"uint256"},{"indexed":false,"internalType":"string","name":"name","type":"string"},{"indexed":true,"internalType":"address","name":"creator","type":"address"},{"indexed":false,"internalType":"uint96","name":"fundingGoal","type":"uint96"},{"indexed":false,"internalType":"uint32","name":"deadline","type":"uint32"}],"name":"ProjectCreated","type":"event"},{"anonymous":false,"inputs":[{"indexed":true,"internalType":"uint256","name":"projectId","type":"uint256"},{"indexed":false,"internalType":"uint96","name":"totalAmount","type":"uint96"}],"name":"ProjectFunded","type":"event"},{"inputs":[],"name":"MAX_FUNDING_PERIOD","outputs":[{"internalType":"uint32","name":"","type":"uint32"}],"stateMutability":"view","type":"function"},{"inputs":[],"name":"MIN_FUNDING_GOAL","outputs":[{"internalType":"uint96","name":"","type":"uint96"}],"stateMutability":"view","type":"function"},{"inputs":[],"name":"TOKEN_REWARD_RATE","outputs":[{"internalType":"uint96","name":"","type":"uint96"}],"stateMutability":"view","type":"function"},{"inputs":[{"internalType":"uint256","name":"_projectId","type":"uint256"}],"name":"contribute","outputs":[],"stateMutability":"payable","type":"function"},{"inputs":[{"internalType":"uint256","name":"","type":"uint256"},{"internalType":"address","name":"","type":"address"},{"internalType":"uint256","name":"","type":"uint256"}],"name":"contributions","outputs":[{"internalType":"uint96","name":"amount","type":"uint96"},{"internalType":"uint32","name":"timestamp","type":"uint32"}],"stateMutability":"view","type":"function"},{"inputs":[{"internalType":"string","name":"_name","type":"string"},{"internalType":"string","name":"_description","type":"string"},{"internalType":"uint96","name":"_fundingGoal","type":"uint96"},{"internalType":"uint32","name":"_duration","type":"uint32"}],"name":"createProject","outputs":[{"internalType":"uint256","name":"","type":"uint256"}],"stateMutability":"nonpayable","type":"function"},{"inputs":[{"internalType":"uint256","name":"_projectId","type":"uint256"},{"internalType":"string","name":"_description","type":"string"}],"name":"createProposal","outputs":[],"stateMutability":"nonpayable","type":"function"},{"inputs":[{"internalType":"uint256","name":"_projectId","type":"uint256"},{"internalType":"address","name":"_contributor","type":"address"}],"name":"getContributions","outputs":[{"components":[{"internalType":"uint96","name":"amount","type":"uint96"},{"internalType":"uint32","name":"timestamp","type":"uint32"}],"internalType":"struct FundingContract.Contribution[]","name":"","type":"tuple[]"}],"stateMutability":"view","type":"function"},{"inputs":[{"internalType":"uint256","name":"_projectId","type":"uint256"}],"name":"getContributors","outputs":[{"internalType":"address[]","name":"","type":"address[]"}],"stateMutability":"view","type":"function"},{"inputs":[{"internalType":"uint256","name":"_projectId","type":"uint256"}],"name":"getProject","outputs":[{"internalType":"string","name":"name","type":"string"},{"internalType":"string","name":"description","type":"string"},{"internalType":"address","name":"creator","type":"address"},{"internalType":"uint96","name":"fundingGoal","type":"uint96"},{"internalType":"uint96","name":"currentFunding","type":"uint96"},{"internalType":"uint32","name":"deadline","type":"uint32"},{"internalType":"bool","name":"funded","type":"bool"},{"internalType":"bool","name":"exists","type":"bool"}],"stateMutability":"view","type":"function"},{"inputs":[{"internalType":"uint256","name":"_projectId","type":"uint256"}],"name":"getProjectVotes","outputs":[{"internalType":"uint256","name":"againstVotes","type":"uint256"},{"internalType":"uint256","name":"forVotes","type":"uint256"},{"internalType":"uint256","name":"abstainVotes","type":"uint256"}],"stateMutability":"view","type":"function"},{"inputs":[],"name":"owner","outputs":[{"internalType":"address","name":"","type":"address"}],"stateMutability":"view","type":"function"},{"inputs":[{"internalType":"uint256","name":"","type":"uint256"},{"internalType":"uint256","name":"","type":"uint256"}],"name":"projectContributors","outputs":[{"internalType":"address","name":"","type":"address"}],"stateMutability":"view","type":"function"},{"inputs":[],"name":"projectDAO","outputs":[{"internalType":"address","name":"","type":"address"}],"stateMutability":"view","type":"function"},{"inputs":[{"internalType":"uint256","name":"","type":"uint256"}],"name":"projects","outputs":[{"internalType":"string","name":"name","type":"string"},{"internalType":"string","name":"description","type":"string"},{"internalType":"address payable","name":"creator","type":"address"},{"internalType":"uint96","name":"fundingGoal","type":"uint96"},{"internalType":"uint96","name":"currentFunding","type":"uint96"},{"internalType":"uint32","name":"deadline","type":"uint32"},{"internalType":"bool","name":"funded","type":"bool"},{"internalType":"bool","name":"exists","type":"bool"}],"stateMutability":"view","type":"function"},{"inputs":[],"name":"renounceOwnership","outputs":[],"stateMutability":"nonpayable","type":"function"},{"inputs":[],"name":"rewardToken","outputs":[{"internalType":"contract RewardToken","name":"","type":"address"}],"stateMutability":"view","type":"function"},{"inputs":[{"internalType":"address","name":"newOwner","type":"address"}],"name":"transferOwnership","outputs":[],"stateMutability":"nonpayable","type":"function"},{"inputs":[{"internalType":"uint256","name":"_projectId","type":"uint256"}],"name":"withdrawFunds","outputs":[],"stateMutability":"nonpayable","type":"function"}],"evm":{"bytecode":{"linkReferences":{},"object":"60c0346100d657601f61188438819003918201601f19168301916001600160401b038311848410176100db5780849260409485528339810103126100d657610052602061004b836100f1565b92016100f1565b60008054336001600160a01b0319821681178355604051946001600160a01b039390928416907f8be0079c531659141344cd1fd0a4f28419497f9722a3daafe3b4186f6b6457e09080a31660805260a05261177e908161010682396080518181816107980152610a73015260a05181818161013c01528181610ec2015261135f0152f35b600080fd5b634e487b7160e01b600052604160045260246000fd5b51906001600160a01b03821682036100d65756fe6080604052600436101561001257600080fd5b6000803560e01c806302d52fa4146112b4578063107046bd14611257578063155dd5ee146110da5780631dbcfc441461105257806329af9b511461103457806336d95f56146110125780633c1ab00f14610f605780633d3b686514610f0d5780636203a99514610ef15780636d24419a14610eac578063715018a614610e525780638da5cb5b14610e2b578063aafc92d614610cff578063c1cbbca714610949578063f0f3f2c81461088f578063f2fde38b146107c7578063f7c618c114610782578063fa3fc9b3146102175763fdfda408146100ee57600080fd5b3461021457602080600319360112610210576004358083526001825261012060ff600360408620015460881c16611703565b6040516315a91d3960e21b8152600481019190915281816024817f00000000000000000000000000000000000000000000000000000000000000006001600160a01b03165afa9081156102055783916101d3575b501561018f5781606092604051928184528301526040820152f35b6064906040519062461bcd60e51b82526004820152601e60248201527f4e6f2070726f706f73616c2065786973747320666f722070726f6a65637400006044820152fd5b90508181813d83116101fe575b6101ea818361146c565b810103126101f9575138610174565b600080fd5b503d6101e0565b6040513d85823e3d90fd5b5080fd5b80fd5b50346102145760803660031901126102145760043567ffffffffffffffff811161021057610249903690600401611645565b60243567ffffffffffffffff811161077e57610269903690600401611645565b92906044356001600160601b038116810361077a576064359163ffffffff831680930361077657662386f26fc100006001600160601b038316106107445762015180831161070e576004549560001987146106fa576001870160045583420142116106fa57604051918261010081011067ffffffffffffffff610100850111176106e45761030d9161010084016040526103043689896114aa565b845236916114aa565b60208201523360408201526001600160601b038216606082015286608082015263ffffffff8342011660a08201528660c0820152600160e0820152858752600160205260408720815180519067ffffffffffffffff821161061357819061037484546114e1565b601f8111610696575b50602090601f8311600114610632578b92610627575b50508160011b916000199060031b1c19161781555b602082015180519067ffffffffffffffff8211610613576103cc60018401546114e1565b601f81116105cf575b50918896959493918a9360209b508b90601f83116001146105245763ffffffff96938387946001600160601b0397946003947fd2067d759b1a8eb6be1e22e6331135d428fffba535ea17351bf01fae7bd3f4da9d9c9a92610519575b505060001982851b1c1916600191821b17908201555b60018060a01b036040840151168660a01b606085015160a01b1617600282015501908460808201511685198354161782556104a48760a083015116839081549063ffffffff60601b9060601b169063ffffffff60601b1916179055565b60c081015115159082549060e060ff60881b910151151560881b169160ff60801b9060801b169061ffff60801b191617179055886040519660608852816060890152608088013760808987010152168884015242011660408201526080813395601f80199101168101030190a3604051908152f35b015190503880610431565b60018493929a9998979695940185528c852090855b601f19841681106105b55750926001836003937fd2067d759b1a8eb6be1e22e6331135d428fffba535ea17351bf01fae7bd3f4da9c9d6001600160601b03999763ffffffff9c9b9997601f1981161061059d575b505050811b016001820155610447565b015160001983871b60f8161c1916905538808061058d565b818c015183559a8e019a8d9a506001909201918e01610539565b600184018b5260208b20601f840160051c81016020851061060c575b601f830160051c820181106106015750506103d5565b8c81556001016105eb565b50806105eb565b634e487b7160e01b8a52604160045260248afd5b015190503880610393565b848c5260208c209250601f1984168c5b81811061067e5750908460019594939210610665575b505050811b0181556103a8565b015160001960f88460031b161c19169055388080610658565b92936020600181928786015181550195019301610642565b909150838b5260208b20601f840160051c8101602085106106dd575b90849392915b8d601f840160051c830182106106d05750505061037d565b81558594506001016106b8565b50806106b2565b634e487b7160e01b600052604160045260246000fd5b634e487b7160e01b88526011600452602488fd5b60405162461bcd60e51b815260206004820152600e60248201526d088eae4c2e8d2dedc407c40dac2f60931b6044820152606490fd5b60405162461bcd60e51b815260206004820152600a60248201526923b7b0b6101e1036b4b760b11b6044820152606490fd5b8680fd5b8580fd5b8380fd5b50346102145780600319360112610214576040517f00000000000000000000000000000000000000000000000000000000000000006001600160a01b03168152602090f35b5034610214576020366003190112610214576004356001600160a01b03818116918290036101f9576107f7611673565b811561083b57600054826001600160601b0360a01b821617600055167f8be0079c531659141344cd1fd0a4f28419497f9722a3daafe3b4186f6b6457e0600080a380f35b60405162461bcd60e51b815260206004820152602660248201527f4f776e61626c653a206e6577206f776e657220697320746865207a65726f206160448201526564647265737360d01b6064820152608490fd5b50346102145760203660031901126102145760406108ea916004358152600160205220600281015460ff60038301546108f86108d660016108cf8761151b565b960161151b565b6040519687966101008089528801906115c1565b9086820360208801526115c1565b9260018060a01b038116604086015260a01c60608501526001600160601b038116608085015263ffffffff8160601c1660a0850152818160801c16151560c085015260881c16151560e08301520390f35b506020806003193601126102105760043580835260018252604083206003810180549361097b60ff8660881c166116cb565b63ffffffff92838660601c16421015610cd2573415610ca0576001600160601b0392833416968785821601858111610c8c579085916001600160601b03199283911691161782558689526002845260408920338a528452604089209086421696604051916109e883611450565b8a8352868301908982528454680100000000000000009586821015610c785790610a1791600182018155611617565b949094610c6457518454925163ffffffff60601b1992909316908a161716911660601b63ffffffff60601b16179055868952600284526040808a20338b528552892054600114610c1d575b5060648702848116908103610c09577f00000000000000000000000000000000000000000000000000000000000000006001600160a01b0316908990823b15610210576044670de0b6b3a76400009183899560405196879586946340c10f1960e01b8652336004870152041660248401525af18015610bfe57610bae575b50927f3fc3b070e9894cd62cadb58d640d5365f025b5d368f467497da53fa9885b541894928692856002610b55975494851692015460a01c82101580610ba0575b610b5b575b505050505060405191829133968390929163ffffffff6020916001600160601b03604085019616845216910152565b0390a380f35b60ff60801b19909316600160801b179092556040519182527f6f5e2acfc35d551f42648c89245aa19df07bc207bfa00ccb27d46b6674f25d3e91a28338808080610b26565b5060ff8460801c1615610b21565b67ffffffffffffffff8199929911610bea57604052967f3fc3b070e9894cd62cadb58d640d5365f025b5d368f467497da53fa9885b5418610ae0565b634e487b7160e01b82526041600452602482fd5b6040513d8b823e3d90fd5b634e487b7160e01b89526011600452602489fd5b86895260038452604089208054918210156106135790610c4291600182018155611617565b81546001600160a01b0360039290921b91821b19163390911b17905538610a62565b634e487b7160e01b8e5260048e905260248efd5b634e487b7160e01b8f52604160045260248ffd5b634e487b7160e01b8a52601160045260248afd5b60405162461bcd60e51b815260048101839052600a6024820152695a65726f2076616c756560b01b6044820152606490fd5b60405162461bcd60e51b8152600481018390526005602482015264115b99195960da1b6044820152606490fd5b503461021457604036600319011261021457610d19611601565b60043582526002602090815260408084206001600160a01b039093168452918152908220805490929167ffffffffffffffff8211610e175791929060405190610d67848260051b018361146c565b8082528382018093865284862086915b838310610dd357505050506040519280840191818552518092526040840192945b828110610da55784840385f35b855180516001600160601b0316855282015163ffffffff168483015294810194604090930192600101610d98565b600187819260409a9997989a51610de981611450565b63ffffffff86546001600160601b038116835260601c16838201528152019201920191909694939596610d77565b634e487b7160e01b83526041600452602483fd5b5034610214578060031936011261021457546040516001600160a01b039091168152602090f35b5034610214578060031936011261021457610e6b611673565b80546001600160a01b03198116825581906001600160a01b03167f8be0079c531659141344cd1fd0a4f28419497f9722a3daafe3b4186f6b6457e08280a380f35b50346102145780600319360112610214576040517f00000000000000000000000000000000000000000000000000000000000000006001600160a01b03168152602090f35b5034610214578060031936011261021457602060405160648152f35b503461021457604036600319011261021457602435906004358152600360205260408120908154831015610214576020610f478484611617565b905460405160039290921b1c6001600160a01b03168152f35b503461021457602080600319360112610210576004358252600381526040822060405192838383549182815201908193835284832090835b818110610ff55750505084610fae91038561146c565b60405193838594850191818652518092526040850193925b828110610fd557505050500390f35b83516001600160a01b031685528695509381019392810192600101610fc6565b82546001600160a01b031684529286019260019283019201610f98565b50346102145780600319360112610214576020604051662386f26fc100008152f35b50346102145780600319360112610214576020604051620151808152f35b50346102145760603660031901126102145761106c611601565b60043582526002602090815260408084206001600160a01b039093168452919052812080546044359290831015610214576110d66110aa8484611617565b5054604080516001600160601b038316815260609290921c63ffffffff16602083015290918291820190565b0390f35b50346102145760208060031936011261021057600435808352600182526040832091600383019283549061111360ff8360881c166116cb565b60ff8260801c16156112255760020180546001600160a01b0392908316338190036111f2578780838194936001600160601b038395169a8b926001600160601b03191690555af13d156111ed573d61116a8161148e565b90611178604051928361146c565b815287853d92013e5b156111b6575460405194855216927f3ea4bc8159b46f009306e75d69bbe83dab3219666b8ea594e45937ab83abe2019190a380f35b60405162461bcd60e51b815260048101849052600f60248201526e151c985b9cd9995c8819985a5b1959608a1b6044820152606490fd5b611181565b60405162461bcd60e51b815260048101869052600b60248201526a2737ba1031b932b0ba37b960a91b6044820152606490fd5b60405162461bcd60e51b815260048101849052600a602482015269139bdd08199d5b99195960b21b6044820152606490fd5b50346102145760203660031901126102145760406108ea9160043581526001602052206112838161151b565b9060ff6112926001830161151b565b6108f860036002850154940154916040519687966101008089528801906115c1565b50346102145760403660031901126102145760043560243567ffffffffffffffff811161140b573660238201121561140b576112fa9036906024816004013591016114aa565b8183526020916001835260ff600360408620015461131c828260881c16611703565b60801c161561141657611353918391604051938492839263c5a86c2d60e01b845260048401526060602484015260648301906115c1565b600260448301520381867f00000000000000000000000000000000000000000000000000000000000000006001600160a01b03165af19081156102055783916113e5575b50156113a1575080f35b6064906040519062461bcd60e51b82526004820152601960248201527f4661696c656420746f206372656174652070726f706f73616c000000000000006044820152fd5b90508181813d831161140f575b6113fc818361146c565b8101031261140b575138611397565b8280fd5b503d6113f2565b60405162461bcd60e51b8152600481018490526012602482015271141c9bda9958dd081b9bdd08199d5b99195960721b6044820152606490fd5b6040810190811067ffffffffffffffff8211176106e457604052565b90601f8019910116810190811067ffffffffffffffff8211176106e457604052565b67ffffffffffffffff81116106e457601f01601f191660200190565b9291926114b68261148e565b916114c4604051938461146c565b8294818452818301116101f9578281602093846000960137010152565b90600182811c92168015611511575b60208310146114fb57565b634e487b7160e01b600052602260045260246000fd5b91607f16916114f0565b906040519182600082549261152f846114e1565b90818452600194858116908160001461159e575060011461155b575b50506115599250038361146c565b565b9093915060005260209081600020936000915b8183106115865750506115599350820101388061154b565b8554888401850152948501948794509183019161156e565b91505061155994506020925060ff191682840152151560051b820101388061154b565b919082519283825260005b8481106115ed575050826000602080949584010152601f8019910116010190565b6020818301810151848301820152016115cc565b602435906001600160a01b03821682036101f957565b805482101561162f5760005260206000200190600090565b634e487b7160e01b600052603260045260246000fd5b9181601f840112156101f95782359167ffffffffffffffff83116101f957602083818601950101116101f957565b6000546001600160a01b0316330361168757565b606460405162461bcd60e51b815260206004820152602060248201527f4f776e61626c653a2063616c6c6572206973206e6f7420746865206f776e65726044820152fd5b156116d257565b60405162461bcd60e51b8152602060048201526009602482015268139bdd08199bdd5b9960ba1b6044820152606490fd5b1561170a57565b60405162461bcd60e51b8152602060048201526016602482015275141c9bda9958dd08191bd95cc81b9bdd08195e1a5cdd60521b6044820152606490fdfea2646970667358221220e20b5658df48531e63f82d446fcc8f78863be93709b2d0410368f6c7d01d3e3164736f6c63430008140033","opcodes":"PUSH1 0xC0 CALLVALUE PUSH2 0xD6 JUMPI PUSH1 0x1F PUSH2 0x1884 CODESIZE DUP2 SWAP1 SUB SWAP2 DUP3 ADD PUSH1 0x1F NOT AND DUP4 ADD SWAP2 PUSH1 0x1 PUSH1 0x1 PUSH1 0x40 SHL SUB DUP4 GT DUP5 DUP5 LT OR PUSH2 0xDB JUMPI DUP1 DUP5 SWAP3 PUSH1 0x40 SWAP5 DUP6 MSTORE DUP4 CODECOPY DUP2 ADD SUB SLT PUSH2 0xD6 JUMPI PUSH2 0x52 PUSH1 0x20 PUSH2 0x4B DUP4 PUSH2 0xF1 JUMP JUMPDEST SWAP3 ADD PUSH2 0xF1 JUMP JUMPDEST PUSH1 0x0 DUP1 SLOAD CALLER PUSH1 0x1 PUSH1 0x1 PUSH1 0xA0 SHL SUB NOT DUP3 AND DUP2 OR DUP4 SSTORE PUSH1 0x40 MLOAD SWAP5 PUSH1 0x1 PUSH1 0x1 PUSH1 0xA0 SHL SUB SWAP4 SWAP1 SWAP3 DUP5 AND SWAP1 PUSH32 0x8BE0079C531659141344CD1FD0A4F28419497F9722A3DAAFE3B4186F6B6457E0 SWAP1 DUP1 LOG3 AND PUSH1 0x80 MSTORE PUSH1 0xA0 MSTORE PUSH2 0x177E SWAP1 DUP2 PUSH2 0x106 DUP3 CODECOPY PUSH1 0x80 MLOAD DUP2 DUP2 DUP2 PUSH2 0x798 ADD MSTORE PUSH2 0xA73 ADD MSTORE PUSH1 0xA0 MLOAD DUP2 DUP2 DUP2 PUSH2 0x13C ADD MSTORE DUP2 DUP2 PUSH2 0xEC2 ADD MSTORE PUSH2 0x135F ADD MSTORE RETURN JUMPDEST PUSH1 0x0 DUP1 REVERT JUMPDEST PUSH4 0x4E487B71 PUSH1 0xE0 SHL PUSH1 0x0 MSTORE PUSH1 0x41 PUSH1 0x4 MSTORE PUSH1 0x24 PUSH1 0x0 REVERT JUMPDEST MLOAD SWAP1 PUSH1 0x1 PUSH1 0x1 PUSH1 0xA0 SHL SUB DUP3 AND DUP3 SUB PUSH2 0xD6 JUMPI JUMP INVALID PUSH1 0x80 PUSH1 0x40 MSTORE PUSH1 0x4 CALLDATASIZE LT ISZERO PUSH2 0x12 JUMPI PUSH1 0x0 DUP1 REVERT JUMPDEST PUSH1 0x0 DUP1 CALLDATALOAD PUSH1 0xE0 SHR DUP1 PUSH4 0x2D52FA4 EQ PUSH2 0x12B4 JUMPI DUP1 PUSH4 0x107046BD EQ PUSH2 0x1257 JUMPI DUP1 PUSH4 0x155DD5EE EQ PUSH2 0x10DA JUMPI DUP1 PUSH4 0x1DBCFC44 EQ PUSH2 0x1052 JUMPI DUP1 PUSH4 0x29AF9B51 EQ PUSH2 0x1034 JUMPI DUP1 PUSH4 0x36D95F56 EQ PUSH2 0x1012 JUMPI DUP1 PUSH4 0x3C1AB00F EQ PUSH2 0xF60 JUMPI DUP1 PUSH4 0x3D3B6865 EQ PUSH2 0xF0D JUMPI DUP1 PUSH4 0x6203A995 EQ PUSH2 0xEF1 JUMPI DUP1 PUSH4 0x6D24419A EQ PUSH2 0xEAC JUMPI DUP1 PUSH4 0x715018A6 EQ PUSH2 0xE52 JUMPI DUP1 PUSH4 0x8DA5CB5B EQ PUSH2 0xE2B JUMPI DUP1 PUSH4 0xAAFC92D6 EQ PUSH2 0xCFF JUMPI DUP1 PUSH4 0xC1CBBCA7 EQ PUSH2 0x949 JUMPI DUP1 PUSH4 0xF0F3F2C8 EQ PUSH2 0x88F JUMPI DUP1 PUSH4 0xF2FDE38B EQ PUSH2 0x7C7 JUMPI DUP1 PUSH4 0xF7C618C1 EQ PUSH2 0x782 JUMPI DUP1 PUSH4 0xFA3FC9B3 EQ PUSH2 0x217 JUMPI PUSH4 0xFDFDA408 EQ PUSH2 0xEE JUMPI PUSH1 0x0 DUP1 REVERT JUMPDEST CALLVALUE PUSH2 0x214 JUMPI PUSH1 0x20 DUP1 PUSH1 0x3 NOT CALLDATASIZE ADD SLT PUSH2 0x210 JUMPI PUSH1 0x4 CALLDATALOAD DUP1 DUP4 MSTORE PUSH1 0x1 DUP3 MSTORE PUSH2 0x120 PUSH1 0xFF PUSH1 0x3 PUSH1 0x40 DUP7 KECCAK256 ADD SLOAD PUSH1 0x88 SHR AND PUSH2 0x1703 JUMP JUMPDEST PUSH1 0x40 MLOAD PUSH4 0x15A91D39 PUSH1 0xE2 SHL DUP2 MSTORE PUSH1 0x4 DUP2 ADD SWAP2 SWAP1 SWAP2 MSTORE DUP2 DUP2 PUSH1 0x24 DUP2 PUSH32 0x0 PUSH1 0x1 PUSH1 0x1 PUSH1 0xA0 SHL SUB AND GAS STATICCALL SWAP1 DUP2 ISZERO PUSH2 0x205 JUMPI DUP4 SWAP2 PUSH2 0x1D3 JUMPI JUMPDEST POP ISZERO PUSH2 0x18F JUMPI DUP2 PUSH1 0x60 SWAP3 PUSH1 0x40 MLOAD SWAP3 DUP2 DUP5 MSTORE DUP4 ADD MSTORE PUSH1 0x40 DUP3 ADD MSTORE RETURN JUMPDEST PUSH1 0x64 SWAP1 PUSH1 0x40 MLOAD SWAP1 PUSH3 0x461BCD PUSH1 0xE5 SHL DUP3 MSTORE PUSH1 0x4 DUP3 ADD MSTORE PUSH1 0x1E PUSH1 0x24 DUP3 ADD MSTORE PUSH32 0x4E6F2070726F706F73616C2065786973747320666F722070726F6A6563740000 PUSH1 0x44 DUP3 ADD MSTORE REVERT JUMPDEST SWAP1 POP DUP2 DUP2 DUP2 RETURNDATASIZE DUP4 GT PUSH2 0x1FE JUMPI JUMPDEST PUSH2 0x1EA DUP2 DUP4 PUSH2 0x146C JUMP JUMPDEST DUP2 ADD SUB SLT PUSH2 0x1F9 JUMPI MLOAD CODESIZE PUSH2 0x174 JUMP JUMPDEST PUSH1 0x0 DUP1 REVERT JUMPDEST POP RETURNDATASIZE PUSH2 0x1E0 JUMP JUMPDEST PUSH1 0x40 MLOAD RETURNDATASIZE DUP6 DUP3 RETURNDATACOPY RETURNDATASIZE SWAP1 REVERT JUMPDEST POP DUP1 REVERT JUMPDEST DUP1 REVERT JUMPDEST POP CALLVALUE PUSH2 0x214 JUMPI PUSH1 0x80 CALLDATASIZE PUSH1 0x3 NOT ADD SLT PUSH2 0x214 JUMPI PUSH1 0x4 CALLDATALOAD PUSH8 0xFFFFFFFFFFFFFFFF DUP2 GT PUSH2 0x210 JUMPI PUSH2 0x249 SWAP1 CALLDATASIZE SWAP1 PUSH1 0x4 ADD PUSH2 0x1645 JUMP JUMPDEST PUSH1 0x24 CALLDATALOAD PUSH8 0xFFFFFFFFFFFFFFFF DUP2 GT PUSH2 0x77E JUMPI PUSH2 0x269 SWAP1 CALLDATASIZE SWAP1 PUSH1 0x4 ADD PUSH2 0x1645 JUMP JUMPDEST SWAP3 SWAP1 PUSH1 0x44 CALLDATALOAD PUSH1 0x1 PUSH1 0x1 PUSH1 0x60 SHL SUB DUP2 AND DUP2 SUB PUSH2 0x77A JUMPI PUSH1 0x64 CALLDATALOAD SWAP2 PUSH4 0xFFFFFFFF DUP4 AND DUP1 SWAP4 SUB PUSH2 0x776 JUMPI PUSH7 0x2386F26FC10000 PUSH1 0x1 PUSH1 0x1 PUSH1 0x60 SHL SUB DUP4 AND LT PUSH2 0x744 JUMPI PUSH3 0x15180 DUP4 GT PUSH2 0x70E JUMPI PUSH1 0x4 SLOAD SWAP6 PUSH1 0x0 NOT DUP8 EQ PUSH2 0x6FA JUMPI PUSH1 0x1 DUP8 ADD PUSH1 0x4 SSTORE DUP4 TIMESTAMP ADD TIMESTAMP GT PUSH2 0x6FA JUMPI PUSH1 0x40 MLOAD SWAP2 DUP3 PUSH2 0x100 DUP2 ADD LT PUSH8 0xFFFFFFFFFFFFFFFF PUSH2 0x100 DUP6 ADD GT OR PUSH2 0x6E4 JUMPI PUSH2 0x30D SWAP2 PUSH2 0x100 DUP5 ADD PUSH1 0x40 MSTORE PUSH2 0x304 CALLDATASIZE DUP10 DUP10 PUSH2 0x14AA JUMP JUMPDEST DUP5 MSTORE CALLDATASIZE SWAP2 PUSH2 0x14AA JUMP JUMPDEST PUSH1 0x20 DUP3 ADD MSTORE CALLER PUSH1 0x40 DUP3 ADD MSTORE PUSH1 0x1 PUSH1 0x1 PUSH1 0x60 SHL SUB DUP3 AND PUSH1 0x60 DUP3 ADD MSTORE DUP7 PUSH1 0x80 DUP3 ADD MSTORE PUSH4 0xFFFFFFFF DUP4 TIMESTAMP ADD AND PUSH1 0xA0 DUP3 ADD MSTORE DUP7 PUSH1 0xC0 DUP3 ADD MSTORE PUSH1 0x1 PUSH1 0xE0 DUP3 ADD MSTORE DUP6 DUP8 MSTORE PUSH1 0x1 PUSH1 0x20 MSTORE PUSH1 0x40 DUP8 KECCAK256 DUP2 MLOAD DUP1 MLOAD SWAP1 PUSH8 0xFFFFFFFFFFFFFFFF DUP3 GT PUSH2 0x613 JUMPI DUP2 SWAP1 PUSH2 0x374 DUP5 SLOAD PUSH2 0x14E1 JUMP JUMPDEST PUSH1 0x1F DUP2 GT PUSH2 0x696 JUMPI JUMPDEST POP PUSH1 0x20 SWAP1 PUSH1 0x1F DUP4 GT PUSH1 0x1 EQ PUSH2 0x632 JUMPI DUP12 SWAP3 PUSH2 0x627 JUMPI JUMPDEST POP POP DUP2 PUSH1 0x1 SHL SWAP2 PUSH1 0x0 NOT SWAP1 PUSH1 0x3 SHL SHR NOT AND OR DUP2 SSTORE JUMPDEST PUSH1 0x20 DUP3 ADD MLOAD DUP1 MLOAD SWAP1 PUSH8 0xFFFFFFFFFFFFFFFF DUP3 GT PUSH2 0x613 JUMPI PUSH2 0x3CC PUSH1 0x1 DUP5 ADD SLOAD PUSH2 0x14E1 JUMP JUMPDEST PUSH1 0x1F DUP2 GT PUSH2 0x5CF JUMPI JUMPDEST POP SWAP2 DUP9 SWAP7 SWAP6 SWAP5 SWAP4 SWAP2 DUP11 SWAP4 PUSH1 0x20 SWAP12 POP DUP12 SWAP1 PUSH1 0x1F DUP4 GT PUSH1 0x1 EQ PUSH2 0x524 JUMPI PUSH4 0xFFFFFFFF SWAP7 SWAP4 DUP4 DUP8 SWAP5 PUSH1 0x1 PUSH1 0x1 PUSH1 0x60 SHL SUB SWAP8 SWAP5 PUSH1 0x3 SWAP5 PUSH32 0xD2067D759B1A8EB6BE1E22E6331135D428FFFBA535EA17351BF01FAE7BD3F4DA SWAP14 SWAP13 SWAP11 SWAP3 PUSH2 0x519 JUMPI JUMPDEST POP POP PUSH1 0x0 NOT DUP3 DUP6 SHL SHR NOT AND PUSH1 0x1 SWAP2 DUP3 SHL OR SWAP1 DUP3 ADD SSTORE JUMPDEST PUSH1 0x1 DUP1 PUSH1 0xA0 SHL SUB PUSH1 0x40 DUP5 ADD MLOAD AND DUP7 PUSH1 0xA0 SHL PUSH1 0x60 DUP6 ADD MLOAD PUSH1 0xA0 SHL AND OR PUSH1 0x2 DUP3 ADD SSTORE ADD SWAP1 DUP5 PUSH1 0x80 DUP3 ADD MLOAD AND DUP6 NOT DUP4 SLOAD AND OR DUP3 SSTORE PUSH2 0x4A4 DUP8 PUSH1 0xA0 DUP4 ADD MLOAD AND DUP4 SWAP1 DUP2 SLOAD SWAP1 PUSH4 0xFFFFFFFF PUSH1 0x60 SHL SWAP1 PUSH1 0x60 SHL AND SWAP1 PUSH4 0xFFFFFFFF PUSH1 0x60 SHL NOT AND OR SWAP1 SSTORE JUMP JUMPDEST PUSH1 0xC0 DUP2 ADD MLOAD ISZERO ISZERO SWAP1 DUP3 SLOAD SWAP1 PUSH1 0xE0 PUSH1 0xFF PUSH1 0x88 SHL SWAP2 ADD MLOAD ISZERO ISZERO PUSH1 0x88 SHL AND SWAP2 PUSH1 0xFF PUSH1 0x80 SHL SWAP1 PUSH1 0x80 SHL AND SWAP1 PUSH2 0xFFFF PUSH1 0x80 SHL NOT AND OR OR SWAP1 SSTORE DUP9 PUSH1 0x40 MLOAD SWAP7 PUSH1 0x60 DUP9 MSTORE DUP2 PUSH1 0x60 DUP10 ADD MSTORE PUSH1 0x80 DUP9 ADD CALLDATACOPY PUSH1 0x80 DUP10 DUP8 ADD ADD MSTORE AND DUP9 DUP5 ADD MSTORE TIMESTAMP ADD AND PUSH1 0x40 DUP3 ADD MSTORE PUSH1 0x80 DUP2 CALLER SWAP6 PUSH1 0x1F DUP1 NOT SWAP2 ADD AND DUP2 ADD SUB ADD SWAP1 LOG3 PUSH1 0x40 MLOAD SWAP1 DUP2 MSTORE RETURN JUMPDEST ADD MLOAD SWAP1 POP CODESIZE DUP1 PUSH2 0x431 JUMP JUMPDEST PUSH1 0x1 DUP5 SWAP4 SWAP3 SWAP11 SWAP10 SWAP9 SWAP8 SWAP7 SWAP6 SWAP5 ADD DUP6 MSTORE DUP13 DUP6 KECCAK256 SWAP1 DUP6 JUMPDEST PUSH1 0x1F NOT DUP5 AND DUP2 LT PUSH2 0x5B5 JUMPI POP SWAP3 PUSH1 0x1 DUP4 PUSH1 0x3 SWAP4 PUSH32 0xD2067D759B1A8EB6BE1E22E6331135D428FFFBA535EA17351BF01FAE7BD3F4DA SWAP13 SWAP14 PUSH1 0x1 PUSH1 0x1 PUSH1 0x60 SHL SUB SWAP10 SWAP8 PUSH4 0xFFFFFFFF SWAP13 SWAP12 SWAP10 SWAP8 PUSH1 0x1F NOT DUP2 AND LT PUSH2 0x59D JUMPI JUMPDEST POP POP POP DUP2 SHL ADD PUSH1 0x1 DUP3 ADD SSTORE PUSH2 0x447 JUMP JUMPDEST ADD MLOAD PUSH1 0x0 NOT DUP4 DUP8 SHL PUSH1 0xF8 AND SHR NOT AND SWAP1 SSTORE CODESIZE DUP1 DUP1 PUSH2 0x58D JUMP JUMPDEST DUP2 DUP13 ADD MLOAD DUP4 SSTORE SWAP11 DUP15 ADD SWAP11 DUP14 SWAP11 POP PUSH1 0x1 SWAP1 SWAP3 ADD SWAP2 DUP15 ADD PUSH2 0x539 JUMP JUMPDEST PUSH1 0x1 DUP5 ADD DUP12 MSTORE PUSH1 0x20 DUP12 KECCAK256 PUSH1 0x1F DUP5 ADD PUSH1 0x5 SHR DUP2 ADD PUSH1 0x20 DUP6 LT PUSH2 0x60C JUMPI JUMPDEST PUSH1 0x1F DUP4 ADD PUSH1 0x5 SHR DUP3 ADD DUP2 LT PUSH2 0x601 JUMPI POP POP PUSH2 0x3D5 JUMP JUMPDEST DUP13 DUP2 SSTORE PUSH1 0x1 ADD PUSH2 0x5EB JUMP JUMPDEST POP DUP1 PUSH2 0x5EB JUMP JUMPDEST PUSH4 0x4E487B71 PUSH1 0xE0 SHL DUP11 MSTORE PUSH1 0x41 PUSH1 0x4 MSTORE PUSH1 0x24 DUP11 REVERT JUMPDEST ADD MLOAD SWAP1 POP CODESIZE DUP1 PUSH2 0x393 JUMP JUMPDEST DUP5 DUP13 MSTORE PUSH1 0x20 DUP13 KECCAK256 SWAP3 POP PUSH1 0x1F NOT DUP5 AND DUP13 JUMPDEST DUP2 DUP2 LT PUSH2 0x67E JUMPI POP SWAP1 DUP5 PUSH1 0x1 SWAP6 SWAP5 SWAP4 SWAP3 LT PUSH2 0x665 JUMPI JUMPDEST POP POP POP DUP2 SHL ADD DUP2 SSTORE PUSH2 0x3A8 JUMP JUMPDEST ADD MLOAD PUSH1 0x0 NOT PUSH1 0xF8 DUP5 PUSH1 0x3 SHL AND SHR NOT AND SWAP1 SSTORE CODESIZE DUP1 DUP1 PUSH2 0x658 JUMP JUMPDEST SWAP3 SWAP4 PUSH1 0x20 PUSH1 0x1 DUP2 SWAP3 DUP8 DUP7 ADD MLOAD DUP2 SSTORE ADD SWAP6 ADD SWAP4 ADD PUSH2 0x642 JUMP JUMPDEST SWAP1 SWAP2 POP DUP4 DUP12 MSTORE PUSH1 0x20 DUP12 KECCAK256 PUSH1 0x1F DUP5 ADD PUSH1 0x5 SHR DUP2 ADD PUSH1 0x20 DUP6 LT PUSH2 0x6DD JUMPI JUMPDEST SWAP1 DUP5 SWAP4 SWAP3 SWAP2 JUMPDEST DUP14 PUSH1 0x1F DUP5 ADD PUSH1 0x5 SHR DUP4 ADD DUP3 LT PUSH2 0x6D0 JUMPI POP POP POP PUSH2 0x37D JUMP JUMPDEST DUP2 SSTORE DUP6 SWAP5 POP PUSH1 0x1 ADD PUSH2 0x6B8 JUMP JUMPDEST POP DUP1 PUSH2 0x6B2 JUMP JUMPDEST PUSH4 0x4E487B71 PUSH1 0xE0 SHL PUSH1 0x0 MSTORE PUSH1 0x41 PUSH1 0x4 MSTORE PUSH1 0x24 PUSH1 0x0 REVERT JUMPDEST PUSH4 0x4E487B71 PUSH1 0xE0 SHL DUP9 MSTORE PUSH1 0x11 PUSH1 0x4 MSTORE PUSH1 0x24 DUP9 REVERT JUMPDEST PUSH1 0x40 MLOAD PUSH3 0x461BCD PUSH1 0xE5 SHL DUP2 MSTORE PUSH1 0x20 PUSH1 0x4 DUP3 ADD MSTORE PUSH1 0xE PUSH1 0x24 DUP3 ADD MSTORE PUSH14 0x88EAE4C2E8D2DEDC407C40DAC2F PUSH1 0x93 SHL PUSH1 0x44 DUP3 ADD MSTORE PUSH1 0x64 SWAP1 REVERT JUMPDEST PUSH1 0x40 MLOAD PUSH3 0x461BCD PUSH1 0xE5 SHL DUP2 MSTORE PUSH1 0x20 PUSH1 0x4 DUP3 ADD MSTORE PUSH1 0xA PUSH1 0x24 DUP3 ADD MSTORE PUSH10 0x23B7B0B6101E1036B4B7 PUSH1 0xB1 SHL PUSH1 0x44 DUP3 ADD MSTORE PUSH1 0x64 SWAP1 REVERT JUMPDEST DUP7 DUP1 REVERT JUMPDEST DUP6 DUP1 REVERT JUMPDEST DUP4 DUP1 REVERT JUMPDEST POP CALLVALUE PUSH2 0x214 JUMPI DUP1 PUSH1 0x3 NOT CALLDATASIZE ADD SLT PUSH2 0x214 JUMPI PUSH1 0x40 MLOAD PUSH32 0x0 PUSH1 0x1 PUSH1 0x1 PUSH1 0xA0 SHL SUB AND DUP2 MSTORE PUSH1 0x20 SWAP1 RETURN JUMPDEST POP CALLVALUE PUSH2 0x214 JUMPI PUSH1 0x20 CALLDATASIZE PUSH1 0x3 NOT ADD SLT PUSH2 0x214 JUMPI PUSH1 0x4 CALLDATALOAD PUSH1 0x1 PUSH1 0x1 PUSH1 0xA0 SHL SUB DUP2 DUP2 AND SWAP2 DUP3 SWAP1 SUB PUSH2 0x1F9 JUMPI PUSH2 0x7F7 PUSH2 0x1673 JUMP JUMPDEST DUP2 ISZERO PUSH2 0x83B JUMPI PUSH1 0x0 SLOAD DUP3 PUSH1 0x1 PUSH1 0x1 PUSH1 0x60 SHL SUB PUSH1 0xA0 SHL DUP3 AND OR PUSH1 0x0 SSTORE AND PUSH32 0x8BE0079C531659141344CD1FD0A4F28419497F9722A3DAAFE3B4186F6B6457E0 PUSH1 0x0 DUP1 LOG3 DUP1 RETURN JUMPDEST PUSH1 0x40 MLOAD PUSH3 0x461BCD PUSH1 0xE5 SHL DUP2 MSTORE PUSH1 0x20 PUSH1 0x4 DUP3 ADD MSTORE PUSH1 0x26 PUSH1 0x24 DUP3 ADD MSTORE PUSH32 0x4F776E61626C653A206E6577206F776E657220697320746865207A65726F2061 PUSH1 0x44 DUP3 ADD MSTORE PUSH6 0x646472657373 PUSH1 0xD0 SHL PUSH1 0x64 DUP3 ADD MSTORE PUSH1 0x84 SWAP1 REVERT JUMPDEST POP CALLVALUE PUSH2 0x214 JUMPI PUSH1 0x20 CALLDATASIZE PUSH1 0x3 NOT ADD SLT PUSH2 0x214 JUMPI PUSH1 0x40 PUSH2 0x8EA SWAP2 PUSH1 0x4 CALLDATALOAD DUP2 MSTORE PUSH1 0x1 PUSH1 0x20 MSTORE KECCAK256 PUSH1 0x2 DUP2 ADD SLOAD PUSH1 0xFF PUSH1 0x3 DUP4 ADD SLOAD PUSH2 0x8F8 PUSH2 0x8D6 PUSH1 0x1 PUSH2 0x8CF DUP8 PUSH2 0x151B JUMP JUMPDEST SWAP7 ADD PUSH2 0x151B JUMP JUMPDEST PUSH1 0x40 MLOAD SWAP7 DUP8 SWAP7 PUSH2 0x100 DUP1 DUP10 MSTORE DUP9 ADD SWAP1 PUSH2 0x15C1 JUMP JUMPDEST SWAP1 DUP7 DUP3 SUB PUSH1 0x20 DUP9 ADD MSTORE PUSH2 0x15C1 JUMP JUMPDEST SWAP3 PUSH1 0x1 DUP1 PUSH1 0xA0 SHL SUB DUP2 AND PUSH1 0x40 DUP7 ADD MSTORE PUSH1 0xA0 SHR PUSH1 0x60 DUP6 ADD MSTORE PUSH1 0x1 PUSH1 0x1 PUSH1 0x60 SHL SUB DUP2 AND PUSH1 0x80 DUP6 ADD MSTORE PUSH4 0xFFFFFFFF DUP2 PUSH1 0x60 SHR AND PUSH1 0xA0 DUP6 ADD MSTORE DUP2 DUP2 PUSH1 0x80 SHR AND ISZERO ISZERO PUSH1 0xC0 DUP6 ADD MSTORE PUSH1 0x88 SHR AND ISZERO ISZERO PUSH1 0xE0 DUP4 ADD MSTORE SUB SWAP1 RETURN JUMPDEST POP PUSH1 0x20 DUP1 PUSH1 0x3 NOT CALLDATASIZE ADD SLT PUSH2 0x210 JUMPI PUSH1 0x4 CALLDATALOAD DUP1 DUP4 MSTORE PUSH1 0x1 DUP3 MSTORE PUSH1 0x40 DUP4 KECCAK256 PUSH1 0x3 DUP2 ADD DUP1 SLOAD SWAP4 PUSH2 0x97B PUSH1 0xFF DUP7 PUSH1 0x88 SHR AND PUSH2 0x16CB JUMP JUMPDEST PUSH4 0xFFFFFFFF SWAP3 DUP4 DUP7 PUSH1 0x60 SHR AND TIMESTAMP LT ISZERO PUSH2 0xCD2 JUMPI CALLVALUE ISZERO PUSH2 0xCA0 JUMPI PUSH1 0x1 PUSH1 0x1 PUSH1 0x60 SHL SUB SWAP3 DUP4 CALLVALUE AND SWAP7 DUP8 DUP6 DUP3 AND ADD DUP6 DUP2 GT PUSH2 0xC8C JUMPI SWAP1 DUP6 SWAP2 PUSH1 0x1 PUSH1 0x1 PUSH1 0x60 SHL SUB NOT SWAP3 DUP4 SWAP2 AND SWAP2 AND OR DUP3 SSTORE DUP7 DUP10 MSTORE PUSH1 0x2 DUP5 MSTORE PUSH1 0x40 DUP10 KECCAK256 CALLER DUP11 MSTORE DUP5 MSTORE PUSH1 0x40 DUP10 KECCAK256 SWAP1 DUP7 TIMESTAMP AND SWAP7 PUSH1 0x40 MLOAD SWAP2 PUSH2 0x9E8 DUP4 PUSH2 0x1450 JUMP JUMPDEST DUP11 DUP4 MSTORE DUP7 DUP4 ADD SWAP1 DUP10 DUP3 MSTORE DUP5 SLOAD PUSH9 0x10000000000000000 SWAP6 DUP7 DUP3 LT ISZERO PUSH2 0xC78 JUMPI SWAP1 PUSH2 0xA17 SWAP2 PUSH1 0x1 DUP3 ADD DUP2 SSTORE PUSH2 0x1617 JUMP JUMPDEST SWAP5 SWAP1 SWAP5 PUSH2 0xC64 JUMPI MLOAD DUP5 SLOAD SWAP3 MLOAD PUSH4 0xFFFFFFFF PUSH1 0x60 SHL NOT SWAP3 SWAP1 SWAP4 AND SWAP1 DUP11 AND OR AND SWAP2 AND PUSH1 0x60 SHL PUSH4 0xFFFFFFFF PUSH1 0x60 SHL AND OR SWAP1 SSTORE DUP7 DUP10 MSTORE PUSH1 0x2 DUP5 MSTORE PUSH1 0x40 DUP1 DUP11 KECCAK256 CALLER DUP12 MSTORE DUP6 MSTORE DUP10 KECCAK256 SLOAD PUSH1 0x1 EQ PUSH2 0xC1D JUMPI JUMPDEST POP PUSH1 0x64 DUP8 MUL DUP5 DUP2 AND SWAP1 DUP2 SUB PUSH2 0xC09 JUMPI PUSH32 0x0 PUSH1 0x1 PUSH1 0x1 PUSH1 0xA0 SHL SUB AND SWAP1 DUP10 SWAP1 DUP3 EXTCODESIZE ISZERO PUSH2 0x210 JUMPI PUSH1 0x44 PUSH8 0xDE0B6B3A7640000 SWAP2 DUP4 DUP10 SWAP6 PUSH1 0x40 MLOAD SWAP7 DUP8 SWAP6 DUP7 SWAP5 PUSH4 0x40C10F19 PUSH1 0xE0 SHL DUP7 MSTORE CALLER PUSH1 0x4 DUP8 ADD MSTORE DIV AND PUSH1 0x24 DUP5 ADD MSTORE GAS CALL DUP1 ISZERO PUSH2 0xBFE JUMPI PUSH2 0xBAE JUMPI JUMPDEST POP SWAP3 PUSH32 0x3FC3B070E9894CD62CADB58D640D5365F025B5D368F467497DA53FA9885B5418 SWAP5 SWAP3 DUP7 SWAP3 DUP6 PUSH1 0x2 PUSH2 0xB55 SWAP8 SLOAD SWAP5 DUP6 AND SWAP3 ADD SLOAD PUSH1 0xA0 SHR DUP3 LT ISZERO DUP1 PUSH2 0xBA0 JUMPI JUMPDEST PUSH2 0xB5B JUMPI JUMPDEST POP POP POP POP POP PUSH1 0x40 MLOAD SWAP2 DUP3 SWAP2 CALLER SWAP7 DUP4 SWAP1 SWAP3 SWAP2 PUSH4 0xFFFFFFFF PUSH1 0x20 SWAP2 PUSH1 0x1 PUSH1 0x1 PUSH1 0x60 SHL SUB PUSH1 0x40 DUP6 ADD SWAP7 AND DUP5 MSTORE AND SWAP2 ADD MSTORE JUMP JUMPDEST SUB SWAP1 LOG3 DUP1 RETURN JUMPDEST PUSH1 0xFF PUSH1 0x80 SHL NOT SWAP1 SWAP4 AND PUSH1 0x1 PUSH1 0x80 SHL OR SWAP1 SWAP3 SSTORE PUSH1 0x40 MLOAD SWAP2 DUP3 MSTORE PUSH32 0x6F5E2ACFC35D551F42648C89245AA19DF07BC207BFA00CCB27D46B6674F25D3E SWAP2 LOG2 DUP4 CODESIZE DUP1 DUP1 DUP1 PUSH2 0xB26 JUMP JUMPDEST POP PUSH1 0xFF DUP5 PUSH1 0x80 SHR AND ISZERO PUSH2 0xB21 JUMP JUMPDEST PUSH8 0xFFFFFFFFFFFFFFFF DUP2 SWAP10 SWAP3 SWAP10 GT PUSH2 0xBEA JUMPI PUSH1 0x40 MSTORE SWAP7 PUSH32 0x3FC3B070E9894CD62CADB58D640D5365F025B5D368F467497DA53FA9885B5418 PUSH2 0xAE0 JUMP JUMPDEST PUSH4 0x4E487B71 PUSH1 0xE0 SHL DUP3 MSTORE PUSH1 0x41 PUSH1 0x4 MSTORE PUSH1 0x24 DUP3 REVERT JUMPDEST PUSH1 0x40 MLOAD RETURNDATASIZE DUP12 DUP3 RETURNDATACOPY RETURNDATASIZE SWAP1 REVERT JUMPDEST PUSH4 0x4E487B71 PUSH1 0xE0 SHL DUP10 MSTORE PUSH1 0x11 PUSH1 0x4 MSTORE PUSH1 0x24 DUP10 REVERT JUMPDEST DUP7 DUP10 MSTORE PUSH1 0x3 DUP5 MSTORE PUSH1 0x40 DUP10 KECCAK256 DUP1 SLOAD SWAP2 DUP3 LT ISZERO PUSH2 0x613 JUMPI SWAP1 PUSH2 0xC42 SWAP2 PUSH1 0x1 DUP3 ADD DUP2 SSTORE PUSH2 0x1617 JUMP JUMPDEST DUP2 SLOAD PUSH1 0x1 PUSH1 0x1 PUSH1 0xA0 SHL SUB PUSH1 0x3 SWAP3 SWAP1 SWAP3 SHL SWAP2 DUP3 SHL NOT AND CALLER SWAP1 SWAP2 SHL OR SWAP1 SSTORE CODESIZE PUSH2 0xA62 JUMP JUMPDEST PUSH4 0x4E487B71 PUSH1 0xE0 SHL DUP15 MSTORE PUSH1 0x4 DUP15 SWAP1 MSTORE PUSH1 0x24 DUP15 REVERT JUMPDEST PUSH4 0x4E487B71 PUSH1 0xE0 SHL DUP16 MSTORE PUSH1 0x41 PUSH1 0x4 MSTORE PUSH1 0x24 DUP16 REVERT JUMPDEST PUSH4 0x4E487B71 PUSH1 0xE0 SHL DUP11 MSTORE PUSH1 0x11 PUSH1 0x4 MSTORE PUSH1 0x24 DUP11 REVERT JUMPDEST PUSH1 0x40 MLOAD PUSH3 0x461BCD PUSH1 0xE5 SHL DUP2 MSTORE PUSH1 0x4 DUP2 ADD DUP4 SWAP1 MSTORE PUSH1 0xA PUSH1 0x24 DUP3 ADD MSTORE PUSH10 0x5A65726F2076616C7565 PUSH1 0xB0 SHL PUSH1 0x44 DUP3 ADD MSTORE PUSH1 0x64 SWAP1 REVERT JUMPDEST PUSH1 0x40 MLOAD PUSH3 0x461BCD PUSH1 0xE5 SHL DUP2 MSTORE PUSH1 0x4 DUP2 ADD DUP4 SWAP1 MSTORE PUSH1 0x5 PUSH1 0x24 DUP3 ADD MSTORE PUSH5 0x115B991959 PUSH1 0xDA SHL PUSH1 0x44 DUP3 ADD MSTORE PUSH1 0x64 SWAP1 REVERT JUMPDEST POP CALLVALUE PUSH2 0x214 JUMPI PUSH1 0x40 CALLDATASIZE PUSH1 0x3 NOT ADD SLT PUSH2 0x214 JUMPI PUSH2 0xD19 PUSH2 0x1601 JUMP JUMPDEST PUSH1 0x4 CALLDATALOAD DUP3 MSTORE PUSH1 0x2 PUSH1 0x20 SWAP1 DUP2 MSTORE PUSH1 0x40 DUP1 DUP5 KECCAK256 PUSH1 0x1 PUSH1 0x1 PUSH1 0xA0 SHL SUB SWAP1 SWAP4 AND DUP5 MSTORE SWAP2 DUP2 MSTORE SWAP1 DUP3 KECCAK256 DUP1 SLOAD SWAP1 SWAP3 SWAP2 PUSH8 0xFFFFFFFFFFFFFFFF DUP3 GT PUSH2 0xE17 JUMPI SWAP2 SWAP3 SWAP1 PUSH1 0x40 MLOAD SWAP1 PUSH2 0xD67 DUP5 DUP3 PUSH1 0x5 SHL ADD DUP4 PUSH2 0x146C JUMP JUMPDEST DUP1 DUP3 MSTORE DUP4 DUP3 ADD DUP1 SWAP4 DUP7 MSTORE DUP5 DUP7 KECCAK256 DUP7 SWAP2 JUMPDEST DUP4 DUP4 LT PUSH2 0xDD3 JUMPI POP POP POP POP PUSH1 0x40 MLOAD SWAP3 DUP1 DUP5 ADD SWAP2 DUP2 DUP6 MSTORE MLOAD DUP1 SWAP3 MSTORE PUSH1 0x40 DUP5 ADD SWAP3 SWAP5 JUMPDEST DUP3 DUP2 LT PUSH2 0xDA5 JUMPI DUP5 DUP5 SUB DUP6 RETURN JUMPDEST DUP6 MLOAD DUP1 MLOAD PUSH1 0x1 PUSH1 0x1 PUSH1 0x60 SHL SUB AND DUP6 MSTORE DUP3 ADD MLOAD PUSH4 0xFFFFFFFF AND DUP5 DUP4 ADD MSTORE SWAP5 DUP2 ADD SWAP5 PUSH1 0x40 SWAP1 SWAP4 ADD SWAP3 PUSH1 0x1 ADD PUSH2 0xD98 JUMP JUMPDEST PUSH1 0x1 DUP8 DUP2 SWAP3 PUSH1 0x40 SWAP11 SWAP10 SWAP8 SWAP9 SWAP11 MLOAD PUSH2 0xDE9 DUP2 PUSH2 0x1450 JUMP JUMPDEST PUSH4 0xFFFFFFFF DUP7 SLOAD PUSH1 0x1 PUSH1 0x1 PUSH1 0x60 SHL SUB DUP2 AND DUP4 MSTORE PUSH1 0x60 SHR AND DUP4 DUP3 ADD MSTORE DUP2 MSTORE ADD SWAP3 ADD SWAP3 ADD SWAP2 SWAP1 SWAP7 SWAP5 SWAP4 SWAP6 SWAP7 PUSH2 0xD77 JUMP JUMPDEST PUSH4 0x4E487B71 PUSH1 0xE0 SHL DUP4 MSTORE PUSH1 0x41 PUSH1 0x4 MSTORE PUSH1 0x24 DUP4 REVERT JUMPDEST POP CALLVALUE PUSH2 0x214 JUMPI DUP1 PUSH1 0x3 NOT CALLDATASIZE ADD SLT PUSH2 0x214 JUMPI SLOAD PUSH1 0x40 MLOAD PUSH1 0x1 PUSH1 0x1 PUSH1 0xA0 SHL SUB SWAP1 SWAP2 AND DUP2 MSTORE PUSH1 0x20 SWAP1 RETURN JUMPDEST POP CALLVALUE PUSH2 0x214 JUMPI DUP1 PUSH1 0x3 NOT CALLDATASIZE ADD SLT PUSH2 0x214 JUMPI PUSH2 0xE6B PUSH2 0x1673 JUMP JUMPDEST DUP1 SLOAD PUSH1 0x1 PUSH1 0x1 PUSH1 0xA0 SHL SUB NOT DUP2 AND DUP3 SSTORE DUP2 SWAP1 PUSH1 0x1 PUSH1 0x1 PUSH1 0xA0 SHL SUB AND PUSH32 0x8BE0079C531659141344CD1FD0A4F28419497F9722A3DAAFE3B4186F6B6457E0 DUP3 DUP1 LOG3 DUP1 RETURN JUMPDEST POP CALLVALUE PUSH2 0x214 JUMPI DUP1 PUSH1 0x3 NOT CALLDATASIZE ADD SLT PUSH2 0x214 JUMPI PUSH1 0x40 MLOAD PUSH32 0x0 PUSH1 0x1 PUSH1 0x1 PUSH1 0xA0 SHL SUB AND DUP2 MSTORE PUSH1 0x20 SWAP1 RETURN JUMPDEST POP CALLVALUE PUSH2 0x214 JUMPI DUP1 PUSH1 0x3 NOT CALLDATASIZE ADD SLT PUSH2 0x214 JUMPI PUSH1 0x20 PUSH1 0x40 MLOAD PUSH1 0x64 DUP2 MSTORE RETURN JUMPDEST POP CALLVALUE PUSH2 0x214 JUMPI PUSH1 0x40 CALLDATASIZE PUSH1 0x3 NOT ADD SLT PUSH2 0x214 JUMPI PUSH1 0x24 CALLDATALOAD SWAP1 PUSH1 0x4 CALLDATALOAD DUP2 MSTORE PUSH1 0x3 PUSH1 0x20 MSTORE PUSH1 0x40 DUP2 KECCAK256 SWAP1 DUP2 SLOAD DUP4 LT ISZERO PUSH2 0x214 JUMPI PUSH1 0x20 PUSH2 0xF47 DUP5 DUP5 PUSH2 0x1617 JUMP JUMPDEST SWAP1 SLOAD PUSH1 0x40 MLOAD PUSH1 0x3 SWAP3 SWAP1 SWAP3 SHL SHR PUSH1 0x1 PUSH1 0x1 PUSH1 0xA0 SHL SUB AND DUP2 MSTORE RETURN JUMPDEST POP CALLVALUE PUSH2 0x214 JUMPI PUSH1 0x20 DUP1 PUSH1 0x3 NOT CALLDATASIZE ADD SLT PUSH2 0x210 JUMPI PUSH1 0x4 CALLDATALOAD DUP3 MSTORE PUSH1 0x3 DUP2 MSTORE PUSH1 0x40 DUP3 KECCAK256 PUSH1 0x40 MLOAD SWAP3 DUP4 DUP4 DUP4 SLOAD SWAP2 DUP3 DUP2 MSTORE ADD SWAP1 DUP2 SWAP4 DUP4 MSTORE DUP5 DUP4 KECCAK256 SWAP1 DUP4 JUMPDEST DUP2 DUP2 LT PUSH2 0xFF5 JUMPI POP POP POP DUP5 PUSH2 0xFAE SWAP2 SUB DUP6 PUSH2 0x146C JUMP JUMPDEST PUSH1 0x40 MLOAD SWAP4 DUP4 DUP6 SWAP5 DUP6 ADD SWAP2 DUP2 DUP7 MSTORE MLOAD DUP1 SWAP3 MSTORE PUSH1 0x40 DUP6 ADD SWAP4 SWAP3 JUMPDEST DUP3 DUP2 LT PUSH2 0xFD5 JUMPI POP POP POP POP SUB SWAP1 RETURN JUMPDEST DUP4 MLOAD PUSH1 0x1 PUSH1 0x1 PUSH1 0xA0 SHL SUB AND DUP6 MSTORE DUP7 SWAP6 POP SWAP4 DUP2 ADD SWAP4 SWAP3 DUP2 ADD SWAP3 PUSH1 0x1 ADD PUSH2 0xFC6 JUMP JUMPDEST DUP3 SLOAD PUSH1 0x1 PUSH1 0x1 PUSH1 0xA0 SHL SUB AND DUP5 MSTORE SWAP3 DUP7 ADD SWAP3 PUSH1 0x1 SWAP3 DUP4 ADD SWAP3 ADD PUSH2 0xF98 JUMP JUMPDEST POP CALLVALUE PUSH2 0x214 JUMPI DUP1 PUSH1 0x3 NOT CALLDATASIZE ADD SLT PUSH2 0x214 JUMPI PUSH1 0x20 PUSH1 0x40 MLOAD PUSH7 0x2386F26FC10000 DUP2 MSTORE RETURN JUMPDEST POP CALLVALUE PUSH2 0x214 JUMPI DUP1 PUSH1 0x3 NOT CALLDATASIZE ADD SLT PUSH2 0x214 JUMPI PUSH1 0x20 PUSH1 0x40 MLOAD PUSH3 0x15180 DUP2 MSTORE RETURN JUMPDEST POP CALLVALUE PUSH2 0x214 JUMPI PUSH1 0x60 CALLDATASIZE PUSH1 0x3 NOT ADD SLT PUSH2 0x214 JUMPI PUSH2 0x106C PUSH2 0x1601 JUMP JUMPDEST PUSH1 0x4 CALLDATALOAD DUP3 MSTORE PUSH1 0x2 PUSH1 0x20 SWAP1 DUP2 MSTORE PUSH1 0x40 DUP1 DUP5 KECCAK256 PUSH1 0x1 PUSH1 0x1 PUSH1 0xA0 SHL SUB SWAP1 SWAP4 AND DUP5 MSTORE SWAP2 SWAP1 MSTORE DUP2 KECCAK256 DUP1 SLOAD PUSH1 0x44 CALLDATALOAD SWAP3 SWAP1 DUP4 LT ISZERO PUSH2 0x214 JUMPI PUSH2 0x10D6 PUSH2 0x10AA DUP5 DUP5 PUSH2 0x1617 JUMP JUMPDEST POP SLOAD PUSH1 0x40 DUP1 MLOAD PUSH1 0x1 PUSH1 0x1 PUSH1 0x60 SHL SUB DUP4 AND DUP2 MSTORE PUSH1 0x60 SWAP3 SWAP1 SWAP3 SHR PUSH4 0xFFFFFFFF AND PUSH1 0x20 DUP4 ADD MSTORE SWAP1 SWAP2 DUP3 SWAP2 DUP3 ADD SWAP1 JUMP JUMPDEST SUB SWAP1 RETURN JUMPDEST POP CALLVALUE PUSH2 0x214 JUMPI PUSH1 0x20 DUP1 PUSH1 0x3 NOT CALLDATASIZE ADD SLT PUSH2 0x210 JUMPI PUSH1 0x4 CALLDATALOAD DUP1 DUP4 MSTORE PUSH1 0x1 DUP3 MSTORE PUSH1 0x40 DUP4 KECCAK256 SWAP2 PUSH1 0x3 DUP4 ADD SWAP3 DUP4 SLOAD SWAP1 PUSH2 0x1113 PUSH1 0xFF DUP4 PUSH1 0x88 SHR AND PUSH2 0x16CB JUMP JUMPDEST PUSH1 0xFF DUP3 PUSH1 0x80 SHR AND ISZERO PUSH2 0x1225 JUMPI PUSH1 0x2 ADD DUP1 SLOAD PUSH1 0x1 PUSH1 0x1 PUSH1 0xA0 SHL SUB SWAP3 SWAP1 DUP4 AND CALLER DUP2 SWAP1 SUB PUSH2 0x11F2 JUMPI DUP8 DUP1 DUP4 DUP2 SWAP5 SWAP4 PUSH1 0x1 PUSH1 0x1 PUSH1 0x60 SHL SUB DUP4 SWAP6 AND SWAP11 DUP12 SWAP3 PUSH1 0x1 PUSH1 0x1 PUSH1 0x60 SHL SUB NOT AND SWAP1 SSTORE GAS CALL RETURNDATASIZE ISZERO PUSH2 0x11ED JUMPI RETURNDATASIZE PUSH2 0x116A DUP2 PUSH2 0x148E JUMP JUMPDEST SWAP1 PUSH2 0x1178 PUSH1 0x40 MLOAD SWAP3 DUP4 PUSH2 0x146C JUMP JUMPDEST DUP2 MSTORE DUP8 DUP6 RETURNDATASIZE SWAP3 ADD RETURNDATACOPY JUMPDEST ISZERO PUSH2 0x11B6 JUMPI SLOAD PUSH1 0x40 MLOAD SWAP5 DUP6 MSTORE AND SWAP3 PUSH32 0x3EA4BC8159B46F009306E75D69BBE83DAB3219666B8EA594E45937AB83ABE201 SWAP2 SWAP1 LOG3 DUP1 RETURN JUMPDEST PUSH1 0x40 MLOAD PUSH3 0x461BCD PUSH1 0xE5 SHL DUP2 MSTORE PUSH1 0x4 DUP2 ADD DUP5 SWAP1 MSTORE PUSH1 0xF PUSH1 0x24 DUP3 ADD MSTORE PUSH15 0x151C985B9CD9995C8819985A5B1959 PUSH1 0x8A SHL PUSH1 0x44 DUP3 ADD MSTORE PUSH1 0x64 SWAP1 REVERT JUMPDEST PUSH2 0x1181 JUMP JUMPDEST PUSH1 0x40 MLOAD PUSH3 0x461BCD PUSH1 0xE5 SHL DUP2 MSTORE PUSH1 0x4 DUP2 ADD DUP7 SWAP1 MSTORE PUSH1 0xB PUSH1 0x24 DUP3 ADD MSTORE PUSH11 0x2737BA1031B932B0BA37B9 PUSH1 0xA9 SHL PUSH1 0x44 DUP3 ADD MSTORE PUSH1 0x64 SWAP1 REVERT JUMPDEST PUSH1 0x40 MLOAD PUSH3 0x461BCD PUSH1 0xE5 SHL DUP2 MSTORE PUSH1 0x4 DUP2 ADD DUP5 SWAP1 MSTORE PUSH1 0xA PUSH1 0x24 DUP3 ADD MSTORE PUSH10 0x139BDD08199D5B991959 PUSH1 0xB2 SHL PUSH1 0x44 DUP3 ADD MSTORE PUSH1 0x64 SWAP1 REVERT JUMPDEST POP CALLVALUE PUSH2 0x214 JUMPI PUSH1 0x20 CALLDATASIZE PUSH1 0x3 NOT ADD SLT PUSH2 0x214 JUMPI PUSH1 0x40 PUSH2 0x8EA SWAP2 PUSH1 0x4 CALLDATALOAD DUP2 MSTORE PUSH1 0x1 PUSH1 0x20 MSTORE KECCAK256 PUSH2 0x1283 DUP2 PUSH2 0x151B JUMP JUMPDEST SWAP1 PUSH1 0xFF PUSH2 0x1292 PUSH1 0x1 DUP4 ADD PUSH2 0x151B JUMP JUMPDEST PUSH2 0x8F8 PUSH1 0x3 PUSH1 0x2 DUP6 ADD SLOAD SWAP5 ADD SLOAD SWAP2 PUSH1 0x40 MLOAD SWAP7 DUP8 SWAP7 PUSH2 0x100 DUP1 DUP10 MSTORE DUP9 ADD SWAP1 PUSH2 0x15C1 JUMP JUMPDEST POP CALLVALUE PUSH2 0x214 JUMPI PUSH1 0x40 CALLDATASIZE PUSH1 0x3 NOT ADD SLT PUSH2 0x214 JUMPI PUSH1 0x4 CALLDATALOAD PUSH1 0x24 CALLDATALOAD PUSH8 0xFFFFFFFFFFFFFFFF DUP2 GT PUSH2 0x140B JUMPI CALLDATASIZE PUSH1 0x23 DUP3 ADD SLT ISZERO PUSH2 0x140B JUMPI PUSH2 0x12FA SWAP1 CALLDATASIZE SWAP1 PUSH1 0x24 DUP2 PUSH1 0x4 ADD CALLDATALOAD SWAP2 ADD PUSH2 0x14AA JUMP JUMPDEST DUP2 DUP4 MSTORE PUSH1 0x20 SWAP2 PUSH1 0x1 DUP4 MSTORE PUSH1 0xFF PUSH1 0x3 PUSH1 0x40 DUP7 KECCAK256 ADD SLOAD PUSH2 0x131C DUP3 DUP3 PUSH1 0x88 SHR AND PUSH2 0x1703 JUMP JUMPDEST PUSH1 0x80 SHR AND ISZERO PUSH2 0x1416 JUMPI PUSH2 0x1353 SWAP2 DUP4 SWAP2 PUSH1 0x40 MLOAD SWAP4 DUP5 SWAP3 DUP4 SWAP3 PUSH4 0xC5A86C2D PUSH1 0xE0 SHL DUP5 MSTORE PUSH1 0x4 DUP5 ADD MSTORE PUSH1 0x60 PUSH1 0x24 DUP5 ADD MSTORE PUSH1 0x64 DUP4 ADD SWAP1 PUSH2 0x15C1 JUMP JUMPDEST PUSH1 0x2 PUSH1 0x44 DUP4 ADD MSTORE SUB DUP2 DUP7 PUSH32 0x0 PUSH1 0x1 PUSH1 0x1 PUSH1 0xA0 SHL SUB AND GAS CALL SWAP1 DUP2 ISZERO PUSH2 0x205 JUMPI DUP4 SWAP2 PUSH2 0x13E5 JUMPI JUMPDEST POP ISZERO PUSH2 0x13A1 JUMPI POP DUP1 RETURN JUMPDEST PUSH1 0x64 SWAP1 PUSH1 0x40 MLOAD SWAP1 PUSH3 0x461BCD PUSH1 0xE5 SHL DUP3 MSTORE PUSH1 0x4 DUP3 ADD MSTORE PUSH1 0x19 PUSH1 0x24 DUP3 ADD MSTORE PUSH32 0x4661696C656420746F206372656174652070726F706F73616C00000000000000 PUSH1 0x44 DUP3 ADD MSTORE REVERT JUMPDEST SWAP1 POP DUP2 DUP2 DUP2 RETURNDATASIZE DUP4 GT PUSH2 0x140F JUMPI JUMPDEST PUSH2 0x13FC DUP2 DUP4 PUSH2 0x146C JUMP JUMPDEST DUP2 ADD SUB SLT PUSH2 0x140B JUMPI MLOAD CODESIZE PUSH2 0x1397 JUMP JUMPDEST DUP3 DUP1 REVERT JUMPDEST POP RETURNDATASIZE PUSH2 0x13F2 JUMP JUMPDEST PUSH1 0x40 MLOAD PUSH3 0x461BCD PUSH1 0xE5 SHL DUP2 MSTORE PUSH1 0x4 DUP2 ADD DUP5 SWAP1 MSTORE PUSH1 0x12 PUSH1 0x24 DUP3 ADD MSTORE PUSH18 0x141C9BDA9958DD081B9BDD08199D5B991959 PUSH1 0x72 SHL PUSH1 0x44 DUP3 ADD MSTORE PUSH1 0x64 SWAP1 REVERT JUMPDEST PUSH1 0x40 DUP2 ADD SWAP1 DUP2 LT PUSH8 0xFFFFFFFFFFFFFFFF DUP3 GT OR PUSH2 0x6E4 JUMPI PUSH1 0x40 MSTORE JUMP JUMPDEST SWAP1 PUSH1 0x1F DUP1 NOT SWAP2 ADD AND DUP2 ADD SWAP1 DUP2 LT PUSH8 0xFFFFFFFFFFFFFFFF DUP3 GT OR PUSH2 0x6E4 JUMPI PUSH1 0x40 MSTORE JUMP JUMPDEST PUSH8 0xFFFFFFFFFFFFFFFF DUP2 GT PUSH2 0x6E4 JUMPI PUSH1 0x1F ADD PUSH1 0x1F NOT AND PUSH1 0x20 ADD SWAP1 JUMP JUMPDEST SWAP3 SWAP2 SWAP3 PUSH2 0x14B6 DUP3 PUSH2 0x148E JUMP JUMPDEST SWAP2 PUSH2 0x14C4 PUSH1 0x40 MLOAD SWAP4 DUP5 PUSH2 0x146C JUMP JUMPDEST DUP3 SWAP5 DUP2 DUP5 MSTORE DUP2 DUP4 ADD GT PUSH2 0x1F9 JUMPI DUP3 DUP2 PUSH1 0x20 SWAP4 DUP5 PUSH1 0x0 SWAP7 ADD CALLDATACOPY ADD ADD MSTORE JUMP JUMPDEST SWAP1 PUSH1 0x1 DUP3 DUP2 SHR SWAP3 AND DUP1 ISZERO PUSH2 0x1511 JUMPI JUMPDEST PUSH1 0x20 DUP4 LT EQ PUSH2 0x14FB JUMPI JUMP JUMPDEST PUSH4 0x4E487B71 PUSH1 0xE0 SHL PUSH1 0x0 MSTORE PUSH1 0x22 PUSH1 0x4 MSTORE PUSH1 0x24 PUSH1 0x0 REVERT JUMPDEST SWAP2 PUSH1 0x7F AND SWAP2 PUSH2 0x14F0 JUMP JUMPDEST SWAP1 PUSH1 0x40 MLOAD SWAP2 DUP3 PUSH1 0x0 DUP3 SLOAD SWAP3 PUSH2 0x152F DUP5 PUSH2 0x14E1 JUMP JUMPDEST SWAP1 DUP2 DUP5 MSTORE PUSH1 0x1 SWAP5 DUP6 DUP2 AND SWAP1 DUP2 PUSH1 0x0 EQ PUSH2 0x159E JUMPI POP PUSH1 0x1 EQ PUSH2 0x155B JUMPI JUMPDEST POP POP PUSH2 0x1559 SWAP3 POP SUB DUP4 PUSH2 0x146C JUMP JUMPDEST JUMP JUMPDEST SWAP1 SWAP4 SWAP2 POP PUSH1 0x0 MSTORE PUSH1 0x20 SWAP1 DUP2 PUSH1 0x0 KECCAK256 SWAP4 PUSH1 0x0 SWAP2 JUMPDEST DUP2 DUP4 LT PUSH2 0x1586 JUMPI POP POP PUSH2 0x1559 SWAP4 POP DUP3 ADD ADD CODESIZE DUP1 PUSH2 0x154B JUMP JUMPDEST DUP6 SLOAD DUP9 DUP5 ADD DUP6 ADD MSTORE SWAP5 DUP6 ADD SWAP5 DUP8 SWAP5 POP SWAP2 DUP4 ADD SWAP2 PUSH2 0x156E JUMP JUMPDEST SWAP2 POP POP PUSH2 0x1559 SWAP5 POP PUSH1 0x20 SWAP3 POP PUSH1 0xFF NOT AND DUP3 DUP5 ADD MSTORE ISZERO ISZERO PUSH1 0x5 SHL DUP3 ADD ADD CODESIZE DUP1 PUSH2 0x154B JUMP JUMPDEST SWAP2 SWAP1 DUP3 MLOAD SWAP3 DUP4 DUP3 MSTORE PUSH1 0x0 JUMPDEST DUP5 DUP2 LT PUSH2 0x15ED JUMPI POP POP DUP3 PUSH1 0x0 PUSH1 0x20 DUP1 SWAP5 SWAP6 DUP5 ADD ADD MSTORE PUSH1 0x1F DUP1 NOT SWAP2 ADD AND ADD ADD SWAP1 JUMP JUMPDEST PUSH1 0x20 DUP2 DUP4 ADD DUP2 ADD MLOAD DUP5 DUP4 ADD DUP3 ADD MSTORE ADD PUSH2 0x15CC JUMP JUMPDEST PUSH1 0x24 CALLDATALOAD SWAP1 PUSH1 0x1 PUSH1 0x1 PUSH1 0xA0 SHL SUB DUP3 AND DUP3 SUB PUSH2 0x1F9 JUMPI JUMP JUMPDEST DUP1 SLOAD DUP3 LT ISZERO PUSH2 0x162F JUMPI PUSH1 0x0 MSTORE PUSH1 0x20 PUSH1 0x0 KECCAK256 ADD SWAP1 PUSH1 0x0 SWAP1 JUMP JUMPDEST PUSH4 0x4E487B71 PUSH1 0xE0 SHL PUSH1 0x0 MSTORE PUSH1 0x32 PUSH1 0x4 MSTORE PUSH1 0x24 PUSH1 0x0 REVERT JUMPDEST SWAP2 DUP2 PUSH1 0x1F DUP5 ADD SLT ISZERO PUSH2 0x1F9 JUMPI DUP3 CALLDATALOAD SWAP2 PUSH8 0xFFFFFFFFFFFFFFFF DUP4 GT PUSH2 0x1F9 JUMPI PUSH1 0x20 DUP4 DUP2 DUP7 ADD SWAP6 ADD ADD GT PUSH2 0x1F9 JUMPI JUMP JUMPDEST PUSH1 0x0 SLOAD PUSH1 0x1 PUSH1 0x1 PUSH1 0xA0 SHL SUB AND CALLER SUB PUSH2 0x1687 JUMPI JUMP JUMPDEST PUSH1 0x64 PUSH1 0x40 MLOAD PUSH3 0x461BCD PUSH1 0xE5 SHL DUP2 MSTORE PUSH1 0x20 PUSH1 0x4 DUP3 ADD MSTORE PUSH1 0x20 PUSH1 0x24 DUP3 ADD MSTORE PUSH32 0x4F776E61626C653A2063616C6C6572206973206E6F7420746865206F776E6572 PUSH1 0x44 DUP3 ADD MSTORE REVERT JUMPDEST ISZERO PUSH2 0x16D2 JUMPI JUMP JUMPDEST PUSH1 0x40 MLOAD PUSH3 0x461BCD PUSH1 0xE5 SHL DUP2 MSTORE PUSH1 0x20 PUSH1 0x4 DUP3 ADD MSTORE PUSH1 0x9 PUSH1 0x24 DUP3 ADD MSTORE PUSH9 0x139BDD08199BDD5B99 PUSH1 0xBA SHL PUSH1 0x44 DUP3 ADD MSTORE PUSH1 0x64 SWAP1 REVERT JUMPDEST ISZERO PUSH2 0x170A JUMPI JUMP JUMPDEST PUSH1 0x40 MLOAD PUSH3 0x461BCD PUSH1 0xE5 SHL DUP2 MSTORE PUSH1 0x20 PUSH1 0x4 DUP3 ADD MSTORE PUSH1 0x16 PUSH1 0x24 DUP3 ADD MSTORE PUSH22 0x141C9BDA9958DD08191BD95CC81B9BDD08195E1A5CDD PUSH1 0x52 SHL PUSH1 0x44 DUP3 ADD MSTORE PUSH1 0x64 SWAP1 REVERT INVALID LOG2 PUSH5 0x6970667358 0x22 SLT KECCAK256 0xE2 SIGNEXTEND JUMP PC 0xDF BASEFEE MSTORE8 0x1E PUSH4 0xF82D446F 0xCC DUP16 PUSH25 0x863BE93709B2D0410368F6C7D01D3E3164736F6C6343000814 STOP CALLER "},"methodIdentifiers":{"MAX_FUNDING_PERIOD()":"29af9b51","MIN_FUNDING_GOAL()":"36d95f56","TOKEN_REWARD_RATE()":"6203a995","contribute(uint256)":"c1cbbca7","contributions(uint256,address,uint256)":"1dbcfc44","createProject(string,string,uint96,uint32)":"fa3fc9b3","createProposal(uint256,string)":"02d52fa4","getContributions(uint256,address)":"aafc92d6","getContributors(uint256)":"3c1ab00f","getProject(uint256)":"f0f3f2c8","getProjectVotes(uint256)":"fdfda408","owner()":"8da5cb5b","projectContributors(uint256,uint256)":"3d3b6865","projectDAO()":"6d24419a","projects(uint256)":"107046bd","renounceOwnership()":"715018a6","rewardToken()":"f7c618c1","transferOwnership(address)":"f2fde38b","withdrawFunds(uint256)":"155dd5ee"}}}}}