{"contracts/ProjectDAO.sol":{"ProjectDAO":{"abi":[{"inputs":[{"internalType":"address","name":"_fundingContract","type":"address"},{"internalType":"address","name":"_rewardToken","type":"address"}],"stateMutability":"nonpayable","type":"constructor"},{"inputs":[],"name":"Empty","type":"error"},{"inputs":[],"name":"InvalidShortString","type":"error"},{"inputs":[{"internalType":"string","name":"str","type":"string"}],"name":"StringTooLong","type":"error"},{"anonymous":false,"inputs":[],"name":"EIP712DomainChanged","type":"event"},{"anonymous":false,"inputs":[{"indexed":false,"internalType":"uint256","name":"proposalId","type":"uint256"}],"name":"ProposalCanceled","type":"event"},{"anonymous":false,"inputs":[{"indexed":false,"internalType":"uint256","name":"proposalId","type":"uint256"},{"indexed":false,"internalType":"address","name":"proposer","type":"address"},{"indexed":false,"internalType":"address[]","name":"targets","type":"address[]"},{"indexed":false,"internalType":"uint256[]","name":"values","type":"uint256[]"},{"indexed":false,"internalType":"string[]","name":"signatures","type":"string[]"},{"indexed":false,"internalType":"bytes[]","name":"calldatas","type":"bytes[]"},{"indexed":false,"internalType":"uint256","name":"voteStart","type":"uint256"},{"indexed":false,"internalType":"uint256","name":"voteEnd","type":"uint256"},{"indexed":false,"internalType":"string","name":"description","type":"string"}],"name":"ProposalCreated","type":"event"},{"anonymous":false,"inputs":[{"indexed":true,"internalType":"uint256","name":"projectId","type":"uint256"},{"indexed":true,"internalType":"uint256","name":"proposalId","type":"uint256"},{"indexed":false,"internalType":"string","name":"description","type":"string"},{"indexed":false,"internalType":"uint32","name":"deadline","type":"uint32"}],"name":"ProposalCreated","type":"event"},{"anonymous":false,"inputs":[{"indexed":false,"internalType":"uint256","name":"proposalId","type":"uint256"}],"name":"ProposalExecuted","type":"event"},{"anonymous":false,"inputs":[{"indexed":false,"internalType":"uint256","name":"oldProposalThreshold","type":"uint256"},{"indexed":false,"internalType":"uint256","name":"newProposalThreshold","type":"uint256"}],"name":"ProposalThresholdSet","type":"event"},{"anonymous":false,"inputs":[{"indexed":false,"internalType":"uint256","name":"oldQuorumNumerator","type":"uint256"},{"indexed":false,"internalType":"uint256","name":"newQuorumNumerator","type":"uint256"}],"name":"QuorumNumeratorUpdated","type":"event"},{"anonymous":false,"inputs":[{"indexed":true,"internalType":"address","name":"voter","type":"address"},{"indexed":false,"internalType":"uint256","name":"proposalId","type":"uint256"},{"indexed":false,"internalType":"uint8","name":"support","type":"uint8"},{"indexed":false,"internalType":"uint256","name":"weight","type":"uint256"},{"indexed":false,"internalType":"string","name":"reason","type":"string"}],"name":"VoteCast","type":"event"},{"anonymous":false,"inputs":[{"indexed":true,"internalType":"address","name":"voter","type":"address"},{"indexed":false,"internalType":"uint256","name":"proposalId","type":"uint256"},{"indexed":false,"internalType":"uint8","name":"support","type":"uint8"},{"indexed":false,"internalType":"uint256","name":"weight","type":"uint256"},{"indexed":false,"internalType":"string","name":"reason","type":"string"},{"indexed":false,"internalType":"bytes","name":"params","type":"bytes"}],"name":"VoteCastWithParams","type":"event"},{"anonymous":false,"inputs":[{"indexed":false,"internalType":"uint256","name":"oldVotingDelay","type":"uint256"},{"indexed":false,"internalType":"uint256","name":"newVotingDelay","type":"uint256"}],"name":"VotingDelaySet","type":"event"},{"anonymous":false,"inputs":[{"indexed":false,"internalType":"uint256","name":"oldVotingPeriod","type":"uint256"},{"indexed":false,"internalType":"uint256","name":"newVotingPeriod","type":"uint256"}],"name":"VotingPeriodSet","type":"event"},{"inputs":[],"name":"BALLOT_TYPEHASH","outputs":[{"internalType":"bytes32","name":"","type":"bytes32"}],"stateMutability":"view","type":"function"},{"inputs":[],"name":"CLOCK_MODE","outputs":[{"internalType":"string","name":"","type":"string"}],"stateMutability":"view","type":"function"},{"inputs":[],"name":"COUNTING_MODE","outputs":[{"internalType":"string","name":"","type":"string"}],"stateMutability":"pure","type":"function"},{"inputs":[],"name":"EXTENDED_BALLOT_TYPEHASH","outputs":[{"internalType":"bytes32","name":"","type":"bytes32"}],"stateMutability":"view","type":"function"},{"inputs":[{"internalType":"address[]","name":"targets","type":"address[]"},{"internalType":"uint256[]","name":"values","type":"uint256[]"},{"internalType":"bytes[]","name":"calldatas","type":"bytes[]"},{"internalType":"bytes32","name":"descriptionHash","type":"bytes32"}],"name":"cancel","outputs":[{"internalType":"uint256","name":"","type":"uint256"}],"stateMutability":"nonpayable","type":"function"},{"inputs":[{"internalType":"uint256","name":"proposalId","type":"uint256"},{"internalType":"uint8","name":"support","type":"uint8"}],"name":"castVote","outputs":[{"internalType":"uint256","name":"","type":"uint256"}],"stateMutability":"nonpayable","type":"function"},{"inputs":[{"internalType":"uint256","name":"proposalId","type":"uint256"},{"internalType":"uint8","name":"support","type":"uint8"},{"internalType":"uint8","name":"v","type":"uint8"},{"internalType":"bytes32","name":"r","type":"bytes32"},{"internalType":"bytes32","name":"s","type":"bytes32"}],"name":"castVoteBySig","outputs":[{"internalType":"uint256","name":"","type":"uint256"}],"stateMutability":"nonpayable","type":"function"},{"inputs":[{"internalType":"uint256","name":"proposalId","type":"uint256"},{"internalType":"uint8","name":"support","type":"uint8"},{"internalType":"string","name":"reason","type":"string"}],"name":"castVoteWithReason","outputs":[{"internalType":"uint256","name":"","type":"uint256"}],"stateMutability":"nonpayable","type":"function"},{"inputs":[{"internalType":"uint256","name":"proposalId","type":"uint256"},{"internalType":"uint8","name":"support","type":"uint8"},{"internalType":"string","name":"reason","type":"string"},{"internalType":"bytes","name":"params","type":"bytes"}],"name":"castVoteWithReasonAndParams","outputs":[{"internalType":"uint256","name":"","type":"uint256"}],"stateMutability":"nonpayable","type":"function"},{"inputs":[{"internalType":"uint256","name":"proposalId","type":"uint256"},{"internalType":"uint8","name":"support","type":"uint8"},{"internalType":"string","name":"reason","type":"string"},{"internalType":"bytes","name":"params","type":"bytes"},{"internalType":"uint8","name":"v","type":"uint8"},{"internalType":"bytes32","name":"r","type":"bytes32"},{"internalType":"bytes32","name":"s","type":"bytes32"}],"name":"castVoteWithReasonAndParamsBySig","outputs":[{"internalType":"uint256","name":"","type":"uint256"}],"stateMutability":"nonpayable","type":"function"},{"inputs":[],"name":"clock","outputs":[{"internalType":"uint48","name":"","type":"uint48"}],"stateMutability":"view","type":"function"},{"inputs":[{"internalType":"uint256","name":"projectId","type":"uint256"},{"internalType":"string","name":"description","type":"string"},{"internalType":"enum ProjectDAO.ProposalCategory","name":"category","type":"uint8"}],"name":"createProjectProposal","outputs":[{"internalType":"uint256","name":"","type":"uint256"}],"stateMutability":"nonpayable","type":"function"},{"inputs":[],"name":"eip712Domain","outputs":[{"internalType":"bytes1","name":"fields","type":"bytes1"},{"internalType":"string","name":"name","type":"string"},{"internalType":"string","name":"version","type":"string"},{"internalType":"uint256","name":"chainId","type":"uint256"},{"internalType":"address","name":"verifyingContract","type":"address"},{"internalType":"bytes32","name":"salt","type":"bytes32"},{"internalType":"uint256[]","name":"extensions","type":"uint256[]"}],"stateMutability":"view","type":"function"},{"inputs":[{"internalType":"address[]","name":"targets","type":"address[]"},{"internalType":"uint256[]","name":"values","type":"uint256[]"},{"internalType":"bytes[]","name":"calldatas","type":"bytes[]"},{"internalType":"bytes32","name":"descriptionHash","type":"bytes32"}],"name":"execute","outputs":[{"internalType":"uint256","name":"","type":"uint256"}],"stateMutability":"payable","type":"function"},{"inputs":[],"name":"fundingContract","outputs":[{"internalType":"contract FundingContract","name":"","type":"address"}],"stateMutability":"view","type":"function"},{"inputs":[{"internalType":"uint256","name":"projectId","type":"uint256"}],"name":"getProjectProposal","outputs":[{"internalType":"uint256","name":"","type":"uint256"}],"stateMutability":"view","type":"function"},{"inputs":[{"internalType":"uint256","name":"proposalId","type":"uint256"}],"name":"getProposalDetails","outputs":[{"components":[{"internalType":"enum ProjectDAO.ProposalCategory","name":"category","type":"uint8"},{"internalType":"uint32","name":"requiredQuorum","type":"uint32"},{"internalType":"uint32","name":"proposalDelay","type":"uint32"},{"internalType":"uint32","name":"proposalPeriod","type":"uint32"}],"internalType":"struct ProjectDAO.ProposalDetails","name":"","type":"tuple"}],"stateMutability":"view","type":"function"},{"inputs":[{"internalType":"address","name":"account","type":"address"},{"internalType":"uint256","name":"timepoint","type":"uint256"}],"name":"getVotes","outputs":[{"internalType":"uint256","name":"","type":"uint256"}],"stateMutability":"view","type":"function"},{"inputs":[{"internalType":"address","name":"account","type":"address"},{"internalType":"uint256","name":"timepoint","type":"uint256"},{"internalType":"bytes","name":"params","type":"bytes"}],"name":"getVotesWithParams","outputs":[{"internalType":"uint256","name":"","type":"uint256"}],"stateMutability":"view","type":"function"},{"inputs":[{"internalType":"uint256","name":"proposalId","type":"uint256"},{"internalType":"address","name":"account","type":"address"}],"name":"hasVoted","outputs":[{"internalType":"bool","name":"","type":"bool"}],"stateMutability":"view","type":"function"},{"inputs":[{"internalType":"address[]","name":"targets","type":"address[]"},{"internalType":"uint256[]","name":"values","type":"uint256[]"},{"internalType":"bytes[]","name":"calldatas","type":"bytes[]"},{"internalType":"bytes32","name":"descriptionHash","type":"bytes32"}],"name":"hashProposal","outputs":[{"internalType":"uint256","name":"","type":"uint256"}],"stateMutability":"pure","type":"function"},{"inputs":[],"name":"name","outputs":[{"internalType":"string","name":"","type":"string"}],"stateMutability":"view","type":"function"},{"inputs":[{"internalType":"address","name":"","type":"address"},{"internalType":"address","name":"","type":"address"},{"internalType":"uint256[]","name":"","type":"uint256[]"},{"internalType":"uint256[]","name":"","type":"uint256[]"},{"internalType":"bytes","name":"","type":"bytes"}],"name":"onERC1155BatchReceived","outputs":[{"internalType":"bytes4","name":"","type":"bytes4"}],"stateMutability":"nonpayable","type":"function"},{"inputs":[{"internalType":"address","name":"","type":"address"},{"internalType":"address","name":"","type":"address"},{"internalType":"uint256","name":"","type":"uint256"},{"internalType":"uint256","name":"","type":"uint256"},{"internalType":"bytes","name":"","type":"bytes"}],"name":"onERC1155Received","outputs":[{"internalType":"bytes4","name":"","type":"bytes4"}],"stateMutability":"nonpayable","type":"function"},{"inputs":[{"internalType":"address","name":"","type":"address"},{"internalType":"address","name":"","type":"address"},{"internalType":"uint256","name":"","type":"uint256"},{"internalType":"bytes","name":"","type":"bytes"}],"name":"onERC721Received","outputs":[{"internalType":"bytes4","name":"","type":"bytes4"}],"stateMutability":"nonpayable","type":"function"},{"inputs":[{"internalType":"uint256","name":"","type":"uint256"}],"name":"projectProposals","outputs":[{"internalType":"uint256","name":"","type":"uint256"}],"stateMutability":"view","type":"function"},{"inputs":[{"internalType":"uint256","name":"proposalId","type":"uint256"}],"name":"proposalDeadline","outputs":[{"internalType":"uint256","name":"","type":"uint256"}],"stateMutability":"view","type":"function"},{"inputs":[{"internalType":"uint256","name":"","type":"uint256"}],"name":"proposalDetails","outputs":[{"internalType":"enum ProjectDAO.ProposalCategory","name":"category","type":"uint8"},{"internalType":"uint32","name":"requiredQuorum","type":"uint32"},{"internalType":"uint32","name":"proposalDelay","type":"uint32"},{"internalType":"uint32","name":"proposalPeriod","type":"uint32"}],"stateMutability":"view","type":"function"},{"inputs":[{"internalType":"uint256","name":"proposalId","type":"uint256"}],"name":"proposalProposer","outputs":[{"internalType":"address","name":"","type":"address"}],"stateMutability":"view","type":"function"},{"inputs":[{"internalType":"uint256","name":"proposalId","type":"uint256"}],"name":"proposalSnapshot","outputs":[{"internalType":"uint256","name":"","type":"uint256"}],"stateMutability":"view","type":"function"},{"inputs":[],"name":"proposalThreshold","outputs":[{"internalType":"uint256","name":"","type":"uint256"}],"stateMutability":"pure","type":"function"},{"inputs":[{"internalType":"uint256","name":"proposalId","type":"uint256"}],"name":"proposalVotes","outputs":[{"internalType":"uint256","name":"againstVotes","type":"uint256"},{"internalType":"uint256","name":"forVotes","type":"uint256"},{"internalType":"uint256","name":"abstainVotes","type":"uint256"}],"stateMutability":"view","type":"function"},{"inputs":[{"internalType":"address[]","name":"targets","type":"address[]"},{"internalType":"uint256[]","name":"values","type":"uint256[]"},{"internalType":"bytes[]","name":"calldatas","type":"bytes[]"},{"internalType":"string","name":"description","type":"string"}],"name":"propose","outputs":[{"internalType":"uint256","name":"","type":"uint256"}],"stateMutability":"nonpayable","type":"function"},{"inputs":[{"internalType":"uint256","name":"blockNumber","type":"uint256"}],"name":"quorum","outputs":[{"internalType":"uint256","name":"","type":"uint256"}],"stateMutability":"view","type":"function"},{"inputs":[],"name":"quorumDenominator","outputs":[{"internalType":"uint256","name":"","type":"uint256"}],"stateMutability":"view","type":"function"},{"inputs":[{"internalType":"uint256","name":"timepoint","type":"uint256"}],"name":"quorumNumerator","outputs":[{"internalType":"uint256","name":"","type":"uint256"}],"stateMutability":"view","type":"function"},{"inputs":[],"name":"quorumNumerator","outputs":[{"internalType":"uint256","name":"","type":"uint256"}],"stateMutability":"view","type":"function"},{"inputs":[{"internalType":"address","name":"target","type":"address"},{"internalType":"uint256","name":"value","type":"uint256"},{"internalType":"bytes","name":"data","type":"bytes"}],"name":"relay","outputs":[],"stateMutability":"payable","type":"function"},{"inputs":[],"name":"rewardToken","outputs":[{"internalType":"contract RewardToken","name":"","type":"address"}],"stateMutability":"view","type":"function"},{"inputs":[{"internalType":"uint256","name":"newProposalThreshold","type":"uint256"}],"name":"setProposalThreshold","outputs":[],"stateMutability":"nonpayable","type":"function"},{"inputs":[{"internalType":"uint256","name":"newVotingDelay","type":"uint256"}],"name":"setVotingDelay","outputs":[],"stateMutability":"nonpayable","type":"function"},{"inputs":[{"internalType":"uint256","name":"newVotingPeriod","type":"uint256"}],"name":"setVotingPeriod","outputs":[],"stateMutability":"nonpayable","type":"function"},{"inputs":[{"internalType":"uint256","name":"proposalId","type":"uint256"}],"name":"state","outputs":[{"internalType":"enum IGovernor.ProposalState","name":"","type":"uint8"}],"stateMutability":"view","type":"function"},{"inputs":[{"internalType":"bytes4","name":"interfaceId","type":"bytes4"}],"name":"supportsInterface","outputs":[{"internalType":"bool","name":"","type":"bool"}],"stateMutability":"view","type":"function"},{"inputs":[],"name":"token","outputs":[{"internalType":"contract IERC5805","name":"","type":"address"}],"stateMutability":"view","type":"function"},{"inputs":[{"internalType":"uint256","name":"newQuorumNumerator","type":"uint256"}],"name":"updateQuorumNumerator","outputs":[],"stateMutability":"nonpayable","type":"function"},{"inputs":[],"name":"version","outputs":[{"internalType":"string","name":"","type":"string"}],"stateMutability":"view","type":"function"},{"inputs":[],"name":"votingDelay","outputs":[{"internalType":"uint256","name":"","type":"uint256"}],"stateMutability":"view","type":"function"},{"inputs":[],"name":"votingPeriod","outputs":[{"internalType":"uint256","name":"","type":"uint256"}],"stateMutability":"view","type":"function"},{"stateMutability":"payable","type":"receive"}],"evm":{"bytecode":{"linkReferences":{},"object":"6101c060405234620000ba5762000020620000196200015d565b90620001cb565b604051613bb8908162000db6823960805181612a8b015260a05181612b40015260c05181612a55015260e05181612ada01526101005181612b000152610120518161137d015261014051816113a9015261016051818181611b7e01528181611c20015281816122cb015281816123a20152818161371a01526139190152610180518161148301526101a0518181816117250152611b1f0152f35b600080fd5b634e487b7160e01b600052604160045260246000fd5b604081019081106001600160401b03821117620000f157604052565b620000bf565b60c081019081106001600160401b03821117620000f157604052565b601f909101601f19168101906001600160401b03821190821017620000f157604052565b604051906200014682620000d5565b565b51906001600160a01b0382168203620000ba57565b6200498e906040823803928382519485926200017a828562000113565b833981010312620000ba576200019e6020620001968462000148565b930162000148565b90565b60405190620001b082620000d5565b600c8252565b60405190620001c582620000d5565b60018252565b6001600160a01b039182169190620002a7620001e6620001a1565b602081016b496e6e6f46756e642044414f60a01b815262000206620001b6565b906020820190603160f81b82526200021e84620009da565b610120526200022d8362000ae8565b6101405283519020918260e05251902080610100524660a0526040519060208201927f8b73c3c69bb8fe3d512ecc4cf759cc79239f7b179b0ffacaa9a75d522b39400f8452604083015260608201524660808201523060a082015260a081526200029781620000f7565b5190206080523060c05262000429565b620002b16200051c565b620002bb62000556565b620002c562000590565b8261016052620002d46200062e565b16610180526101a052565b90600182811c9216801562000311575b6020831014620002fb57565b634e487b7160e01b600052602260045260246000fd5b91607f1691620002ef565b601f811162000329575050565b6000906002825260208220906020601f850160051c830194106200036a575b601f0160051c01915b8281106200035e57505050565b81815560010162000351565b909250829062000348565b601f811162000382575050565b60009081805260208220906020601f850160051c83019410620003c2575b601f0160051c01915b828110620003b657505050565b818155600101620003a9565b9092508290620003a0565b90601f8211620003db575050565b60019160009083825260208220906020601f850160051c830194106200041e575b601f0160051c01915b828110620004135750505050565b818155830162000405565b9092508290620003fc565b80519091906001600160401b038111620000f15762000455816200044f600254620002df565b6200031c565b602080601f831160011462000494575081929360009262000488575b50508160011b916000199060031b1c191617600255565b01519050388062000471565b6002600052601f198316949091907f405787fa12a823e0f2b7631cc41b3ba8828b3321ca811111fa75cd3aa3bb5ace926000905b87821062000503575050836001959610620004e9575b505050811b01600255565b015160001960f88460031b161c19169055388080620004de565b80600185968294968601518155019501930190620004c8565b7fc565b045403dc03c2eea82b81a0465edad9e2e7fc4d97e11421c209da93d7a936040600654815190815260016020820152a16001600655565b7f7e3f7f0708a84de9203036abaa450dccc85ad5ff52f78c170f3edb55cf5e88286040600754815190815260146020820152a16014600755565b7fccb45da8d5717e6c4544694297c4ba5cf151d455c9bb0ed4fc7a38411bc054616040600854815190815260006020820152a16000600855565b600b5468010000000000000000811015620000f1576001810180600b558110156200061857600b6000526020600020019063ffffffff81511690602063ffffffff1991015160201b16179055565b634e487b7160e01b600052603260045260246000fd5b600b548015906000908215620006ff575050620006b26000805160206200496e83398151915291600a54905b8115159081620006f6575b50620006b7575b62000699620006936200068d6200068262000769565b65ffffffffffff1690565b62000d4f565b620008a4565b5050604080519182526004602083015290918291820190565b0390a1565b620006f0620006c68262000c7d565b620006ea620006d462000137565b600081526001600160e01b039092166020830152565b620005ca565b6200066c565b90503862000665565b6000199181838101116200075557600b9052017f0175b7a638427703f0dbe7bb9bbf987a2551717b34e79f33b5b1008d1fa01db901546000805160206200496e83398151915291620006b29160201c906200065a565b634e487b7160e01b81526011600452602490fd5b610160516040516324776b7d60e21b815290602090829060049082906001600160a01b03165afa8091600091620007ae575b50906200019e57506200019e4362000ce7565b6020813d8211620007f3575b81620007c96020938362000113565b81010312620007ef57519065ffffffffffff82168203620007ec5750386200079b565b80fd5b5080fd5b3d9150620007ba565b6000198101919082116200080c57565b634e487b7160e01b600052601160045260246000fd5b604080519192919081016001600160401b03811182821017620000f157604052602081935463ffffffff81168352811c910152565b156200085f57565b60405162461bcd60e51b815260206004820152601b60248201527f436865636b706f696e743a2064656372656173696e67206b65797300000000006044820152606490fd5b600b548015620009b157620009799181620008f9620008f3620008c9602095620007fc565b600b6000527f0175b7a638427703f0dbe7bb9bbf987a2551717b34e79f33b5b1008d1fa01db90190565b62000822565b9162000909835163ffffffff1690565b6200092263ffffffff9182841692839116111562000857565b6200093e62000935855163ffffffff1690565b63ffffffff1690565b036200097f575062000958620008c96200096b92620007fc565b64040000000063ffffffff825416179055565b01516001600160e01b031690565b90600490565b620009ab91506200099f6200099362000137565b63ffffffff9092168252565b600481850152620005ca565b6200096b565b50620009d290620009c56200099362000137565b60046020820152620005ca565b600090600490565b908151602090818110600014620009f9575050906200019e9062000c00565b6001600160401b038111620000f15760009162000a228262000a1c8554620002df565b62000375565b80601f831160011462000a61575082939482939262000a55575b50508160011b916000199060031b1c191617905560ff90565b01519050388062000a3c565b60008052601f198316957f290decd9548b62a8d60345a988386fc84ba6bc95484008f6362f93160ef3e563929185905b88821062000acf5750508360019596971062000ab5575b505050811b01905560ff90565b015160001960f88460031b161c1916905538808062000aa8565b8060018596829496860151815501950193019062000a91565b90815160209081811060001462000b07575050906200019e9062000c00565b6001600160401b038111620000f15760019162000b308262000b2a8554620002df565b620003cd565b80601f831160011462000b6f57508192939460009262000b63575b5050600019600383901b1c191690821b17905560ff90565b01519050388062000b4b565b6001600052601f198316959091907fb10e2d527612073b26eecdfd717e6a320cf44b4afac2b0732d9fcbe2b7fa0cf6926000905b88821062000bc4575050838596971062000ab557505050811b01905560ff90565b80878596829496860151815501950193019062000ba3565b60208151910151906020811062000bf1575090565b6000199060200360031b1b1690565b601f81511162000c1b5762000c158162000bdc565b90511790565b6040519063305a27a960e01b82528160208060048301528251908160248401526000935b82851062000c63575050604492506000838284010152601f80199101168101030190fd5b848101820151868601604401529381019385935062000c3f565b6001600160e01b039081811162000c92571690565b60405162461bcd60e51b815260206004820152602760248201527f53616665436173743a2076616c756520646f65736e27742066697420696e20326044820152663234206269747360c81b6064820152608490fd5b65ffffffffffff9081811162000cfb571690565b60405162461bcd60e51b815260206004820152602660248201527f53616665436173743a2076616c756520646f65736e27742066697420696e203460448201526538206269747360d01b6064820152608490fd5b63ffffffff9081811162000d61571690565b60405162461bcd60e51b815260206004820152602660248201527f53616665436173743a2076616c756520646f65736e27742066697420696e203360448201526532206269747360d01b6064820152608490fdfe6080604052600436101561001b575b361561001957600080fd5b005b60003560e01c806301ffc9a71461032657806302a251a314610321578063034201811461031c57806306f3f9e61461031757806306fdde0314610312578063143489d01461030d578063150b7a021461030857806316e9eaec146103035780632656227d146102fe5780632d63f693146102f95780632fe3e261146102f45780633932abb1146102ef5780633b4d01a7146102ea5780633bccf4fd146102e55780633e4f49e6146102e057806343859632146102db578063452115d6146102d65780634bf5d7e9146102d1578063544ffc9c146102cc57806354fd4d50146102c757806356781388146102c257806356a474e4146102685780635f398a14146102bd57806360c4247f146102b857806370b0f660146102b35780637b3c71d3146102ae5780637d5e81e2146102a957806384b0196e146102a457806391ddadf41461029f57806397c3d3341461029a578063995df76c146102955780639a802a6d14610290578063a7713a701461028b578063b58131b014610286578063bc197c8114610281578063c01f9e371461027c578063c28bc2fa14610277578063c59057e414610272578063c5a86c2d1461026d578063dbc1d56914610268578063dd4e2ba514610263578063deaaa7cc1461025e578063ea0217cf14610259578063eb9019d414610254578063ece40cc11461024f578063f23a6e611461024a578063f7c618c114610245578063f8ce560a146102405763fc0c546a0361000e57611c0a565b611b4e565b611b09565b611ab4565b611a5c565b611a26565b611973565b611938565b6118da565b611131565b6116bf565b6116a3565b6115f1565b6115b9565b611531565b611515565b6114fa565b6114b2565b61146d565b611451565b611426565b611364565b611297565b611242565b6111ea565b6111cc565b61115d565b6110e1565b61109f565b61105c565b61102c565b610f69565b610f14565b610ee5565b610e2e565b610da1565b610d47565b610d0c565b610cd7565b610bd7565b6109b6565b61092f565b6108cc565b6107eb565b610637565b6105af565b6103d6565b346103d15760203660031901126103d15760043563ffffffff60e01b81168091036103d1576103899063bf26d89760e01b81149081156103c0575b81156103af575b811561039e575b811561038d575b5060405190151581529081906020820190565b0390f35b6301ffc9a760e01b14905038610376565b630271189760e51b8114915061036f565b63288ace0360e11b81149150610368565b6379dd796f60e01b81149150610361565b600080fd5b346103d15760003660031901126103d1576020600754604051908152f35b6024359060ff821682036103d157565b6044359060ff821682036103d157565b9181601f840112156103d1578235916001600160401b0383116103d157602083818601950101116103d157565b634e487b7160e01b600052604160045260246000fd5b608081019081106001600160401b0382111761047257604052565b610441565b604081019081106001600160401b0382111761047257604052565b602081019081106001600160401b0382111761047257604052565b606081019081106001600160401b0382111761047257604052565b60c081019081106001600160401b0382111761047257604052565b90601f801991011681019081106001600160401b0382111761047257604052565b6040519061051182610477565b565b6040519061051182610457565b6040519060e082018281106001600160401b0382111761047257604052565b6001600160401b03811161047257601f01601f191660200190565b9291926105668261053f565b9161057460405193846104e3565b8294818452818301116103d1578281602093846000960137010152565b9080601f830112156103d1578160206105ac9335910161055a565b90565b346103d15760e03660031901126103d1576105c86103f4565b6001600160401b036044358181116103d1576105e8903690600401610414565b916064359081116103d157610601903690600401610591565b9260843560ff811681036103d157610389946106279460c4359460a43594600435611e43565b6040519081529081906020820190565b346103d15760203660031901126103d15760043561065630331461208f565b6064811161071b577f0553476bf02ef2726e8ce5ced78d63e26e602e4a2257b1f559418e24b463399790610688612467565b80151580610711575b6106da575b6106c66106b76106b26106a76122b6565b65ffffffffffff1690565b612f6f565b6106c084612e9f565b90612783565b5050604080519182526020820192909252a1005b61070c6106e682612e9f565b6107076106f1610504565b600081526001600160e01b039092166020830152565b61269d565b610696565b50600b5415610691565b60405162461bcd60e51b815260206004820152604360248201527f476f7665726e6f72566f74657351756f72756d4672616374696f6e3a2071756f60448201527f72756d4e756d657261746f72206f7665722071756f72756d44656e6f6d696e616064820152623a37b960e91b608482015260a490fd5b60005b8381106107a55750506000910152565b8181015183820152602001610795565b906020916107ce81518092818552858086019101610792565b601f01601f1916010190565b9060206105ac9281815201906107b5565b346103d1576000806003193601126108c957604051908060025461080e81611c4f565b8085529160019180831690811561089f5750600114610844575b61038985610838818703826104e3565b604051918291826107da565b9250600283527f405787fa12a823e0f2b7631cc41b3ba8828b3321ca811111fa75cd3aa3bb5ace5b82841061088757505050810160200161083882610389610828565b8054602085870181019190915290930192810161086c565b8695506103899693506020925061083894915060ff191682840152151560051b8201019293610828565b80fd5b346103d15760203660031901126103d1576004356000526003602052602060018060a01b0360406000205460401c16604051908152f35b600435906001600160a01b03821682036103d157565b602435906001600160a01b03821682036103d157565b346103d15760803660031901126103d157610948610903565b50610951610919565b506064356001600160401b0381116103d157610971903690600401610591565b50604051630a85bd0160e11b8152602090f35b634e487b7160e01b600052602160045260246000fd5b600411156109a457565b610984565b9060048210156109a45752565b346103d15760203660031901126103d157600435600052600c6020526080604060002054604051906109eb8260ff83166109a9565b63ffffffff90818160081c166020840152818160281c16604084015260481c166060820152f35b6001600160401b0381116104725760051b60200190565b81601f820112156103d157803591610a4083610a12565b92610a4e60405194856104e3565b808452602092838086019260051b8201019283116103d1578301905b828210610a78575050505090565b81356001600160a01b03811681036103d1578152908301908301610a6a565b81601f820112156103d157803591610aae83610a12565b92610abc60405194856104e3565b808452602092838086019260051b8201019283116103d1578301905b828210610ae6575050505090565b81358152908301908301610ad8565b9080601f830112156103d157813590610b0d82610a12565b92610b1b60405194856104e3565b828452602092838086019160051b830101928084116103d157848301915b848310610b495750505050505090565b82356001600160401b0381116103d1578691610b6a84848094890101610591565b815201920191610b39565b60806003198201126103d1576001600160401b03916004358381116103d15782610ba191600401610a29565b926024358181116103d15783610bb991600401610a97565b926044359182116103d157610bd091600401610af5565b9060643590565b610bef610be336610b75565b81838594969395611d1b565b91610bf9836137ab565b60088110156109a45760048114908115610cc3575b5015610c74576103899361062792610c436002610c35876000526003602052604060002090565b01805460ff19166001179055565b6040518581527f712ae1383f79ac853f8d882153778e0260ef8f03b504e2866e0593e04d2b291f90602090a16139a6565b60405162461bcd60e51b815260206004820152602160248201527f476f7665726e6f723a2070726f706f73616c206e6f74207375636365737366756044820152601b60fa1b6064820152608490fd5b60059150610cd081610edb565b1438610c0e565b346103d15760203660031901126103d157600435600052600360205260206001600160401b0360406000205416604051908152f35b346103d15760003660031901126103d15760206040517fb3b3f3b703cd84ce352197dcff232b1b5d3cfb2025ce47cf04742d0651f1af888152f35b346103d15760003660031901126103d1576020600654604051908152f35b91909160606080820193610d7a8382516109a9565b8163ffffffff91826020820151166020860152826040820151166040860152015116910152565b346103d15760203660031901126103d15761038960408060608151610dc581610457565b6000918183809352826020820152828582015201526004358152600c6020522090805191610df283610457565b54610e0060ff821684612ff6565b63ffffffff90818160081c166020850152818160281c168385015260481c1660608301525191829182610d65565b346103d15760a03660031901126103d157610389610627600435610e506103f4565b610ec5610ebd610e5e610404565b60405160208101917f150214d74d59b7d1e90c73fc22ef3d991dd0a76b046543d4d80ab92d2a50328f835286604083015260ff8616606083015260608252610ea582610457565b610eb86084359360643593519020612a2c565b6129aa565b91909161288a565b60405192610ed284610492565b60008452611ede565b600811156109a457565b346103d15760203660031901126103d157610f016004356137ab565b60405160088210156109a4576020918152f35b346103d15760403660031901126103d157602060ff610f5d610f34610919565b6004356000526009845260036040600020019060018060a01b0316600052602052604060002090565b54166040519015158152f35b346103d157610f7736610b75565b90610f8482828587611d1b565b92610f8e846137ab565b60088110156109a457610fe75761038994610fe2610fdb610fcf610fbf610627986000526003602052604060002090565b5460401c6001600160a01b031690565b6001600160a01b031690565b3314611d7f565b613a61565b60405162461bcd60e51b815260206004820152601c60248201527f476f7665726e6f723a20746f6f206c61746520746f2063616e63656c000000006044820152606490fd5b346103d15760003660031901126103d15761038961104861238c565b6040519182916020835260208301906107b5565b346103d15760203660031901126103d157600435600052600960205260606040600020805490600260018201549101549060405192835260208301526040820152f35b346103d15760003660031901126103d1576103896040516110bf81610477565b60018152603160f81b60208201526040519182916020835260208301906107b5565b346103d15760403660031901126103d15760206111296110ff6103f4565b60405161110b81610492565b600081526040519161111c83610492565b6000835233600435611f5a565b604051908152f35b346103d15760203660031901126103d157600435600052600d6020526020604060002054604051908152f35b346103d15760803660031901126103d1576111766103f4565b6001600160401b03906044358281116103d157611197903690600401610414565b90916064359384116103d1576111c2611129936111ba6020963690600401610591565b93369161055a565b9033600435611f5a565b346103d15760203660031901126103d1576020611129600435612502565b346103d15760203660031901126103d15760043561120930331461208f565b60065460408051918252602082018390527fc565b045403dc03c2eea82b81a0465edad9e2e7fc4d97e11421c209da93d7a9391a1600655005b346103d15760603660031901126103d15761125b6103f4565b6044356001600160401b0381116103d15760209161128a611283611129933690600401610414565b369161055a565b6040519161111c83610492565b346103d15760803660031901126103d1576001600160401b036004358181116103d1576112c8903690600401610a29565b906024358181116103d1576112e1903690600401610a97565b916044358281116103d1576112fa903690600401610af5565b6064359283116103d157366023840112156103d1576103899361132a61062794369060248160040135910161055a565b926133b9565b90815180825260208080930193019160005b828110611350575050505090565b835185529381019392810192600101611342565b346103d15760003660031901126103d1576113f76113a17f0000000000000000000000000000000000000000000000000000000000000000612b7e565b6103896113cd7f0000000000000000000000000000000000000000000000000000000000000000612c75565b6114056113d8612b66565b91604051958695600f60f81b875260e0602088015260e08701906107b5565b9085820360408701526107b5565b90466060850152306080850152600060a085015283820360c0850152611330565b346103d15760003660031901126103d15760206114416122b6565b65ffffffffffff60405191168152f35b346103d15760003660031901126103d157602060405160648152f35b346103d15760003660031901126103d1576040517f00000000000000000000000000000000000000000000000000000000000000006001600160a01b03168152602090f35b346103d15760603660031901126103d1576114cb610903565b6044356001600160401b0381116103d1576020916114f0611129923690600401610591565b50602435906136e9565b346103d15760003660031901126103d1576020611129612467565b346103d15760003660031901126103d157602060405160008152f35b346103d15760a03660031901126103d15761154a610903565b50611553610919565b506001600160401b036044358181116103d157611574903690600401610a97565b506064358181116103d15761158d903690600401610a97565b506084359081116103d1576115a6903690600401610591565b5060405163bc197c8160e01b8152602090f35b346103d15760203660031901126103d157600435600052600360205260206001600160401b0360016040600020015416604051908152f35b60603660031901126103d157611605610903565b604435906001600160401b0382116103d1576000809161162c610019943690600401610414565b9061163830331461208f565b81604051928392833781018481520391602435905af16116566120db565b60405191611663836104ad565b602883527f476f7665726e6f723a2072656c617920726576657274656420776974686f7574602084015267206d65737361676560c01b60408401526126f7565b346103d15760206111296116b636610b75565b92919091611d1b565b346103d15760603660031901126103d1576004356024356001600160401b0381116103d1576116f2903690600401610414565b90916044359060048210156103d1576040516370a0823160e01b8152336004820152926020846024816001600160a01b037f0000000000000000000000000000000000000000000000000000000000000000165afa9081156118d5576103899563ffffffff957fe83f5655e3be48b8e6c02e6ed148df38c5a083495efe6b497887555b70b80f40936118a7575b5061185761184b6118426117b0611794612b66565b61179c612b66565b6117a4612fe3565b9061132a368a8a61055a565b9889986117bc8161099a565b6003810361186a57611825600a9161180060016117f3855b6117e66117df610513565b9586612ff6565b63ffffffff166020850152565b63ffffffff166040830152565b63ffffffff831660608201526118208c600052600c602052604060002090565b613002565b8961183a8a600052600d602052604060002090565b551642612175565b63ffffffff1690565b6040519384938461307a565b0390a36040519081529081906020820190565b6118738161099a565b6001810361189157611825601e9161180060056117f36014956117d4565b61182560149161180060036117f3600f956117d4565b6118c79060203d81116118ce575b6118bf81836104e3565b810190612fd4565b503861177f565b503d6118b5565b6122aa565b346103d15760003660031901126103d1576103896040516118fa81610477565b602081527f737570706f72743d627261766f2671756f72756d3d666f722c6162737461696e60208201526040519182916020835260208301906107b5565b346103d15760003660031901126103d15760206040517f150214d74d59b7d1e90c73fc22ef3d991dd0a76b046543d4d80ab92d2a50328f8152f35b346103d15760203660031901126103d15760043561199230331461208f565b80156119d15760075460408051918252602082018390527f7e3f7f0708a84de9203036abaa450dccc85ad5ff52f78c170f3edb55cf5e882891a1600755005b60405162461bcd60e51b815260206004820152602760248201527f476f7665726e6f7253657474696e67733a20766f74696e6720706572696f6420604482015266746f6f206c6f7760c81b6064820152608490fd5b346103d15760403660031901126103d1576020611129611a44610903565b6000604051611a5281610492565b52602435906136e9565b346103d15760203660031901126103d157600435611a7b30331461208f565b60085460408051918252602082018390527fccb45da8d5717e6c4544694297c4ba5cf151d455c9bb0ed4fc7a38411bc0546191a1600855005b346103d15760a03660031901126103d157611acd610903565b50611ad6610919565b506084356001600160401b0381116103d157611af6903690600401610591565b5060405163f23a6e6160e01b8152602090f35b346103d15760003660031901126103d1576040517f00000000000000000000000000000000000000000000000000000000000000006001600160a01b03168152602090f35b346103d15760203660031901126103d157604051632394e7a360e21b8152600480359082018190526020826024817f00000000000000000000000000000000000000000000000000000000000000006001600160a01b03165afa9182156118d557600092611be6575b50611bc190612502565b90818102918183041490151715611be15760405160649091048152602090f35b611dd6565b611bc1919250611c039060203d81116118ce576118bf81836104e3565b9190611bb7565b346103d15760003660031901126103d1576040517f00000000000000000000000000000000000000000000000000000000000000006001600160a01b03168152602090f35b90600182811c92168015611c7f575b6020831014611c6957565b634e487b7160e01b600052602260045260246000fd5b91607f1691611c5e565b90815180825260208080930193019160005b828110611ca9575050505090565b83516001600160a01b031685529381019392810192600101611c9b565b90815180825260208092019182818360051b85019501936000915b848310611cf15750505050505090565b9091929394958480611d0b83856001950387528a516107b5565b9801930193019194939290611ce1565b9290611d6792611d7992604051948592611d57611d44602086019960808b5260a0870190611c89565b601f199687878303016040880152611330565b9085858303016060860152611cc6565b906080830152039081018352826104e3565b51902090565b15611d8657565b60405162461bcd60e51b815260206004820152602260248201527f476f7665726e6f723a206f6e6c792070726f706f7365722063616e2063616e63604482015261195b60f21b6064820152608490fd5b634e487b7160e01b600052601160045260246000fd5b6000198114611be15760010190565b634e487b7160e01b600052603260045260246000fd5b8051821015611e255760209160051b010190565b611dfb565b906105ac916000604051611e3d81610492565b526136e9565b9492611ed06105ac98611ed89493969861128396610eb88a8a8d611e68368a8c61055a565b6020815191012090602081519101209060ff6040519360208501957fb3b3f3b703cd84ce352197dcff232b1b5d3cfb2025ce47cf04742d0651f1af8887526040860152166060840152608083015260a082015260a08152611ec8816104c8565b519020612a2c565b94909461288a565b92611f5a565b916105ac939160405193611ef185610492565b60008552611f5a565b93909260ff611f26936105ac97958752166020860152604085015260a0606085015260a08401906107b5565b9160808184039101526107b5565b909260ff6080936105ac96958452166020830152604082015281606082015201906107b5565b92919083600052600360205260406000206001611f76866137ab565b611f7f81610edb565b0361203e57611fa7611f9b611fad92546001600160401b031690565b6001600160401b031690565b826136e9565b94611fba86848488612182565b80516120025750611ffc7fb8e138887d0aa13bab447e82de9d5c1777041ecd21ca36ba824ff1e6c07ddda4938660405194859460018060a01b03169785611f34565b0390a290565b611ffc907fe2babfbac5889a709b63bb7f598b324e08bc5a4fb9ec647fb3cbc9ec07eb8712948760405195869560018060a01b03169886611efa565b60405162461bcd60e51b815260206004820152602360248201527f476f7665726e6f723a20766f7465206e6f742063757272656e746c792061637460448201526269766560e81b6064820152608490fd5b1561209657565b60405162461bcd60e51b815260206004820152601860248201527f476f7665726e6f723a206f6e6c79476f7665726e616e636500000000000000006044820152606490fd5b3d15612106573d906120ec8261053f565b916120fa60405193846104e3565b82523d6000602084013e565b606090565b1561211257565b60405162461bcd60e51b815260206004820152602760248201527f476f7665726e6f72566f74696e6753696d706c653a20766f746520616c726561604482015266191e4818d85cdd60ca1b6064820152608490fd5b9060018201809211611be157565b91908201809211611be157565b916121fe6121f16121a060ff94956000526009602052604060002090565b94600386016121da6121d56121d16121ca85859060018060a01b0316600052602052604060002090565b5460ff1690565b1590565b61210b565b9060018060a01b0316600052602052604060002090565b805460ff19166001179055565b1680612215575090612211908254612175565b9055565b6001810361222d575060016122119101918254612175565b6002036122435760026122119101918254612175565b60405162461bcd60e51b815260206004820152603560248201527f476f7665726e6f72566f74696e6753696d706c653a20696e76616c69642076616044820152746c756520666f7220656e756d20566f74655479706560581b6064820152608490fd5b0390fd5b6040513d6000823e3d90fd5b6040516324776b7d60e21b81526020816004817f00000000000000000000000000000000000000000000000000000000000000006001600160a01b03165afa809160009161230f575b50906105ac57506105ac43612f08565b6020813d821161234b575b81612327602093836104e3565b8101031261234757519065ffffffffffff821682036108c95750386122ff565b5080fd5b3d915061231a565b6040519061236082610477565b601d82527f6d6f64653d626c6f636b6e756d6265722666726f6d3d64656661756c740000006020830152565b604051634bf5d7e960e01b8152600080826004817f00000000000000000000000000000000000000000000000000000000000000006001600160a01b03165afa909182826123e4575b50506105ac57506105ac612353565b909192503d8082843e6123f781846104e3565b820191602081840312612347578051906001600160401b038211612463570182601f820112156123475780519161242d8361053f565b9361243b60405195866104e3565b838552602084840101116108c957509061245b9160208085019101610792565b9038806123d5565b8280fd5b600b546000908061247a575050600a5490565b80600019810111611be157600b7f0175b7a638427703f0dbe7bb9bbf987a2551717b34e79f33b5b1008d1fa01db89252015460201c90565b600019810191908211611be157565b602719810191908211611be157565b90604051604081018181106001600160401b0382111761047257604052602081935463ffffffff81168352811c910152565b600b9081548015612694576000198101818111611be157811115611e25576000928084526125517f0175b7a638427703f0dbe7bb9bbf987a2551717b34e79f33b5b1008d1fa01db883016124d0565b9263ffffffff938185825116111561267e575061256d90612f6f565b9284836005811161262e575b5092939192918116905b8483106125da575050505080156000146125a557505b6001600160e01b031690565b6125d591506125b66125ce916124b2565b600b600052600080516020613b638339815191520190565b5460201c90565b612599565b909192938084169080851860011c8201809211611be157858752838383600080516020613b638339815191520154161160001461261c5750935b929190612583565b94935061262890612167565b92612614565b909361263982612d4d565b8203918211611be157838752600080516020613b638339815191528201548316868416101561266d57508190935b90612579565b93506126798291612167565b612667565b602001516001600160e01b031695945050505050565b505050600a5490565b600b549068010000000000000000821015610472576001820180600b55821015611e2557600b600052805160209182015190911b63ffffffff191663ffffffff9190911617600080516020613b6383398151915290910155565b90919015612703575090565b8151156127135750805190602001fd5b60405162461bcd60e51b8152602060048201529081906122a69060248301906107b5565b1561273e57565b60405162461bcd60e51b815260206004820152601b60248201527f436865636b706f696e743a2064656372656173696e67206b65797300000000006044820152606490fd5b600b5491929180156128565761281c9181856127ab6127a66125b66020966124b2565b6124d0565b926127ba845163ffffffff1690565b6127d163ffffffff91828416928391161115612737565b6127e2611842865163ffffffff1690565b0361282057506127f76125b661280e936124b2565b9063ffffffff82549181199060201b169116179055565b01516001600160e01b031690565b9190565b9050612851915061283e612832610504565b63ffffffff9092168252565b6001600160e01b0387168185015261269d565b61280e565b5061287a90612866612832610504565b6001600160e01b038416602082015261269d565b60009190565b600511156109a457565b61289381612880565b8061289b5750565b6128a481612880565b600181036128f15760405162461bcd60e51b815260206004820152601860248201527f45434453413a20696e76616c6964207369676e617475726500000000000000006044820152606490fd5b6128fa81612880565b600281036129475760405162461bcd60e51b815260206004820152601f60248201527f45434453413a20696e76616c6964207369676e6174757265206c656e677468006044820152606490fd5b80612953600392612880565b1461295a57565b60405162461bcd60e51b815260206004820152602260248201527f45434453413a20696e76616c6964207369676e6174757265202773272076616c604482015261756560f01b6064820152608490fd5b9291907f7fffffffffffffffffffffffffffffff5d576e7357a4501ddfe92f46681b20a08311612a205791608094939160ff602094604051948552168484015260408301526060820152600093849182805260015afa156118d55781516001600160a01b03811615612a1a579190565b50600190565b50505050600090600390565b604290612a37612a52565b906040519161190160f01b8352600283015260228201522090565b307f00000000000000000000000000000000000000000000000000000000000000006001600160a01b03161480612b3d575b15612aad577f000000000000000000000000000000000000000000000000000000000000000090565b60405160208101907f8b73c3c69bb8fe3d512ecc4cf759cc79239f7b179b0ffacaa9a75d522b39400f82527f000000000000000000000000000000000000000000000000000000000000000060408201527f000000000000000000000000000000000000000000000000000000000000000060608201524660808201523060a082015260a08152611d79816104c8565b507f00000000000000000000000000000000000000000000000000000000000000004614612a84565b604051612b7281610492565b60008152906000368137565b60ff8114612bbc5760ff811690601f8211612baa5760405191612ba083610477565b8252602082015290565b604051632cd44ac360e21b8152600490fd5b50604051600081815491612bcf83611c4f565b80835292600190818116908115612c535750600114612bf6575b506105ac925003826104e3565b600080805291507f290decd9548b62a8d60345a988386fc84ba6bc95484008f6362f93160ef3e5635b848310612c3857506105ac935050810160200138612be9565b81935090816020925483858901015201910190918492612c1f565b9050602092506105ac94915060ff191682840152151560051b82010138612be9565b60ff8114612c975760ff811690601f8211612baa5760405191612ba083610477565b50604051600081600191825492612cad84611c4f565b80845293818116908115612c535750600114612cd057506105ac925003826104e3565b600081815291507fb10e2d527612073b26eecdfd717e6a320cf44b4afac2b0732d9fcbe2b7fa0cf65b848310612d1257506105ac935050810160200138612be9565b81935090816020925483858901015201910190918492612cf9565b8115612d37570490565b634e487b7160e01b600052601260045260246000fd5b8015612e875780612e20612e19612e0f612e05612dfb612df1612de7612ddd60016105ac9a6000908b60801c80612e7b575b508060401c80612e6e575b508060201c80612e61575b508060101c80612e54575b508060081c80612e47575b508060041c80612e3a575b508060021c80612e2d575b50821c612e26575b811c1b612dd6818b612d2d565b0160011c90565b612dd6818a612d2d565b612dd68189612d2d565b612dd68188612d2d565b612dd68187612d2d565b612dd68186612d2d565b612dd68185612d2d565b8092612d2d565b90612e8d565b8101612dc9565b6002915091019038612dc1565b6004915091019038612db6565b6008915091019038612dab565b6010915091019038612da0565b6020915091019038612d95565b6040915091019038612d8a565b91505060809038612d7f565b50600090565b9080821015612e9a575090565b905090565b6001600160e01b0390818111612eb3571690565b60405162461bcd60e51b815260206004820152602760248201527f53616665436173743a2076616c756520646f65736e27742066697420696e20326044820152663234206269747360c81b6064820152608490fd5b65ffffffffffff90818111612f1b571690565b60405162461bcd60e51b815260206004820152602660248201527f53616665436173743a2076616c756520646f65736e27742066697420696e203460448201526538206269747360d01b6064820152608490fd5b63ffffffff90818111612f80571690565b60405162461bcd60e51b815260206004820152602660248201527f53616665436173743a2076616c756520646f65736e27742066697420696e203360448201526532206269747360d01b6064820152608490fd5b908160209103126103d1575190565b604051612fef81610492565b6000815290565b60048210156109a45752565b9080519060048210156109a4578254602082015160408301516060909301516cffffffffffffffffffffffffff1990921660ff949094169390931760089390931b64ffffffff00169290921760289190911b68ffffffff0000000000161760489190911b6cffffffff00000000000000000016179055565b9160608163ffffffff9260209497969760408752816040880152838701376000828287010152601f80199101168401019416910152565b156130b857565b60405162461bcd60e51b815260206004820152601d60248201527f476f7665726e6f723a2070726f706f73657220726573747269637465640000006044820152606490fd5b1561310457565b60405162461bcd60e51b815260206004820152602160248201527f476f7665726e6f723a20696e76616c69642070726f706f73616c206c656e67746044820152600d60fb1b6064820152608490fd5b1561315a57565b60405162461bcd60e51b815260206004820152601860248201527f476f7665726e6f723a20656d7074792070726f706f73616c00000000000000006044820152606490fd5b156131a657565b60405162461bcd60e51b815260206004820152602160248201527f476f7665726e6f723a2070726f706f73616c20616c72656164792065786973746044820152607360f81b6064820152608490fd5b815160208301516040808501516001600160401b039384169290911b68010000000000000000600160e01b0316919091176001600160e01b03199091161782556060830151608084015167ffffffffffffffff19169116176001820155610511919061328b9060c0906002019261328461327260a0830151151590565b859060ff801983541691151516179055565b0151151590565b815461ff00191690151560081b61ff0016179055565b906132ab82610a12565b6132b860405191826104e3565b82815280926132c9601f1991610a12565b019060005b8281106132da57505050565b8060606020809385010152016132ce565b959261331e9061332c939b9a9899969592885260209b60018060a01b03168c8901526101208060408a0152880190611c89565b908682036060880152611330565b9784890360808601528251808a52818a019180808360051b8d01019501926000905b83821061338b5750505050506105ac969750906133729184820360a0860152611cc6565b9360c083015260e08201526101008184039101526107b5565b909192939583806133aa8f93600194601f199082030186528a516107b5565b9801920192019093929161334e565b61352d7f7d84a6263ae0d98d3329bd7b46bb4e8d6f98cd35a7adb45c274c8b7fd5ebd5e093946133f16133ec8233613544565b6130b1565b6133fc6106a76122b6565b9561340f613409886124b2565b33611e2a565b5061348b61342583516020850120838888611d1b565b9761343386518851146130fd565b61344086518451146130fd565b61344c86511515613153565b6134826001600160401b0361347b61346e8c6000526003602052604060002090565b546001600160401b031690565b161561319f565b60065490612175565b61349760075482612175565b916135156134a483613681565b6134e76134b086613681565b6134ca6134bb610520565b6001600160401b039094168452565b336020840152600060408401526001600160401b03166060830152565b60006080820152600060a0820152600060c08201526135108b6000526003602052604060002090565b6131f5565b61351f86516132a1565b604051978897338c8a6132eb565b0390a190565b908151811015611e25570160200190565b8151603481106135fb5760131981840101516001600160a01b0319166b1b91f1b211f2119351b859f160a31b016135fb5791600092613582816124c1565b915b81831061359f575050506001600160a01b0391821691161490565b9091936135c56135c06135b28785613533565b516001600160f81b03191690565b613603565b9190156135f05760041b6010600160a01b031660ff9190911617936135e990611dec565b9190613584565b505050505050600190565b505050600190565b60f81c9081602f1080613677575b1561362357600191602f190160ff1690565b816040108061366d575b1561363f576001916036190160ff1690565b8160601080613663575b1561365b576001916056190160ff1690565b600091508190565b5060678210613649565b506047821061362d565b50603a8210613611565b6001600160401b0390818111613695571690565b60405162461bcd60e51b815260206004820152602660248201527f53616665436173743a2076616c756520646f65736e27742066697420696e203660448201526534206269747360d01b6064820152608490fd5b604051630748d63560e31b81526001600160a01b0391821660048201526024810192909252602090829060449082907f0000000000000000000000000000000000000000000000000000000000000000165afa9081156118d55760009161378d575b506001808201808311611be157811c9082905b83831061376b5750505090565b919250908261377a8184612d2d565b908101809111611be157811c919061375e565b6137a5915060203d81116118ce576118bf81836104e3565b3861374b565b60026137c1826000526003602052604060002090565b015460ff81166138cd5760081c60ff166138c7576137ef611f9b61346e836000526003602052604060002090565b8015613882576138006106a76122b6565b8091101561387b57613832611f9b6001613824856000526003602052604060002090565b01546001600160401b031690565b1015612a1a57613841816138d4565b9081613858575b501561385357600490565b600390565b613875915060005260096020526040600020600181015490541090565b38613848565b5050600090565b60405162461bcd60e51b815260206004820152601d60248201527f476f7665726e6f723a20756e6b6e6f776e2070726f706f73616c2069640000006044820152606490fd5b50600290565b5050600790565b6000526009602052604060002060036020526001600160401b03604060002054169060405191632394e7a360e21b835280600484015260208360248160018060a01b037f0000000000000000000000000000000000000000000000000000000000000000165afa9283156118d557600093613982575b5061395490612502565b91828102928184041490151715611be15761397b8160026001606494015491015490612175565b9104111590565b61395491935061399f9060203d81116118ce576118bf81836104e3565b929061394a565b909291604051936139b6856104ad565b602785526020917f476f7665726e6f723a2063616c6c20726576657274656420776974686f75742083870152666d65737361676560c81b6040870152600093845b8151811015613a5757613a5290613a4c8988806001600160a01b03613a1c8689611e11565b5116613a28868b611e11565b5190613a34878b611e11565b51918c83519301915af1613a466120db565b906126f7565b50611dec565b6139f7565b5050505050509050565b90613a6d939291611d1b565b613a76816137ab565b60088110156109a45760028114159081613b4c575b81613b37575b5015613af257613ac06002613ab0836000526003602052604060002090565b01805461ff001916610100179055565b6040518181527f789cf55be980739dad1d0699b93b58e806b51c9d96619bfa8fe0a28abaa7b30c90806020810161352d565b60405162461bcd60e51b815260206004820152601d60248201527f476f7665726e6f723a2070726f706f73616c206e6f74206163746976650000006044820152606490fd5b60079150613b4481610edb565b141538613a91565b9050613b5781610edb565b600681141590613a8b56fe0175b7a638427703f0dbe7bb9bbf987a2551717b34e79f33b5b1008d1fa01db9a264697066735822122092785f79d136aa8d5f9406fa7b8ebbc23ee8e043124bbab6d3661c00b704790664736f6c634300081400330553476bf02ef2726e8ce5ced78d63e26e602e4a2257b1f559418e24b4633997","opcodes":"PUSH2 0x1C0 PUSH1 0x40 MSTORE CALLVALUE PUSH3 0xBA JUMPI PUSH3 0x20 PUSH3 0x19 PUSH3 0x15D JUMP JUMPDEST SWAP1 PUSH3 0x1CB JUMP JUMPDEST PUSH1 0x40 MLOAD PUSH2 0x3BB8 SWAP1 DUP2 PUSH3 0xDB6 DUP3 CODECOPY PUSH1 0x80 MLOAD DUP2 PUSH2 0x2A8B ADD MSTORE PUSH1 0xA0 MLOAD DUP2 PUSH2 0x2B40 ADD MSTORE PUSH1 0xC0 MLOAD DUP2 PUSH2 0x2A55 ADD MSTORE PUSH1 0xE0 MLOAD DUP2 PUSH2 0x2ADA ADD MSTORE PUSH2 0x100 MLOAD DUP2 PUSH2 0x2B00 ADD MSTORE PUSH2 0x120 MLOAD DUP2 PUSH2 0x137D ADD MSTORE PUSH2 0x140 MLOAD DUP2 PUSH2 0x13A9 ADD MSTORE PUSH2 0x160 MLOAD DUP2 DUP2 DUP2 PUSH2 0x1B7E ADD MSTORE DUP2 DUP2 PUSH2 0x1C20 ADD MSTORE DUP2 DUP2 PUSH2 0x22CB ADD MSTORE DUP2 DUP2 PUSH2 0x23A2 ADD MSTORE DUP2 DUP2 PUSH2 0x371A ADD MSTORE PUSH2 0x3919 ADD MSTORE PUSH2 0x180 MLOAD DUP2 PUSH2 0x1483 ADD MSTORE PUSH2 0x1A0 MLOAD DUP2 DUP2 DUP2 PUSH2 0x1725 ADD MSTORE PUSH2 0x1B1F ADD MSTORE RETURN JUMPDEST PUSH1 0x0 DUP1 REVERT JUMPDEST PUSH4 0x4E487B71 PUSH1 0xE0 SHL PUSH1 0x0 MSTORE PUSH1 0x41 PUSH1 0x4 MSTORE PUSH1 0x24 PUSH1 0x0 REVERT JUMPDEST PUSH1 0x40 DUP2 ADD SWAP1 DUP2 LT PUSH1 0x1 PUSH1 0x1 PUSH1 0x40 SHL SUB DUP3 GT OR PUSH3 0xF1 JUMPI PUSH1 0x40 MSTORE JUMP JUMPDEST PUSH3 0xBF JUMP JUMPDEST PUSH1 0xC0 DUP2 ADD SWAP1 DUP2 LT PUSH1 0x1 PUSH1 0x1 PUSH1 0x40 SHL SUB DUP3 GT OR PUSH3 0xF1 JUMPI PUSH1 0x40 MSTORE JUMP JUMPDEST PUSH1 0x1F SWAP1 SWAP2 ADD PUSH1 0x1F NOT AND DUP2 ADD SWAP1 PUSH1 0x1 PUSH1 0x1 PUSH1 0x40 SHL SUB DUP3 GT SWAP1 DUP3 LT OR PUSH3 0xF1 JUMPI PUSH1 0x40 MSTORE JUMP JUMPDEST PUSH1 0x40 MLOAD SWAP1 PUSH3 0x146 DUP3 PUSH3 0xD5 JUMP JUMPDEST JUMP JUMPDEST MLOAD SWAP1 PUSH1 0x1 PUSH1 0x1 PUSH1 0xA0 SHL SUB DUP3 AND DUP3 SUB PUSH3 0xBA JUMPI JUMP JUMPDEST PUSH3 0x498E SWAP1 PUSH1 0x40 DUP3 CODESIZE SUB SWAP3 DUP4 DUP3 MLOAD SWAP5 DUP6 SWAP3 PUSH3 0x17A DUP3 DUP6 PUSH3 0x113 JUMP JUMPDEST DUP4 CODECOPY DUP2 ADD SUB SLT PUSH3 0xBA JUMPI PUSH3 0x19E PUSH1 0x20 PUSH3 0x196 DUP5 PUSH3 0x148 JUMP JUMPDEST SWAP4 ADD PUSH3 0x148 JUMP JUMPDEST SWAP1 JUMP JUMPDEST PUSH1 0x40 MLOAD SWAP1 PUSH3 0x1B0 DUP3 PUSH3 0xD5 JUMP JUMPDEST PUSH1 0xC DUP3 MSTORE JUMP JUMPDEST PUSH1 0x40 MLOAD SWAP1 PUSH3 0x1C5 DUP3 PUSH3 0xD5 JUMP JUMPDEST PUSH1 0x1 DUP3 MSTORE JUMP JUMPDEST PUSH1 0x1 PUSH1 0x1 PUSH1 0xA0 SHL SUB SWAP2 DUP3 AND SWAP2 SWAP1 PUSH3 0x2A7 PUSH3 0x1E6 PUSH3 0x1A1 JUMP JUMPDEST PUSH1 0x20 DUP2 ADD PUSH12 0x496E6E6F46756E642044414F PUSH1 0xA0 SHL DUP2 MSTORE PUSH3 0x206 PUSH3 0x1B6 JUMP JUMPDEST SWAP1 PUSH1 0x20 DUP3 ADD SWAP1 PUSH1 0x31 PUSH1 0xF8 SHL DUP3 MSTORE PUSH3 0x21E DUP5 PUSH3 0x9DA JUMP JUMPDEST PUSH2 0x120 MSTORE PUSH3 0x22D DUP4 PUSH3 0xAE8 JUMP JUMPDEST PUSH2 0x140 MSTORE DUP4 MLOAD SWAP1 KECCAK256 SWAP2 DUP3 PUSH1 0xE0 MSTORE MLOAD SWAP1 KECCAK256 DUP1 PUSH2 0x100 MSTORE CHAINID PUSH1 0xA0 MSTORE PUSH1 0x40 MLOAD SWAP1 PUSH1 0x20 DUP3 ADD SWAP3 PUSH32 0x8B73C3C69BB8FE3D512ECC4CF759CC79239F7B179B0FFACAA9A75D522B39400F DUP5 MSTORE PUSH1 0x40 DUP4 ADD MSTORE PUSH1 0x60 DUP3 ADD MSTORE CHAINID PUSH1 0x80 DUP3 ADD MSTORE ADDRESS PUSH1 0xA0 DUP3 ADD MSTORE PUSH1 0xA0 DUP2 MSTORE PUSH3 0x297 DUP2 PUSH3 0xF7 JUMP JUMPDEST MLOAD SWAP1 KECCAK256 PUSH1 0x80 MSTORE ADDRESS PUSH1 0xC0 MSTORE PUSH3 0x429 JUMP JUMPDEST PUSH3 0x2B1 PUSH3 0x51C JUMP JUMPDEST PUSH3 0x2BB PUSH3 0x556 JUMP JUMPDEST PUSH3 0x2C5 PUSH3 0x590 JUMP JUMPDEST DUP3 PUSH2 0x160 MSTORE PUSH3 0x2D4 PUSH3 0x62E JUMP JUMPDEST AND PUSH2 0x180 MSTORE PUSH2 0x1A0 MSTORE JUMP JUMPDEST SWAP1 PUSH1 0x1 DUP3 DUP2 SHR SWAP3 AND DUP1 ISZERO PUSH3 0x311 JUMPI JUMPDEST PUSH1 0x20 DUP4 LT EQ PUSH3 0x2FB JUMPI JUMP JUMPDEST PUSH4 0x4E487B71 PUSH1 0xE0 SHL PUSH1 0x0 MSTORE PUSH1 0x22 PUSH1 0x4 MSTORE PUSH1 0x24 PUSH1 0x0 REVERT JUMPDEST SWAP2 PUSH1 0x7F AND SWAP2 PUSH3 0x2EF JUMP JUMPDEST PUSH1 0x1F DUP2 GT PUSH3 0x329 JUMPI POP POP JUMP JUMPDEST PUSH1 0x0 SWAP1 PUSH1 0x2 DUP3 MSTORE PUSH1 0x20 DUP3 KECCAK256 SWAP1 PUSH1 0x20 PUSH1 0x1F DUP6 ADD PUSH1 0x5 SHR DUP4 ADD SWAP5 LT PUSH3 0x36A JUMPI JUMPDEST PUSH1 0x1F ADD PUSH1 0x5 SHR ADD SWAP2 JUMPDEST DUP3 DUP2 LT PUSH3 0x35E JUMPI POP POP POP JUMP JUMPDEST DUP2 DUP2 SSTORE PUSH1 0x1 ADD PUSH3 0x351 JUMP JUMPDEST SWAP1 SWAP3 POP DUP3 SWAP1 PUSH3 0x348 JUMP JUMPDEST PUSH1 0x1F DUP2 GT PUSH3 0x382 JUMPI POP POP JUMP JUMPDEST PUSH1 0x0 SWAP1 DUP2 DUP1 MSTORE PUSH1 0x20 DUP3 KECCAK256 SWAP1 PUSH1 0x20 PUSH1 0x1F DUP6 ADD PUSH1 0x5 SHR DUP4 ADD SWAP5 LT PUSH3 0x3C2 JUMPI JUMPDEST PUSH1 0x1F ADD PUSH1 0x5 SHR ADD SWAP2 JUMPDEST DUP3 DUP2 LT PUSH3 0x3B6 JUMPI POP POP POP JUMP JUMPDEST DUP2 DUP2 SSTORE PUSH1 0x1 ADD PUSH3 0x3A9 JUMP JUMPDEST SWAP1 SWAP3 POP DUP3 SWAP1 PUSH3 0x3A0 JUMP JUMPDEST SWAP1 PUSH1 0x1F DUP3 GT PUSH3 0x3DB JUMPI POP POP JUMP JUMPDEST PUSH1 0x1 SWAP2 PUSH1 0x0 SWAP1 DUP4 DUP3 MSTORE PUSH1 0x20 DUP3 KECCAK256 SWAP1 PUSH1 0x20 PUSH1 0x1F DUP6 ADD PUSH1 0x5 SHR DUP4 ADD SWAP5 LT PUSH3 0x41E JUMPI JUMPDEST PUSH1 0x1F ADD PUSH1 0x5 SHR ADD SWAP2 JUMPDEST DUP3 DUP2 LT PUSH3 0x413 JUMPI POP POP POP POP JUMP JUMPDEST DUP2 DUP2 SSTORE DUP4 ADD PUSH3 0x405 JUMP JUMPDEST SWAP1 SWAP3 POP DUP3 SWAP1 PUSH3 0x3FC JUMP JUMPDEST DUP1 MLOAD SWAP1 SWAP2 SWAP1 PUSH1 0x1 PUSH1 0x1 PUSH1 0x40 SHL SUB DUP2 GT PUSH3 0xF1 JUMPI PUSH3 0x455 DUP2 PUSH3 0x44F PUSH1 0x2 SLOAD PUSH3 0x2DF JUMP JUMPDEST PUSH3 0x31C JUMP JUMPDEST PUSH1 0x20 DUP1 PUSH1 0x1F DUP4 GT PUSH1 0x1 EQ PUSH3 0x494 JUMPI POP DUP2 SWAP3 SWAP4 PUSH1 0x0 SWAP3 PUSH3 0x488 JUMPI JUMPDEST POP POP DUP2 PUSH1 0x1 SHL SWAP2 PUSH1 0x0 NOT SWAP1 PUSH1 0x3 SHL SHR NOT AND OR PUSH1 0x2 SSTORE JUMP JUMPDEST ADD MLOAD SWAP1 POP CODESIZE DUP1 PUSH3 0x471 JUMP JUMPDEST PUSH1 0x2 PUSH1 0x0 MSTORE PUSH1 0x1F NOT DUP4 AND SWAP5 SWAP1 SWAP2 SWAP1 PUSH32 0x405787FA12A823E0F2B7631CC41B3BA8828B3321CA811111FA75CD3AA3BB5ACE SWAP3 PUSH1 0x0 SWAP1 JUMPDEST DUP8 DUP3 LT PUSH3 0x503 JUMPI POP POP DUP4 PUSH1 0x1 SWAP6 SWAP7 LT PUSH3 0x4E9 JUMPI JUMPDEST POP POP POP DUP2 SHL ADD PUSH1 0x2 SSTORE JUMP JUMPDEST ADD MLOAD PUSH1 0x0 NOT PUSH1 0xF8 DUP5 PUSH1 0x3 SHL AND SHR NOT AND SWAP1 SSTORE CODESIZE DUP1 DUP1 PUSH3 0x4DE JUMP JUMPDEST DUP1 PUSH1 0x1 DUP6 SWAP7 DUP3 SWAP5 SWAP7 DUP7 ADD MLOAD DUP2 SSTORE ADD SWAP6 ADD SWAP4 ADD SWAP1 PUSH3 0x4C8 JUMP JUMPDEST PUSH32 0xC565B045403DC03C2EEA82B81A0465EDAD9E2E7FC4D97E11421C209DA93D7A93 PUSH1 0x40 PUSH1 0x6 SLOAD DUP2 MLOAD SWAP1 DUP2 MSTORE PUSH1 0x1 PUSH1 0x20 DUP3 ADD MSTORE LOG1 PUSH1 0x1 PUSH1 0x6 SSTORE JUMP JUMPDEST PUSH32 0x7E3F7F0708A84DE9203036ABAA450DCCC85AD5FF52F78C170F3EDB55CF5E8828 PUSH1 0x40 PUSH1 0x7 SLOAD DUP2 MLOAD SWAP1 DUP2 MSTORE PUSH1 0x14 PUSH1 0x20 DUP3 ADD MSTORE LOG1 PUSH1 0x14 PUSH1 0x7 SSTORE JUMP JUMPDEST PUSH32 0xCCB45DA8D5717E6C4544694297C4BA5CF151D455C9BB0ED4FC7A38411BC05461 PUSH1 0x40 PUSH1 0x8 SLOAD DUP2 MLOAD SWAP1 DUP2 MSTORE PUSH1 0x0 PUSH1 0x20 DUP3 ADD MSTORE LOG1 PUSH1 0x0 PUSH1 0x8 SSTORE JUMP JUMPDEST PUSH1 0xB SLOAD PUSH9 0x10000000000000000 DUP2 LT ISZERO PUSH3 0xF1 JUMPI PUSH1 0x1 DUP2 ADD DUP1 PUSH1 0xB SSTORE DUP2 LT ISZERO PUSH3 0x618 JUMPI PUSH1 0xB PUSH1 0x0 MSTORE PUSH1 0x20 PUSH1 0x0 KECCAK256 ADD SWAP1 PUSH4 0xFFFFFFFF DUP2 MLOAD AND SWAP1 PUSH1 0x20 PUSH4 0xFFFFFFFF NOT SWAP2 ADD MLOAD PUSH1 0x20 SHL AND OR SWAP1 SSTORE JUMP JUMPDEST PUSH4 0x4E487B71 PUSH1 0xE0 SHL PUSH1 0x0 MSTORE PUSH1 0x32 PUSH1 0x4 MSTORE PUSH1 0x24 PUSH1 0x0 REVERT JUMPDEST PUSH1 0xB SLOAD DUP1 ISZERO SWAP1 PUSH1 0x0 SWAP1 DUP3 ISZERO PUSH3 0x6FF JUMPI POP POP PUSH3 0x6B2 PUSH1 0x0 DUP1 MLOAD PUSH1 0x20 PUSH3 0x496E DUP4 CODECOPY DUP2 MLOAD SWAP2 MSTORE SWAP2 PUSH1 0xA SLOAD SWAP1 JUMPDEST DUP2 ISZERO ISZERO SWAP1 DUP2 PUSH3 0x6F6 JUMPI JUMPDEST POP PUSH3 0x6B7 JUMPI JUMPDEST PUSH3 0x699 PUSH3 0x693 PUSH3 0x68D PUSH3 0x682 PUSH3 0x769 JUMP JUMPDEST PUSH6 0xFFFFFFFFFFFF AND SWAP1 JUMP JUMPDEST PUSH3 0xD4F JUMP JUMPDEST PUSH3 0x8A4 JUMP JUMPDEST POP POP PUSH1 0x40 DUP1 MLOAD SWAP2 DUP3 MSTORE PUSH1 0x4 PUSH1 0x20 DUP4 ADD MSTORE SWAP1 SWAP2 DUP3 SWAP2 DUP3 ADD SWAP1 JUMP JUMPDEST SUB SWAP1 LOG1 JUMP JUMPDEST PUSH3 0x6F0 PUSH3 0x6C6 DUP3 PUSH3 0xC7D JUMP JUMPDEST PUSH3 0x6EA PUSH3 0x6D4 PUSH3 0x137 JUMP JUMPDEST PUSH1 0x0 DUP2 MSTORE PUSH1 0x1 PUSH1 0x1 PUSH1 0xE0 SHL SUB SWAP1 SWAP3 AND PUSH1 0x20 DUP4 ADD MSTORE JUMP JUMPDEST PUSH3 0x5CA JUMP JUMPDEST PUSH3 0x66C JUMP JUMPDEST SWAP1 POP CODESIZE PUSH3 0x665 JUMP JUMPDEST PUSH1 0x0 NOT SWAP2 DUP2 DUP4 DUP2 ADD GT PUSH3 0x755 JUMPI PUSH1 0xB SWAP1 MSTORE ADD PUSH32 0x175B7A638427703F0DBE7BB9BBF987A2551717B34E79F33B5B1008D1FA01DB9 ADD SLOAD PUSH1 0x0 DUP1 MLOAD PUSH1 0x20 PUSH3 0x496E DUP4 CODECOPY DUP2 MLOAD SWAP2 MSTORE SWAP2 PUSH3 0x6B2 SWAP2 PUSH1 0x20 SHR SWAP1 PUSH3 0x65A JUMP JUMPDEST PUSH4 0x4E487B71 PUSH1 0xE0 SHL DUP2 MSTORE PUSH1 0x11 PUSH1 0x4 MSTORE PUSH1 0x24 SWAP1 REVERT JUMPDEST PUSH2 0x160 MLOAD PUSH1 0x40 MLOAD PUSH4 0x24776B7D PUSH1 0xE2 SHL DUP2 MSTORE SWAP1 PUSH1 0x20 SWAP1 DUP3 SWAP1 PUSH1 0x4 SWAP1 DUP3 SWAP1 PUSH1 0x1 PUSH1 0x1 PUSH1 0xA0 SHL SUB AND GAS STATICCALL DUP1 SWAP2 PUSH1 0x0 SWAP2 PUSH3 0x7AE JUMPI JUMPDEST POP SWAP1 PUSH3 0x19E JUMPI POP PUSH3 0x19E NUMBER PUSH3 0xCE7 JUMP JUMPDEST PUSH1 0x20 DUP2 RETURNDATASIZE DUP3 GT PUSH3 0x7F3 JUMPI JUMPDEST DUP2 PUSH3 0x7C9 PUSH1 0x20 SWAP4 DUP4 PUSH3 0x113 JUMP JUMPDEST DUP2 ADD SUB SLT PUSH3 0x7EF JUMPI MLOAD SWAP1 PUSH6 0xFFFFFFFFFFFF DUP3 AND DUP3 SUB PUSH3 0x7EC JUMPI POP CODESIZE PUSH3 0x79B JUMP JUMPDEST DUP1 REVERT JUMPDEST POP DUP1 REVERT JUMPDEST RETURNDATASIZE SWAP2 POP PUSH3 0x7BA JUMP JUMPDEST PUSH1 0x0 NOT DUP2 ADD SWAP2 SWAP1 DUP3 GT PUSH3 0x80C JUMPI JUMP JUMPDEST PUSH4 0x4E487B71 PUSH1 0xE0 SHL PUSH1 0x0 MSTORE PUSH1 0x11 PUSH1 0x4 MSTORE PUSH1 0x24 PUSH1 0x0 REVERT JUMPDEST PUSH1 0x40 DUP1 MLOAD SWAP2 SWAP3 SWAP2 SWAP1 DUP2 ADD PUSH1 0x1 PUSH1 0x1 PUSH1 0x40 SHL SUB DUP2 GT DUP3 DUP3 LT OR PUSH3 0xF1 JUMPI PUSH1 0x40 MSTORE PUSH1 0x20 DUP2 SWAP4 SLOAD PUSH4 0xFFFFFFFF DUP2 AND DUP4 MSTORE DUP2 SHR SWAP2 ADD MSTORE JUMP JUMPDEST ISZERO PUSH3 0x85F JUMPI JUMP JUMPDEST PUSH1 0x40 MLOAD PUSH3 0x461BCD PUSH1 0xE5 SHL DUP2 MSTORE PUSH1 0x20 PUSH1 0x4 DUP3 ADD MSTORE PUSH1 0x1B PUSH1 0x24 DUP3 ADD MSTORE PUSH32 0x436865636B706F696E743A2064656372656173696E67206B6579730000000000 PUSH1 0x44 DUP3 ADD MSTORE PUSH1 0x64 SWAP1 REVERT JUMPDEST PUSH1 0xB SLOAD DUP1 ISZERO PUSH3 0x9B1 JUMPI PUSH3 0x979 SWAP2 DUP2 PUSH3 0x8F9 PUSH3 0x8F3 PUSH3 0x8C9 PUSH1 0x20 SWAP6 PUSH3 0x7FC JUMP JUMPDEST PUSH1 0xB PUSH1 0x0 MSTORE PUSH32 0x175B7A638427703F0DBE7BB9BBF987A2551717B34E79F33B5B1008D1FA01DB9 ADD SWAP1 JUMP JUMPDEST PUSH3 0x822 JUMP JUMPDEST SWAP2 PUSH3 0x909 DUP4 MLOAD PUSH4 0xFFFFFFFF AND SWAP1 JUMP JUMPDEST PUSH3 0x922 PUSH4 0xFFFFFFFF SWAP2 DUP3 DUP5 AND SWAP3 DUP4 SWAP2 AND GT ISZERO PUSH3 0x857 JUMP JUMPDEST PUSH3 0x93E PUSH3 0x935 DUP6 MLOAD PUSH4 0xFFFFFFFF AND SWAP1 JUMP JUMPDEST PUSH4 0xFFFFFFFF AND SWAP1 JUMP JUMPDEST SUB PUSH3 0x97F JUMPI POP PUSH3 0x958 PUSH3 0x8C9 PUSH3 0x96B SWAP3 PUSH3 0x7FC JUMP JUMPDEST PUSH5 0x400000000 PUSH4 0xFFFFFFFF DUP3 SLOAD AND OR SWAP1 SSTORE JUMP JUMPDEST ADD MLOAD PUSH1 0x1 PUSH1 0x1 PUSH1 0xE0 SHL SUB AND SWAP1 JUMP JUMPDEST SWAP1 PUSH1 0x4 SWAP1 JUMP JUMPDEST PUSH3 0x9AB SWAP2 POP PUSH3 0x99F PUSH3 0x993 PUSH3 0x137 JUMP JUMPDEST PUSH4 0xFFFFFFFF SWAP1 SWAP3 AND DUP3 MSTORE JUMP JUMPDEST PUSH1 0x4 DUP2 DUP6 ADD MSTORE PUSH3 0x5CA JUMP JUMPDEST PUSH3 0x96B JUMP JUMPDEST POP PUSH3 0x9D2 SWAP1 PUSH3 0x9C5 PUSH3 0x993 PUSH3 0x137 JUMP JUMPDEST PUSH1 0x4 PUSH1 0x20 DUP3 ADD MSTORE PUSH3 0x5CA JUMP JUMPDEST PUSH1 0x0 SWAP1 PUSH1 0x4 SWAP1 JUMP JUMPDEST SWAP1 DUP2 MLOAD PUSH1 0x20 SWAP1 DUP2 DUP2 LT PUSH1 0x0 EQ PUSH3 0x9F9 JUMPI POP POP SWAP1 PUSH3 0x19E SWAP1 PUSH3 0xC00 JUMP JUMPDEST PUSH1 0x1 PUSH1 0x1 PUSH1 0x40 SHL SUB DUP2 GT PUSH3 0xF1 JUMPI PUSH1 0x0 SWAP2 PUSH3 0xA22 DUP3 PUSH3 0xA1C DUP6 SLOAD PUSH3 0x2DF JUMP JUMPDEST PUSH3 0x375 JUMP JUMPDEST DUP1 PUSH1 0x1F DUP4 GT PUSH1 0x1 EQ PUSH3 0xA61 JUMPI POP DUP3 SWAP4 SWAP5 DUP3 SWAP4 SWAP3 PUSH3 0xA55 JUMPI JUMPDEST POP POP DUP2 PUSH1 0x1 SHL SWAP2 PUSH1 0x0 NOT SWAP1 PUSH1 0x3 SHL SHR NOT AND OR SWAP1 SSTORE PUSH1 0xFF SWAP1 JUMP JUMPDEST ADD MLOAD SWAP1 POP CODESIZE DUP1 PUSH3 0xA3C JUMP JUMPDEST PUSH1 0x0 DUP1 MSTORE PUSH1 0x1F NOT DUP4 AND SWAP6 PUSH32 0x290DECD9548B62A8D60345A988386FC84BA6BC95484008F6362F93160EF3E563 SWAP3 SWAP2 DUP6 SWAP1 JUMPDEST DUP9 DUP3 LT PUSH3 0xACF JUMPI POP POP DUP4 PUSH1 0x1 SWAP6 SWAP7 SWAP8 LT PUSH3 0xAB5 JUMPI JUMPDEST POP POP POP DUP2 SHL ADD SWAP1 SSTORE PUSH1 0xFF SWAP1 JUMP JUMPDEST ADD MLOAD PUSH1 0x0 NOT PUSH1 0xF8 DUP5 PUSH1 0x3 SHL AND SHR NOT AND SWAP1 SSTORE CODESIZE DUP1 DUP1 PUSH3 0xAA8 JUMP JUMPDEST DUP1 PUSH1 0x1 DUP6 SWAP7 DUP3 SWAP5 SWAP7 DUP7 ADD MLOAD DUP2 SSTORE ADD SWAP6 ADD SWAP4 ADD SWAP1 PUSH3 0xA91 JUMP JUMPDEST SWAP1 DUP2 MLOAD PUSH1 0x20 SWAP1 DUP2 DUP2 LT PUSH1 0x0 EQ PUSH3 0xB07 JUMPI POP POP SWAP1 PUSH3 0x19E SWAP1 PUSH3 0xC00 JUMP JUMPDEST PUSH1 0x1 PUSH1 0x1 PUSH1 0x40 SHL SUB DUP2 GT PUSH3 0xF1 JUMPI PUSH1 0x1 SWAP2 PUSH3 0xB30 DUP3 PUSH3 0xB2A DUP6 SLOAD PUSH3 0x2DF JUMP JUMPDEST PUSH3 0x3CD JUMP JUMPDEST DUP1 PUSH1 0x1F DUP4 GT PUSH1 0x1 EQ PUSH3 0xB6F JUMPI POP DUP2 SWAP3 SWAP4 SWAP5 PUSH1 0x0 SWAP3 PUSH3 0xB63 JUMPI JUMPDEST POP POP PUSH1 0x0 NOT PUSH1 0x3 DUP4 SWAP1 SHL SHR NOT AND SWAP1 DUP3 SHL OR SWAP1 SSTORE PUSH1 0xFF SWAP1 JUMP JUMPDEST ADD MLOAD SWAP1 POP CODESIZE DUP1 PUSH3 0xB4B JUMP JUMPDEST PUSH1 0x1 PUSH1 0x0 MSTORE PUSH1 0x1F NOT DUP4 AND SWAP6 SWAP1 SWAP2 SWAP1 PUSH32 0xB10E2D527612073B26EECDFD717E6A320CF44B4AFAC2B0732D9FCBE2B7FA0CF6 SWAP3 PUSH1 0x0 SWAP1 JUMPDEST DUP9 DUP3 LT PUSH3 0xBC4 JUMPI POP POP DUP4 DUP6 SWAP7 SWAP8 LT PUSH3 0xAB5 JUMPI POP POP POP DUP2 SHL ADD SWAP1 SSTORE PUSH1 0xFF SWAP1 JUMP JUMPDEST DUP1 DUP8 DUP6 SWAP7 DUP3 SWAP5 SWAP7 DUP7 ADD MLOAD DUP2 SSTORE ADD SWAP6 ADD SWAP4 ADD SWAP1 PUSH3 0xBA3 JUMP JUMPDEST PUSH1 0x20 DUP2 MLOAD SWAP2 ADD MLOAD SWAP1 PUSH1 0x20 DUP2 LT PUSH3 0xBF1 JUMPI POP SWAP1 JUMP JUMPDEST PUSH1 0x0 NOT SWAP1 PUSH1 0x20 SUB PUSH1 0x3 SHL SHL AND SWAP1 JUMP JUMPDEST PUSH1 0x1F DUP2 MLOAD GT PUSH3 0xC1B JUMPI PUSH3 0xC15 DUP2 PUSH3 0xBDC JUMP JUMPDEST SWAP1 MLOAD OR SWAP1 JUMP JUMPDEST PUSH1 0x40 MLOAD SWAP1 PUSH4 0x305A27A9 PUSH1 0xE0 SHL DUP3 MSTORE DUP2 PUSH1 0x20 DUP1 PUSH1 0x4 DUP4 ADD MSTORE DUP3 MLOAD SWAP1 DUP2 PUSH1 0x24 DUP5 ADD MSTORE PUSH1 0x0 SWAP4 JUMPDEST DUP3 DUP6 LT PUSH3 0xC63 JUMPI POP POP PUSH1 0x44 SWAP3 POP PUSH1 0x0 DUP4 DUP3 DUP5 ADD ADD MSTORE PUSH1 0x1F DUP1 NOT SWAP2 ADD AND DUP2 ADD SUB ADD SWAP1 REVERT JUMPDEST DUP5 DUP2 ADD DUP3 ADD MLOAD DUP7 DUP7 ADD PUSH1 0x44 ADD MSTORE SWAP4 DUP2 ADD SWAP4 DUP6 SWAP4 POP PUSH3 0xC3F JUMP JUMPDEST PUSH1 0x1 PUSH1 0x1 PUSH1 0xE0 SHL SUB SWAP1 DUP2 DUP2 GT PUSH3 0xC92 JUMPI AND SWAP1 JUMP JUMPDEST PUSH1 0x40 MLOAD PUSH3 0x461BCD PUSH1 0xE5 SHL DUP2 MSTORE PUSH1 0x20 PUSH1 0x4 DUP3 ADD MSTORE PUSH1 0x27 PUSH1 0x24 DUP3 ADD MSTORE PUSH32 0x53616665436173743A2076616C756520646F65736E27742066697420696E2032 PUSH1 0x44 DUP3 ADD MSTORE PUSH7 0x32342062697473 PUSH1 0xC8 SHL PUSH1 0x64 DUP3 ADD MSTORE PUSH1 0x84 SWAP1 REVERT JUMPDEST PUSH6 0xFFFFFFFFFFFF SWAP1 DUP2 DUP2 GT PUSH3 0xCFB JUMPI AND SWAP1 JUMP JUMPDEST PUSH1 0x40 MLOAD PUSH3 0x461BCD PUSH1 0xE5 SHL DUP2 MSTORE PUSH1 0x20 PUSH1 0x4 DUP3 ADD MSTORE PUSH1 0x26 PUSH1 0x24 DUP3 ADD MSTORE PUSH32 0x53616665436173743A2076616C756520646F65736E27742066697420696E2034 PUSH1 0x44 DUP3 ADD MSTORE PUSH6 0x382062697473 PUSH1 0xD0 SHL PUSH1 0x64 DUP3 ADD MSTORE PUSH1 0x84 SWAP1 REVERT JUMPDEST PUSH4 0xFFFFFFFF SWAP1 DUP2 DUP2 GT PUSH3 0xD61 JUMPI AND SWAP1 JUMP JUMPDEST PUSH1 0x40 MLOAD PUSH3 0x461BCD PUSH1 0xE5 SHL DUP2 MSTORE PUSH1 0x20 PUSH1 0x4 DUP3 ADD MSTORE PUSH1 0x26 PUSH1 0x24 DUP3 ADD MSTORE PUSH32 0x53616665436173743A2076616C756520646F65736E27742066697420696E2033 PUSH1 0x44 DUP3 ADD MSTORE PUSH6 0x322062697473 PUSH1 0xD0 SHL PUSH1 0x64 DUP3 ADD MSTORE PUSH1 0x84 SWAP1 REVERT INVALID PUSH1 0x80 PUSH1 0x40 MSTORE PUSH1 0x4 CALLDATASIZE LT ISZERO PUSH2 0x1B JUMPI JUMPDEST CALLDATASIZE ISZERO PUSH2 0x19 JUMPI PUSH1 0x0 DUP1 REVERT JUMPDEST STOP JUMPDEST PUSH1 0x0 CALLDATALOAD PUSH1 0xE0 SHR DUP1 PUSH4 0x1FFC9A7 EQ PUSH2 0x326 JUMPI DUP1 PUSH4 0x2A251A3 EQ PUSH2 0x321 JUMPI DUP1 PUSH4 0x3420181 EQ PUSH2 0x31C JUMPI DUP1 PUSH4 0x6F3F9E6 EQ PUSH2 0x317 JUMPI DUP1 PUSH4 0x6FDDE03 EQ PUSH2 0x312 JUMPI DUP1 PUSH4 0x143489D0 EQ PUSH2 0x30D JUMPI DUP1 PUSH4 0x150B7A02 EQ PUSH2 0x308 JUMPI DUP1 PUSH4 0x16E9EAEC EQ PUSH2 0x303 JUMPI DUP1 PUSH4 0x2656227D EQ PUSH2 0x2FE JUMPI DUP1 PUSH4 0x2D63F693 EQ PUSH2 0x2F9 JUMPI DUP1 PUSH4 0x2FE3E261 EQ PUSH2 0x2F4 JUMPI DUP1 PUSH4 0x3932ABB1 EQ PUSH2 0x2EF JUMPI DUP1 PUSH4 0x3B4D01A7 EQ PUSH2 0x2EA JUMPI DUP1 PUSH4 0x3BCCF4FD EQ PUSH2 0x2E5 JUMPI DUP1 PUSH4 0x3E4F49E6 EQ PUSH2 0x2E0 JUMPI DUP1 PUSH4 0x43859632 EQ PUSH2 0x2DB JUMPI DUP1 PUSH4 0x452115D6 EQ PUSH2 0x2D6 JUMPI DUP1 PUSH4 0x4BF5D7E9 EQ PUSH2 0x2D1 JUMPI DUP1 PUSH4 0x544FFC9C EQ PUSH2 0x2CC JUMPI DUP1 PUSH4 0x54FD4D50 EQ PUSH2 0x2C7 JUMPI DUP1 PUSH4 0x56781388 EQ PUSH2 0x2C2 JUMPI DUP1 PUSH4 0x56A474E4 EQ PUSH2 0x268 JUMPI DUP1 PUSH4 0x5F398A14 EQ PUSH2 0x2BD JUMPI DUP1 PUSH4 0x60C4247F EQ PUSH2 0x2B8 JUMPI DUP1 PUSH4 0x70B0F660 EQ PUSH2 0x2B3 JUMPI DUP1 PUSH4 0x7B3C71D3 EQ PUSH2 0x2AE JUMPI DUP1 PUSH4 0x7D5E81E2 EQ PUSH2 0x2A9 JUMPI DUP1 PUSH4 0x84B0196E EQ PUSH2 0x2A4 JUMPI DUP1 PUSH4 0x91DDADF4 EQ PUSH2 0x29F JUMPI DUP1 PUSH4 0x97C3D334 EQ PUSH2 0x29A JUMPI DUP1 PUSH4 0x995DF76C EQ PUSH2 0x295 JUMPI DUP1 PUSH4 0x9A802A6D EQ PUSH2 0x290 JUMPI DUP1 PUSH4 0xA7713A70 EQ PUSH2 0x28B JUMPI DUP1 PUSH4 0xB58131B0 EQ PUSH2 0x286 JUMPI DUP1 PUSH4 0xBC197C81 EQ PUSH2 0x281 JUMPI DUP1 PUSH4 0xC01F9E37 EQ PUSH2 0x27C JUMPI DUP1 PUSH4 0xC28BC2FA EQ PUSH2 0x277 JUMPI DUP1 PUSH4 0xC59057E4 EQ PUSH2 0x272 JUMPI DUP1 PUSH4 0xC5A86C2D EQ PUSH2 0x26D JUMPI DUP1 PUSH4 0xDBC1D569 EQ PUSH2 0x268 JUMPI DUP1 PUSH4 0xDD4E2BA5 EQ PUSH2 0x263 JUMPI DUP1 PUSH4 0xDEAAA7CC EQ PUSH2 0x25E JUMPI DUP1 PUSH4 0xEA0217CF EQ PUSH2 0x259 JUMPI DUP1 PUSH4 0xEB9019D4 EQ PUSH2 0x254 JUMPI DUP1 PUSH4 0xECE40CC1 EQ PUSH2 0x24F JUMPI DUP1 PUSH4 0xF23A6E61 EQ PUSH2 0x24A JUMPI DUP1 PUSH4 0xF7C618C1 EQ PUSH2 0x245 JUMPI DUP1 PUSH4 0xF8CE560A EQ PUSH2 0x240 JUMPI PUSH4 0xFC0C546A SUB PUSH2 0xE JUMPI PUSH2 0x1C0A JUMP JUMPDEST PUSH2 0x1B4E JUMP JUMPDEST PUSH2 0x1B09 JUMP JUMPDEST PUSH2 0x1AB4 JUMP JUMPDEST PUSH2 0x1A5C JUMP JUMPDEST PUSH2 0x1A26 JUMP JUMPDEST PUSH2 0x1973 JUMP JUMPDEST PUSH2 0x1938 JUMP JUMPDEST PUSH2 0x18DA JUMP JUMPDEST PUSH2 0x1131 JUMP JUMPDEST PUSH2 0x16BF JUMP JUMPDEST PUSH2 0x16A3 JUMP JUMPDEST PUSH2 0x15F1 JUMP JUMPDEST PUSH2 0x15B9 JUMP JUMPDEST PUSH2 0x1531 JUMP JUMPDEST PUSH2 0x1515 JUMP JUMPDEST PUSH2 0x14FA JUMP JUMPDEST PUSH2 0x14B2 JUMP JUMPDEST PUSH2 0x146D JUMP JUMPDEST PUSH2 0x1451 JUMP JUMPDEST PUSH2 0x1426 JUMP JUMPDEST PUSH2 0x1364 JUMP JUMPDEST PUSH2 0x1297 JUMP JUMPDEST PUSH2 0x1242 JUMP JUMPDEST PUSH2 0x11EA JUMP JUMPDEST PUSH2 0x11CC JUMP JUMPDEST PUSH2 0x115D JUMP JUMPDEST PUSH2 0x10E1 JUMP JUMPDEST PUSH2 0x109F JUMP JUMPDEST PUSH2 0x105C JUMP JUMPDEST PUSH2 0x102C JUMP JUMPDEST PUSH2 0xF69 JUMP JUMPDEST PUSH2 0xF14 JUMP JUMPDEST PUSH2 0xEE5 JUMP JUMPDEST PUSH2 0xE2E JUMP JUMPDEST PUSH2 0xDA1 JUMP JUMPDEST PUSH2 0xD47 JUMP JUMPDEST PUSH2 0xD0C JUMP JUMPDEST PUSH2 0xCD7 JUMP JUMPDEST PUSH2 0xBD7 JUMP JUMPDEST PUSH2 0x9B6 JUMP JUMPDEST PUSH2 0x92F JUMP JUMPDEST PUSH2 0x8CC JUMP JUMPDEST PUSH2 0x7EB JUMP JUMPDEST PUSH2 0x637 JUMP JUMPDEST PUSH2 0x5AF JUMP JUMPDEST PUSH2 0x3D6 JUMP JUMPDEST CALLVALUE PUSH2 0x3D1 JUMPI PUSH1 0x20 CALLDATASIZE PUSH1 0x3 NOT ADD SLT PUSH2 0x3D1 JUMPI PUSH1 0x4 CALLDATALOAD PUSH4 0xFFFFFFFF PUSH1 0xE0 SHL DUP2 AND DUP1 SWAP2 SUB PUSH2 0x3D1 JUMPI PUSH2 0x389 SWAP1 PUSH4 0xBF26D897 PUSH1 0xE0 SHL DUP2 EQ SWAP1 DUP2 ISZERO PUSH2 0x3C0 JUMPI JUMPDEST DUP2 ISZERO PUSH2 0x3AF JUMPI JUMPDEST DUP2 ISZERO PUSH2 0x39E JUMPI JUMPDEST DUP2 ISZERO PUSH2 0x38D JUMPI JUMPDEST POP PUSH1 0x40 MLOAD SWAP1 ISZERO ISZERO DUP2 MSTORE SWAP1 DUP2 SWAP1 PUSH1 0x20 DUP3 ADD SWAP1 JUMP JUMPDEST SUB SWAP1 RETURN JUMPDEST PUSH4 0x1FFC9A7 PUSH1 0xE0 SHL EQ SWAP1 POP CODESIZE PUSH2 0x376 JUMP JUMPDEST PUSH4 0x2711897 PUSH1 0xE5 SHL DUP2 EQ SWAP2 POP PUSH2 0x36F JUMP JUMPDEST PUSH4 0x288ACE03 PUSH1 0xE1 SHL DUP2 EQ SWAP2 POP PUSH2 0x368 JUMP JUMPDEST PUSH4 0x79DD796F PUSH1 0xE0 SHL DUP2 EQ SWAP2 POP PUSH2 0x361 JUMP JUMPDEST PUSH1 0x0 DUP1 REVERT JUMPDEST CALLVALUE PUSH2 0x3D1 JUMPI PUSH1 0x0 CALLDATASIZE PUSH1 0x3 NOT ADD SLT PUSH2 0x3D1 JUMPI PUSH1 0x20 PUSH1 0x7 SLOAD PUSH1 0x40 MLOAD SWAP1 DUP2 MSTORE RETURN JUMPDEST PUSH1 0x24 CALLDATALOAD SWAP1 PUSH1 0xFF DUP3 AND DUP3 SUB PUSH2 0x3D1 JUMPI JUMP JUMPDEST PUSH1 0x44 CALLDATALOAD SWAP1 PUSH1 0xFF DUP3 AND DUP3 SUB PUSH2 0x3D1 JUMPI JUMP JUMPDEST SWAP2 DUP2 PUSH1 0x1F DUP5 ADD SLT ISZERO PUSH2 0x3D1 JUMPI DUP3 CALLDATALOAD SWAP2 PUSH1 0x1 PUSH1 0x1 PUSH1 0x40 SHL SUB DUP4 GT PUSH2 0x3D1 JUMPI PUSH1 0x20 DUP4 DUP2 DUP7 ADD SWAP6 ADD ADD GT PUSH2 0x3D1 JUMPI JUMP JUMPDEST PUSH4 0x4E487B71 PUSH1 0xE0 SHL PUSH1 0x0 MSTORE PUSH1 0x41 PUSH1 0x4 MSTORE PUSH1 0x24 PUSH1 0x0 REVERT JUMPDEST PUSH1 0x80 DUP2 ADD SWAP1 DUP2 LT PUSH1 0x1 PUSH1 0x1 PUSH1 0x40 SHL SUB DUP3 GT OR PUSH2 0x472 JUMPI PUSH1 0x40 MSTORE JUMP JUMPDEST PUSH2 0x441 JUMP JUMPDEST PUSH1 0x40 DUP2 ADD SWAP1 DUP2 LT PUSH1 0x1 PUSH1 0x1 PUSH1 0x40 SHL SUB DUP3 GT OR PUSH2 0x472 JUMPI PUSH1 0x40 MSTORE JUMP JUMPDEST PUSH1 0x20 DUP2 ADD SWAP1 DUP2 LT PUSH1 0x1 PUSH1 0x1 PUSH1 0x40 SHL SUB DUP3 GT OR PUSH2 0x472 JUMPI PUSH1 0x40 MSTORE JUMP JUMPDEST PUSH1 0x60 DUP2 ADD SWAP1 DUP2 LT PUSH1 0x1 PUSH1 0x1 PUSH1 0x40 SHL SUB DUP3 GT OR PUSH2 0x472 JUMPI PUSH1 0x40 MSTORE JUMP JUMPDEST PUSH1 0xC0 DUP2 ADD SWAP1 DUP2 LT PUSH1 0x1 PUSH1 0x1 PUSH1 0x40 SHL SUB DUP3 GT OR PUSH2 0x472 JUMPI PUSH1 0x40 MSTORE JUMP JUMPDEST SWAP1 PUSH1 0x1F DUP1 NOT SWAP2 ADD AND DUP2 ADD SWAP1 DUP2 LT PUSH1 0x1 PUSH1 0x1 PUSH1 0x40 SHL SUB DUP3 GT OR PUSH2 0x472 JUMPI PUSH1 0x40 MSTORE JUMP JUMPDEST PUSH1 0x40 MLOAD SWAP1 PUSH2 0x511 DUP3 PUSH2 0x477 JUMP JUMPDEST JUMP JUMPDEST PUSH1 0x40 MLOAD SWAP1 PUSH2 0x511 DUP3 PUSH2 0x457 JUMP JUMPDEST PUSH1 0x40 MLOAD SWAP1 PUSH1 0xE0 DUP3 ADD DUP3 DUP2 LT PUSH1 0x1 PUSH1 0x1 PUSH1 0x40 SHL SUB DUP3 GT OR PUSH2 0x472 JUMPI PUSH1 0x40 MSTORE JUMP JUMPDEST PUSH1 0x1 PUSH1 0x1 PUSH1 0x40 SHL SUB DUP2 GT PUSH2 0x472 JUMPI PUSH1 0x1F ADD PUSH1 0x1F NOT AND PUSH1 0x20 ADD SWAP1 JUMP JUMPDEST SWAP3 SWAP2 SWAP3 PUSH2 0x566 DUP3 PUSH2 0x53F JUMP JUMPDEST SWAP2 PUSH2 0x574 PUSH1 0x40 MLOAD SWAP4 DUP5 PUSH2 0x4E3 JUMP JUMPDEST DUP3 SWAP5 DUP2 DUP5 MSTORE DUP2 DUP4 ADD GT PUSH2 0x3D1 JUMPI DUP3 DUP2 PUSH1 0x20 SWAP4 DUP5 PUSH1 0x0 SWAP7 ADD CALLDATACOPY ADD ADD MSTORE JUMP JUMPDEST SWAP1 DUP1 PUSH1 0x1F DUP4 ADD SLT ISZERO PUSH2 0x3D1 JUMPI DUP2 PUSH1 0x20 PUSH2 0x5AC SWAP4 CALLDATALOAD SWAP2 ADD PUSH2 0x55A JUMP JUMPDEST SWAP1 JUMP JUMPDEST CALLVALUE PUSH2 0x3D1 JUMPI PUSH1 0xE0 CALLDATASIZE PUSH1 0x3 NOT ADD SLT PUSH2 0x3D1 JUMPI PUSH2 0x5C8 PUSH2 0x3F4 JUMP JUMPDEST PUSH1 0x1 PUSH1 0x1 PUSH1 0x40 SHL SUB PUSH1 0x44 CALLDATALOAD DUP2 DUP2 GT PUSH2 0x3D1 JUMPI PUSH2 0x5E8 SWAP1 CALLDATASIZE SWAP1 PUSH1 0x4 ADD PUSH2 0x414 JUMP JUMPDEST SWAP2 PUSH1 0x64 CALLDATALOAD SWAP1 DUP2 GT PUSH2 0x3D1 JUMPI PUSH2 0x601 SWAP1 CALLDATASIZE SWAP1 PUSH1 0x4 ADD PUSH2 0x591 JUMP JUMPDEST SWAP3 PUSH1 0x84 CALLDATALOAD PUSH1 0xFF DUP2 AND DUP2 SUB PUSH2 0x3D1 JUMPI PUSH2 0x389 SWAP5 PUSH2 0x627 SWAP5 PUSH1 0xC4 CALLDATALOAD SWAP5 PUSH1 0xA4 CALLDATALOAD SWAP5 PUSH1 0x4 CALLDATALOAD PUSH2 0x1E43 JUMP JUMPDEST PUSH1 0x40 MLOAD SWAP1 DUP2 MSTORE SWAP1 DUP2 SWAP1 PUSH1 0x20 DUP3 ADD SWAP1 JUMP JUMPDEST CALLVALUE PUSH2 0x3D1 JUMPI PUSH1 0x20 CALLDATASIZE PUSH1 0x3 NOT ADD SLT PUSH2 0x3D1 JUMPI PUSH1 0x4 CALLDATALOAD PUSH2 0x656 ADDRESS CALLER EQ PUSH2 0x208F JUMP JUMPDEST PUSH1 0x64 DUP2 GT PUSH2 0x71B JUMPI PUSH32 0x553476BF02EF2726E8CE5CED78D63E26E602E4A2257B1F559418E24B4633997 SWAP1 PUSH2 0x688 PUSH2 0x2467 JUMP JUMPDEST DUP1 ISZERO ISZERO DUP1 PUSH2 0x711 JUMPI JUMPDEST PUSH2 0x6DA JUMPI JUMPDEST PUSH2 0x6C6 PUSH2 0x6B7 PUSH2 0x6B2 PUSH2 0x6A7 PUSH2 0x22B6 JUMP JUMPDEST PUSH6 0xFFFFFFFFFFFF AND SWAP1 JUMP JUMPDEST PUSH2 0x2F6F JUMP JUMPDEST PUSH2 0x6C0 DUP5 PUSH2 0x2E9F JUMP JUMPDEST SWAP1 PUSH2 0x2783 JUMP JUMPDEST POP POP PUSH1 0x40 DUP1 MLOAD SWAP2 DUP3 MSTORE PUSH1 0x20 DUP3 ADD SWAP3 SWAP1 SWAP3 MSTORE LOG1 STOP JUMPDEST PUSH2 0x70C PUSH2 0x6E6 DUP3 PUSH2 0x2E9F JUMP JUMPDEST PUSH2 0x707 PUSH2 0x6F1 PUSH2 0x504 JUMP JUMPDEST PUSH1 0x0 DUP2 MSTORE PUSH1 0x1 PUSH1 0x1 PUSH1 0xE0 SHL SUB SWAP1 SWAP3 AND PUSH1 0x20 DUP4 ADD MSTORE JUMP JUMPDEST PUSH2 0x269D JUMP JUMPDEST PUSH2 0x696 JUMP JUMPDEST POP PUSH1 0xB SLOAD ISZERO PUSH2 0x691 JUMP JUMPDEST PUSH1 0x40 MLOAD PUSH3 0x461BCD PUSH1 0xE5 SHL DUP2 MSTORE PUSH1 0x20 PUSH1 0x4 DUP3 ADD MSTORE PUSH1 0x43 PUSH1 0x24 DUP3 ADD MSTORE PUSH32 0x476F7665726E6F72566F74657351756F72756D4672616374696F6E3A2071756F PUSH1 0x44 DUP3 ADD MSTORE PUSH32 0x72756D4E756D657261746F72206F7665722071756F72756D44656E6F6D696E61 PUSH1 0x64 DUP3 ADD MSTORE PUSH3 0x3A37B9 PUSH1 0xE9 SHL PUSH1 0x84 DUP3 ADD MSTORE PUSH1 0xA4 SWAP1 REVERT JUMPDEST PUSH1 0x0 JUMPDEST DUP4 DUP2 LT PUSH2 0x7A5 JUMPI POP POP PUSH1 0x0 SWAP2 ADD MSTORE JUMP JUMPDEST DUP2 DUP2 ADD MLOAD DUP4 DUP3 ADD MSTORE PUSH1 0x20 ADD PUSH2 0x795 JUMP JUMPDEST SWAP1 PUSH1 0x20 SWAP2 PUSH2 0x7CE DUP2 MLOAD DUP1 SWAP3 DUP2 DUP6 MSTORE DUP6 DUP1 DUP7 ADD SWAP2 ADD PUSH2 0x792 JUMP JUMPDEST PUSH1 0x1F ADD PUSH1 0x1F NOT AND ADD ADD SWAP1 JUMP JUMPDEST SWAP1 PUSH1 0x20 PUSH2 0x5AC SWAP3 DUP2 DUP2 MSTORE ADD SWAP1 PUSH2 0x7B5 JUMP JUMPDEST CALLVALUE PUSH2 0x3D1 JUMPI PUSH1 0x0 DUP1 PUSH1 0x3 NOT CALLDATASIZE ADD SLT PUSH2 0x8C9 JUMPI PUSH1 0x40 MLOAD SWAP1 DUP1 PUSH1 0x2 SLOAD PUSH2 0x80E DUP2 PUSH2 0x1C4F JUMP JUMPDEST DUP1 DUP6 MSTORE SWAP2 PUSH1 0x1 SWAP2 DUP1 DUP4 AND SWAP1 DUP2 ISZERO PUSH2 0x89F JUMPI POP PUSH1 0x1 EQ PUSH2 0x844 JUMPI JUMPDEST PUSH2 0x389 DUP6 PUSH2 0x838 DUP2 DUP8 SUB DUP3 PUSH2 0x4E3 JUMP JUMPDEST PUSH1 0x40 MLOAD SWAP2 DUP3 SWAP2 DUP3 PUSH2 0x7DA JUMP JUMPDEST SWAP3 POP PUSH1 0x2 DUP4 MSTORE PUSH32 0x405787FA12A823E0F2B7631CC41B3BA8828B3321CA811111FA75CD3AA3BB5ACE JUMPDEST DUP3 DUP5 LT PUSH2 0x887 JUMPI POP POP POP DUP2 ADD PUSH1 0x20 ADD PUSH2 0x838 DUP3 PUSH2 0x389 PUSH2 0x828 JUMP JUMPDEST DUP1 SLOAD PUSH1 0x20 DUP6 DUP8 ADD DUP2 ADD SWAP2 SWAP1 SWAP2 MSTORE SWAP1 SWAP4 ADD SWAP3 DUP2 ADD PUSH2 0x86C JUMP JUMPDEST DUP7 SWAP6 POP PUSH2 0x389 SWAP7 SWAP4 POP PUSH1 0x20 SWAP3 POP PUSH2 0x838 SWAP5 SWAP2 POP PUSH1 0xFF NOT AND DUP3 DUP5 ADD MSTORE ISZERO ISZERO PUSH1 0x5 SHL DUP3 ADD ADD SWAP3 SWAP4 PUSH2 0x828 JUMP JUMPDEST DUP1 REVERT JUMPDEST CALLVALUE PUSH2 0x3D1 JUMPI PUSH1 0x20 CALLDATASIZE PUSH1 0x3 NOT ADD SLT PUSH2 0x3D1 JUMPI PUSH1 0x4 CALLDATALOAD PUSH1 0x0 MSTORE PUSH1 0x3 PUSH1 0x20 MSTORE PUSH1 0x20 PUSH1 0x1 DUP1 PUSH1 0xA0 SHL SUB PUSH1 0x40 PUSH1 0x0 KECCAK256 SLOAD PUSH1 0x40 SHR AND PUSH1 0x40 MLOAD SWAP1 DUP2 MSTORE RETURN JUMPDEST PUSH1 0x4 CALLDATALOAD SWAP1 PUSH1 0x1 PUSH1 0x1 PUSH1 0xA0 SHL SUB DUP3 AND DUP3 SUB PUSH2 0x3D1 JUMPI JUMP JUMPDEST PUSH1 0x24 CALLDATALOAD SWAP1 PUSH1 0x1 PUSH1 0x1 PUSH1 0xA0 SHL SUB DUP3 AND DUP3 SUB PUSH2 0x3D1 JUMPI JUMP JUMPDEST CALLVALUE PUSH2 0x3D1 JUMPI PUSH1 0x80 CALLDATASIZE PUSH1 0x3 NOT ADD SLT PUSH2 0x3D1 JUMPI PUSH2 0x948 PUSH2 0x903 JUMP JUMPDEST POP PUSH2 0x951 PUSH2 0x919 JUMP JUMPDEST POP PUSH1 0x64 CALLDATALOAD PUSH1 0x1 PUSH1 0x1 PUSH1 0x40 SHL SUB DUP2 GT PUSH2 0x3D1 JUMPI PUSH2 0x971 SWAP1 CALLDATASIZE SWAP1 PUSH1 0x4 ADD PUSH2 0x591 JUMP JUMPDEST POP PUSH1 0x40 MLOAD PUSH4 0xA85BD01 PUSH1 0xE1 SHL DUP2 MSTORE PUSH1 0x20 SWAP1 RETURN JUMPDEST PUSH4 0x4E487B71 PUSH1 0xE0 SHL PUSH1 0x0 MSTORE PUSH1 0x21 PUSH1 0x4 MSTORE PUSH1 0x24 PUSH1 0x0 REVERT JUMPDEST PUSH1 0x4 GT ISZERO PUSH2 0x9A4 JUMPI JUMP JUMPDEST PUSH2 0x984 JUMP JUMPDEST SWAP1 PUSH1 0x4 DUP3 LT ISZERO PUSH2 0x9A4 JUMPI MSTORE JUMP JUMPDEST CALLVALUE PUSH2 0x3D1 JUMPI PUSH1 0x20 CALLDATASIZE PUSH1 0x3 NOT ADD SLT PUSH2 0x3D1 JUMPI PUSH1 0x4 CALLDATALOAD PUSH1 0x0 MSTORE PUSH1 0xC PUSH1 0x20 MSTORE PUSH1 0x80 PUSH1 0x40 PUSH1 0x0 KECCAK256 SLOAD PUSH1 0x40 MLOAD SWAP1 PUSH2 0x9EB DUP3 PUSH1 0xFF DUP4 AND PUSH2 0x9A9 JUMP JUMPDEST PUSH4 0xFFFFFFFF SWAP1 DUP2 DUP2 PUSH1 0x8 SHR AND PUSH1 0x20 DUP5 ADD MSTORE DUP2 DUP2 PUSH1 0x28 SHR AND PUSH1 0x40 DUP5 ADD MSTORE PUSH1 0x48 SHR AND PUSH1 0x60 DUP3 ADD MSTORE RETURN JUMPDEST PUSH1 0x1 PUSH1 0x1 PUSH1 0x40 SHL SUB DUP2 GT PUSH2 0x472 JUMPI PUSH1 0x5 SHL PUSH1 0x20 ADD SWAP1 JUMP JUMPDEST DUP2 PUSH1 0x1F DUP3 ADD SLT ISZERO PUSH2 0x3D1 JUMPI DUP1 CALLDATALOAD SWAP2 PUSH2 0xA40 DUP4 PUSH2 0xA12 JUMP JUMPDEST SWAP3 PUSH2 0xA4E PUSH1 0x40 MLOAD SWAP5 DUP6 PUSH2 0x4E3 JUMP JUMPDEST DUP1 DUP5 MSTORE PUSH1 0x20 SWAP3 DUP4 DUP1 DUP7 ADD SWAP3 PUSH1 0x5 SHL DUP3 ADD ADD SWAP3 DUP4 GT PUSH2 0x3D1 JUMPI DUP4 ADD SWAP1 JUMPDEST DUP3 DUP3 LT PUSH2 0xA78 JUMPI POP POP POP POP SWAP1 JUMP JUMPDEST DUP2 CALLDATALOAD PUSH1 0x1 PUSH1 0x1 PUSH1 0xA0 SHL SUB DUP2 AND DUP2 SUB PUSH2 0x3D1 JUMPI DUP2 MSTORE SWAP1 DUP4 ADD SWAP1 DUP4 ADD PUSH2 0xA6A JUMP JUMPDEST DUP2 PUSH1 0x1F DUP3 ADD SLT ISZERO PUSH2 0x3D1 JUMPI DUP1 CALLDATALOAD SWAP2 PUSH2 0xAAE DUP4 PUSH2 0xA12 JUMP JUMPDEST SWAP3 PUSH2 0xABC PUSH1 0x40 MLOAD SWAP5 DUP6 PUSH2 0x4E3 JUMP JUMPDEST DUP1 DUP5 MSTORE PUSH1 0x20 SWAP3 DUP4 DUP1 DUP7 ADD SWAP3 PUSH1 0x5 SHL DUP3 ADD ADD SWAP3 DUP4 GT PUSH2 0x3D1 JUMPI DUP4 ADD SWAP1 JUMPDEST DUP3 DUP3 LT PUSH2 0xAE6 JUMPI POP POP POP POP SWAP1 JUMP JUMPDEST DUP2 CALLDATALOAD DUP2 MSTORE SWAP1 DUP4 ADD SWAP1 DUP4 ADD PUSH2 0xAD8 JUMP JUMPDEST SWAP1 DUP1 PUSH1 0x1F DUP4 ADD SLT ISZERO PUSH2 0x3D1 JUMPI DUP2 CALLDATALOAD SWAP1 PUSH2 0xB0D DUP3 PUSH2 0xA12 JUMP JUMPDEST SWAP3 PUSH2 0xB1B PUSH1 0x40 MLOAD SWAP5 DUP6 PUSH2 0x4E3 JUMP JUMPDEST DUP3 DUP5 MSTORE PUSH1 0x20 SWAP3 DUP4 DUP1 DUP7 ADD SWAP2 PUSH1 0x5 SHL DUP4 ADD ADD SWAP3 DUP1 DUP5 GT PUSH2 0x3D1 JUMPI DUP5 DUP4 ADD SWAP2 JUMPDEST DUP5 DUP4 LT PUSH2 0xB49 JUMPI POP POP POP POP POP POP SWAP1 JUMP JUMPDEST DUP3 CALLDATALOAD PUSH1 0x1 PUSH1 0x1 PUSH1 0x40 SHL SUB DUP2 GT PUSH2 0x3D1 JUMPI DUP7 SWAP2 PUSH2 0xB6A DUP5 DUP5 DUP1 SWAP5 DUP10 ADD ADD PUSH2 0x591 JUMP JUMPDEST DUP2 MSTORE ADD SWAP3 ADD SWAP2 PUSH2 0xB39 JUMP JUMPDEST PUSH1 0x80 PUSH1 0x3 NOT DUP3 ADD SLT PUSH2 0x3D1 JUMPI PUSH1 0x1 PUSH1 0x1 PUSH1 0x40 SHL SUB SWAP2 PUSH1 0x4 CALLDATALOAD DUP4 DUP2 GT PUSH2 0x3D1 JUMPI DUP3 PUSH2 0xBA1 SWAP2 PUSH1 0x4 ADD PUSH2 0xA29 JUMP JUMPDEST SWAP3 PUSH1 0x24 CALLDATALOAD DUP2 DUP2 GT PUSH2 0x3D1 JUMPI DUP4 PUSH2 0xBB9 SWAP2 PUSH1 0x4 ADD PUSH2 0xA97 JUMP JUMPDEST SWAP3 PUSH1 0x44 CALLDATALOAD SWAP2 DUP3 GT PUSH2 0x3D1 JUMPI PUSH2 0xBD0 SWAP2 PUSH1 0x4 ADD PUSH2 0xAF5 JUMP JUMPDEST SWAP1 PUSH1 0x64 CALLDATALOAD SWAP1 JUMP JUMPDEST PUSH2 0xBEF PUSH2 0xBE3 CALLDATASIZE PUSH2 0xB75 JUMP JUMPDEST DUP2 DUP4 DUP6 SWAP5 SWAP7 SWAP4 SWAP6 PUSH2 0x1D1B JUMP JUMPDEST SWAP2 PUSH2 0xBF9 DUP4 PUSH2 0x37AB JUMP JUMPDEST PUSH1 0x8 DUP2 LT ISZERO PUSH2 0x9A4 JUMPI PUSH1 0x4 DUP2 EQ SWAP1 DUP2 ISZERO PUSH2 0xCC3 JUMPI JUMPDEST POP ISZERO PUSH2 0xC74 JUMPI PUSH2 0x389 SWAP4 PUSH2 0x627 SWAP3 PUSH2 0xC43 PUSH1 0x2 PUSH2 0xC35 DUP8 PUSH1 0x0 MSTORE PUSH1 0x3 PUSH1 0x20 MSTORE PUSH1 0x40 PUSH1 0x0 KECCAK256 SWAP1 JUMP JUMPDEST ADD DUP1 SLOAD PUSH1 0xFF NOT AND PUSH1 0x1 OR SWAP1 SSTORE JUMP JUMPDEST PUSH1 0x40 MLOAD DUP6 DUP2 MSTORE PUSH32 0x712AE1383F79AC853F8D882153778E0260EF8F03B504E2866E0593E04D2B291F SWAP1 PUSH1 0x20 SWAP1 LOG1 PUSH2 0x39A6 JUMP JUMPDEST PUSH1 0x40 MLOAD PUSH3 0x461BCD PUSH1 0xE5 SHL DUP2 MSTORE PUSH1 0x20 PUSH1 0x4 DUP3 ADD MSTORE PUSH1 0x21 PUSH1 0x24 DUP3 ADD MSTORE PUSH32 0x476F7665726E6F723A2070726F706F73616C206E6F7420737563636573736675 PUSH1 0x44 DUP3 ADD MSTORE PUSH1 0x1B PUSH1 0xFA SHL PUSH1 0x64 DUP3 ADD MSTORE PUSH1 0x84 SWAP1 REVERT JUMPDEST PUSH1 0x5 SWAP2 POP PUSH2 0xCD0 DUP2 PUSH2 0xEDB JUMP JUMPDEST EQ CODESIZE PUSH2 0xC0E JUMP JUMPDEST CALLVALUE PUSH2 0x3D1 JUMPI PUSH1 0x20 CALLDATASIZE PUSH1 0x3 NOT ADD SLT PUSH2 0x3D1 JUMPI PUSH1 0x4 CALLDATALOAD PUSH1 0x0 MSTORE PUSH1 0x3 PUSH1 0x20 MSTORE PUSH1 0x20 PUSH1 0x1 PUSH1 0x1 PUSH1 0x40 SHL SUB PUSH1 0x40 PUSH1 0x0 KECCAK256 SLOAD AND PUSH1 0x40 MLOAD SWAP1 DUP2 MSTORE RETURN JUMPDEST CALLVALUE PUSH2 0x3D1 JUMPI PUSH1 0x0 CALLDATASIZE PUSH1 0x3 NOT ADD SLT PUSH2 0x3D1 JUMPI PUSH1 0x20 PUSH1 0x40 MLOAD PUSH32 0xB3B3F3B703CD84CE352197DCFF232B1B5D3CFB2025CE47CF04742D0651F1AF88 DUP2 MSTORE RETURN JUMPDEST CALLVALUE PUSH2 0x3D1 JUMPI PUSH1 0x0 CALLDATASIZE PUSH1 0x3 NOT ADD SLT PUSH2 0x3D1 JUMPI PUSH1 0x20 PUSH1 0x6 SLOAD PUSH1 0x40 MLOAD SWAP1 DUP2 MSTORE RETURN JUMPDEST SWAP2 SWAP1 SWAP2 PUSH1 0x60 PUSH1 0x80 DUP3 ADD SWAP4 PUSH2 0xD7A DUP4 DUP3 MLOAD PUSH2 0x9A9 JUMP JUMPDEST DUP2 PUSH4 0xFFFFFFFF SWAP2 DUP3 PUSH1 0x20 DUP3 ADD MLOAD AND PUSH1 0x20 DUP7 ADD MSTORE DUP3 PUSH1 0x40 DUP3 ADD MLOAD AND PUSH1 0x40 DUP7 ADD MSTORE ADD MLOAD AND SWAP2 ADD MSTORE JUMP JUMPDEST CALLVALUE PUSH2 0x3D1 JUMPI PUSH1 0x20 CALLDATASIZE PUSH1 0x3 NOT ADD SLT PUSH2 0x3D1 JUMPI PUSH2 0x389 PUSH1 0x40 DUP1 PUSH1 0x60 DUP2 MLOAD PUSH2 0xDC5 DUP2 PUSH2 0x457 JUMP JUMPDEST PUSH1 0x0 SWAP2 DUP2 DUP4 DUP1 SWAP4 MSTORE DUP3 PUSH1 0x20 DUP3 ADD MSTORE DUP3 DUP6 DUP3 ADD MSTORE ADD MSTORE PUSH1 0x4 CALLDATALOAD DUP2 MSTORE PUSH1 0xC PUSH1 0x20 MSTORE KECCAK256 SWAP1 DUP1 MLOAD SWAP2 PUSH2 0xDF2 DUP4 PUSH2 0x457 JUMP JUMPDEST SLOAD PUSH2 0xE00 PUSH1 0xFF DUP3 AND DUP5 PUSH2 0x2FF6 JUMP JUMPDEST PUSH4 0xFFFFFFFF SWAP1 DUP2 DUP2 PUSH1 0x8 SHR AND PUSH1 0x20 DUP6 ADD MSTORE DUP2 DUP2 PUSH1 0x28 SHR AND DUP4 DUP6 ADD MSTORE PUSH1 0x48 SHR AND PUSH1 0x60 DUP4 ADD MSTORE MLOAD SWAP2 DUP3 SWAP2 DUP3 PUSH2 0xD65 JUMP JUMPDEST CALLVALUE PUSH2 0x3D1 JUMPI PUSH1 0xA0 CALLDATASIZE PUSH1 0x3 NOT ADD SLT PUSH2 0x3D1 JUMPI PUSH2 0x389 PUSH2 0x627 PUSH1 0x4 CALLDATALOAD PUSH2 0xE50 PUSH2 0x3F4 JUMP JUMPDEST PUSH2 0xEC5 PUSH2 0xEBD PUSH2 0xE5E PUSH2 0x404 JUMP JUMPDEST PUSH1 0x40 MLOAD PUSH1 0x20 DUP2 ADD SWAP2 PUSH32 0x150214D74D59B7D1E90C73FC22EF3D991DD0A76B046543D4D80AB92D2A50328F DUP4 MSTORE DUP7 PUSH1 0x40 DUP4 ADD MSTORE PUSH1 0xFF DUP7 AND PUSH1 0x60 DUP4 ADD MSTORE PUSH1 0x60 DUP3 MSTORE PUSH2 0xEA5 DUP3 PUSH2 0x457 JUMP JUMPDEST PUSH2 0xEB8 PUSH1 0x84 CALLDATALOAD SWAP4 PUSH1 0x64 CALLDATALOAD SWAP4 MLOAD SWAP1 KECCAK256 PUSH2 0x2A2C JUMP JUMPDEST PUSH2 0x29AA JUMP JUMPDEST SWAP2 SWAP1 SWAP2 PUSH2 0x288A JUMP JUMPDEST PUSH1 0x40 MLOAD SWAP3 PUSH2 0xED2 DUP5 PUSH2 0x492 JUMP JUMPDEST PUSH1 0x0 DUP5 MSTORE PUSH2 0x1EDE JUMP JUMPDEST PUSH1 0x8 GT ISZERO PUSH2 0x9A4 JUMPI JUMP JUMPDEST CALLVALUE PUSH2 0x3D1 JUMPI PUSH1 0x20 CALLDATASIZE PUSH1 0x3 NOT ADD SLT PUSH2 0x3D1 JUMPI PUSH2 0xF01 PUSH1 0x4 CALLDATALOAD PUSH2 0x37AB JUMP JUMPDEST PUSH1 0x40 MLOAD PUSH1 0x8 DUP3 LT ISZERO PUSH2 0x9A4 JUMPI PUSH1 0x20 SWAP2 DUP2 MSTORE RETURN JUMPDEST CALLVALUE PUSH2 0x3D1 JUMPI PUSH1 0x40 CALLDATASIZE PUSH1 0x3 NOT ADD SLT PUSH2 0x3D1 JUMPI PUSH1 0x20 PUSH1 0xFF PUSH2 0xF5D PUSH2 0xF34 PUSH2 0x919 JUMP JUMPDEST PUSH1 0x4 CALLDATALOAD PUSH1 0x0 MSTORE PUSH1 0x9 DUP5 MSTORE PUSH1 0x3 PUSH1 0x40 PUSH1 0x0 KECCAK256 ADD SWAP1 PUSH1 0x1 DUP1 PUSH1 0xA0 SHL SUB AND PUSH1 0x0 MSTORE PUSH1 0x20 MSTORE PUSH1 0x40 PUSH1 0x0 KECCAK256 SWAP1 JUMP JUMPDEST SLOAD AND PUSH1 0x40 MLOAD SWAP1 ISZERO ISZERO DUP2 MSTORE RETURN JUMPDEST CALLVALUE PUSH2 0x3D1 JUMPI PUSH2 0xF77 CALLDATASIZE PUSH2 0xB75 JUMP JUMPDEST SWAP1 PUSH2 0xF84 DUP3 DUP3 DUP6 DUP8 PUSH2 0x1D1B JUMP JUMPDEST SWAP3 PUSH2 0xF8E DUP5 PUSH2 0x37AB JUMP JUMPDEST PUSH1 0x8 DUP2 LT ISZERO PUSH2 0x9A4 JUMPI PUSH2 0xFE7 JUMPI PUSH2 0x389 SWAP5 PUSH2 0xFE2 PUSH2 0xFDB PUSH2 0xFCF PUSH2 0xFBF PUSH2 0x627 SWAP9 PUSH1 0x0 MSTORE PUSH1 0x3 PUSH1 0x20 MSTORE PUSH1 0x40 PUSH1 0x0 KECCAK256 SWAP1 JUMP JUMPDEST SLOAD PUSH1 0x40 SHR PUSH1 0x1 PUSH1 0x1 PUSH1 0xA0 SHL SUB AND SWAP1 JUMP JUMPDEST PUSH1 0x1 PUSH1 0x1 PUSH1 0xA0 SHL SUB AND SWAP1 JUMP JUMPDEST CALLER EQ PUSH2 0x1D7F JUMP JUMPDEST PUSH2 0x3A61 JUMP JUMPDEST PUSH1 0x40 MLOAD PUSH3 0x461BCD PUSH1 0xE5 SHL DUP2 MSTORE PUSH1 0x20 PUSH1 0x4 DUP3 ADD MSTORE PUSH1 0x1C PUSH1 0x24 DUP3 ADD MSTORE PUSH32 0x476F7665726E6F723A20746F6F206C61746520746F2063616E63656C00000000 PUSH1 0x44 DUP3 ADD MSTORE PUSH1 0x64 SWAP1 REVERT JUMPDEST CALLVALUE PUSH2 0x3D1 JUMPI PUSH1 0x0 CALLDATASIZE PUSH1 0x3 NOT ADD SLT PUSH2 0x3D1 JUMPI PUSH2 0x389 PUSH2 0x1048 PUSH2 0x238C JUMP JUMPDEST PUSH1 0x40 MLOAD SWAP2 DUP3 SWAP2 PUSH1 0x20 DUP4 MSTORE PUSH1 0x20 DUP4 ADD SWAP1 PUSH2 0x7B5 JUMP JUMPDEST CALLVALUE PUSH2 0x3D1 JUMPI PUSH1 0x20 CALLDATASIZE PUSH1 0x3 NOT ADD SLT PUSH2 0x3D1 JUMPI PUSH1 0x4 CALLDATALOAD PUSH1 0x0 MSTORE PUSH1 0x9 PUSH1 0x20 MSTORE PUSH1 0x60 PUSH1 0x40 PUSH1 0x0 KECCAK256 DUP1 SLOAD SWAP1 PUSH1 0x2 PUSH1 0x1 DUP3 ADD SLOAD SWAP2 ADD SLOAD SWAP1 PUSH1 0x40 MLOAD SWAP3 DUP4 MSTORE PUSH1 0x20 DUP4 ADD MSTORE PUSH1 0x40 DUP3 ADD MSTORE RETURN JUMPDEST CALLVALUE PUSH2 0x3D1 JUMPI PUSH1 0x0 CALLDATASIZE PUSH1 0x3 NOT ADD SLT PUSH2 0x3D1 JUMPI PUSH2 0x389 PUSH1 0x40 MLOAD PUSH2 0x10BF DUP2 PUSH2 0x477 JUMP JUMPDEST PUSH1 0x1 DUP2 MSTORE PUSH1 0x31 PUSH1 0xF8 SHL PUSH1 0x20 DUP3 ADD MSTORE PUSH1 0x40 MLOAD SWAP2 DUP3 SWAP2 PUSH1 0x20 DUP4 MSTORE PUSH1 0x20 DUP4 ADD SWAP1 PUSH2 0x7B5 JUMP JUMPDEST CALLVALUE PUSH2 0x3D1 JUMPI PUSH1 0x40 CALLDATASIZE PUSH1 0x3 NOT ADD SLT PUSH2 0x3D1 JUMPI PUSH1 0x20 PUSH2 0x1129 PUSH2 0x10FF PUSH2 0x3F4 JUMP JUMPDEST PUSH1 0x40 MLOAD PUSH2 0x110B DUP2 PUSH2 0x492 JUMP JUMPDEST PUSH1 0x0 DUP2 MSTORE PUSH1 0x40 MLOAD SWAP2 PUSH2 0x111C DUP4 PUSH2 0x492 JUMP JUMPDEST PUSH1 0x0 DUP4 MSTORE CALLER PUSH1 0x4 CALLDATALOAD PUSH2 0x1F5A JUMP JUMPDEST PUSH1 0x40 MLOAD SWAP1 DUP2 MSTORE RETURN JUMPDEST CALLVALUE PUSH2 0x3D1 JUMPI PUSH1 0x20 CALLDATASIZE PUSH1 0x3 NOT ADD SLT PUSH2 0x3D1 JUMPI PUSH1 0x4 CALLDATALOAD PUSH1 0x0 MSTORE PUSH1 0xD PUSH1 0x20 MSTORE PUSH1 0x20 PUSH1 0x40 PUSH1 0x0 KECCAK256 SLOAD PUSH1 0x40 MLOAD SWAP1 DUP2 MSTORE RETURN JUMPDEST CALLVALUE PUSH2 0x3D1 JUMPI PUSH1 0x80 CALLDATASIZE PUSH1 0x3 NOT ADD SLT PUSH2 0x3D1 JUMPI PUSH2 0x1176 PUSH2 0x3F4 JUMP JUMPDEST PUSH1 0x1 PUSH1 0x1 PUSH1 0x40 SHL SUB SWAP1 PUSH1 0x44 CALLDATALOAD DUP3 DUP2 GT PUSH2 0x3D1 JUMPI PUSH2 0x1197 SWAP1 CALLDATASIZE SWAP1 PUSH1 0x4 ADD PUSH2 0x414 JUMP JUMPDEST SWAP1 SWAP2 PUSH1 0x64 CALLDATALOAD SWAP4 DUP5 GT PUSH2 0x3D1 JUMPI PUSH2 0x11C2 PUSH2 0x1129 SWAP4 PUSH2 0x11BA PUSH1 0x20 SWAP7 CALLDATASIZE SWAP1 PUSH1 0x4 ADD PUSH2 0x591 JUMP JUMPDEST SWAP4 CALLDATASIZE SWAP2 PUSH2 0x55A JUMP JUMPDEST SWAP1 CALLER PUSH1 0x4 CALLDATALOAD PUSH2 0x1F5A JUMP JUMPDEST CALLVALUE PUSH2 0x3D1 JUMPI PUSH1 0x20 CALLDATASIZE PUSH1 0x3 NOT ADD SLT PUSH2 0x3D1 JUMPI PUSH1 0x20 PUSH2 0x1129 PUSH1 0x4 CALLDATALOAD PUSH2 0x2502 JUMP JUMPDEST CALLVALUE PUSH2 0x3D1 JUMPI PUSH1 0x20 CALLDATASIZE PUSH1 0x3 NOT ADD SLT PUSH2 0x3D1 JUMPI PUSH1 0x4 CALLDATALOAD PUSH2 0x1209 ADDRESS CALLER EQ PUSH2 0x208F JUMP JUMPDEST PUSH1 0x6 SLOAD PUSH1 0x40 DUP1 MLOAD SWAP2 DUP3 MSTORE PUSH1 0x20 DUP3 ADD DUP4 SWAP1 MSTORE PUSH32 0xC565B045403DC03C2EEA82B81A0465EDAD9E2E7FC4D97E11421C209DA93D7A93 SWAP2 LOG1 PUSH1 0x6 SSTORE STOP JUMPDEST CALLVALUE PUSH2 0x3D1 JUMPI PUSH1 0x60 CALLDATASIZE PUSH1 0x3 NOT ADD SLT PUSH2 0x3D1 JUMPI PUSH2 0x125B PUSH2 0x3F4 JUMP JUMPDEST PUSH1 0x44 CALLDATALOAD PUSH1 0x1 PUSH1 0x1 PUSH1 0x40 SHL SUB DUP2 GT PUSH2 0x3D1 JUMPI PUSH1 0x20 SWAP2 PUSH2 0x128A PUSH2 0x1283 PUSH2 0x1129 SWAP4 CALLDATASIZE SWAP1 PUSH1 0x4 ADD PUSH2 0x414 JUMP JUMPDEST CALLDATASIZE SWAP2 PUSH2 0x55A JUMP JUMPDEST PUSH1 0x40 MLOAD SWAP2 PUSH2 0x111C DUP4 PUSH2 0x492 JUMP JUMPDEST CALLVALUE PUSH2 0x3D1 JUMPI PUSH1 0x80 CALLDATASIZE PUSH1 0x3 NOT ADD SLT PUSH2 0x3D1 JUMPI PUSH1 0x1 PUSH1 0x1 PUSH1 0x40 SHL SUB PUSH1 0x4 CALLDATALOAD DUP2 DUP2 GT PUSH2 0x3D1 JUMPI PUSH2 0x12C8 SWAP1 CALLDATASIZE SWAP1 PUSH1 0x4 ADD PUSH2 0xA29 JUMP JUMPDEST SWAP1 PUSH1 0x24 CALLDATALOAD DUP2 DUP2 GT PUSH2 0x3D1 JUMPI PUSH2 0x12E1 SWAP1 CALLDATASIZE SWAP1 PUSH1 0x4 ADD PUSH2 0xA97 JUMP JUMPDEST SWAP2 PUSH1 0x44 CALLDATALOAD DUP3 DUP2 GT PUSH2 0x3D1 JUMPI PUSH2 0x12FA SWAP1 CALLDATASIZE SWAP1 PUSH1 0x4 ADD PUSH2 0xAF5 JUMP JUMPDEST PUSH1 0x64 CALLDATALOAD SWAP3 DUP4 GT PUSH2 0x3D1 JUMPI CALLDATASIZE PUSH1 0x23 DUP5 ADD SLT ISZERO PUSH2 0x3D1 JUMPI PUSH2 0x389 SWAP4 PUSH2 0x132A PUSH2 0x627 SWAP5 CALLDATASIZE SWAP1 PUSH1 0x24 DUP2 PUSH1 0x4 ADD CALLDATALOAD SWAP2 ADD PUSH2 0x55A JUMP JUMPDEST SWAP3 PUSH2 0x33B9 JUMP JUMPDEST SWAP1 DUP2 MLOAD DUP1 DUP3 MSTORE PUSH1 0x20 DUP1 DUP1 SWAP4 ADD SWAP4 ADD SWAP2 PUSH1 0x0 JUMPDEST DUP3 DUP2 LT PUSH2 0x1350 JUMPI POP POP POP POP SWAP1 JUMP JUMPDEST DUP4 MLOAD DUP6 MSTORE SWAP4 DUP2 ADD SWAP4 SWAP3 DUP2 ADD SWAP3 PUSH1 0x1 ADD PUSH2 0x1342 JUMP JUMPDEST CALLVALUE PUSH2 0x3D1 JUMPI PUSH1 0x0 CALLDATASIZE PUSH1 0x3 NOT ADD SLT PUSH2 0x3D1 JUMPI PUSH2 0x13F7 PUSH2 0x13A1 PUSH32 0x0 PUSH2 0x2B7E JUMP JUMPDEST PUSH2 0x389 PUSH2 0x13CD PUSH32 0x0 PUSH2 0x2C75 JUMP JUMPDEST PUSH2 0x1405 PUSH2 0x13D8 PUSH2 0x2B66 JUMP JUMPDEST SWAP2 PUSH1 0x40 MLOAD SWAP6 DUP7 SWAP6 PUSH1 0xF PUSH1 0xF8 SHL DUP8 MSTORE PUSH1 0xE0 PUSH1 0x20 DUP9 ADD MSTORE PUSH1 0xE0 DUP8 ADD SWAP1 PUSH2 0x7B5 JUMP JUMPDEST SWAP1 DUP6 DUP3 SUB PUSH1 0x40 DUP8 ADD MSTORE PUSH2 0x7B5 JUMP JUMPDEST SWAP1 CHAINID PUSH1 0x60 DUP6 ADD MSTORE ADDRESS PUSH1 0x80 DUP6 ADD MSTORE PUSH1 0x0 PUSH1 0xA0 DUP6 ADD MSTORE DUP4 DUP3 SUB PUSH1 0xC0 DUP6 ADD MSTORE PUSH2 0x1330 JUMP JUMPDEST CALLVALUE PUSH2 0x3D1 JUMPI PUSH1 0x0 CALLDATASIZE PUSH1 0x3 NOT ADD SLT PUSH2 0x3D1 JUMPI PUSH1 0x20 PUSH2 0x1441 PUSH2 0x22B6 JUMP JUMPDEST PUSH6 0xFFFFFFFFFFFF PUSH1 0x40 MLOAD SWAP2 AND DUP2 MSTORE RETURN JUMPDEST CALLVALUE PUSH2 0x3D1 JUMPI PUSH1 0x0 CALLDATASIZE PUSH1 0x3 NOT ADD SLT PUSH2 0x3D1 JUMPI PUSH1 0x20 PUSH1 0x40 MLOAD PUSH1 0x64 DUP2 MSTORE RETURN JUMPDEST CALLVALUE PUSH2 0x3D1 JUMPI PUSH1 0x0 CALLDATASIZE PUSH1 0x3 NOT ADD SLT PUSH2 0x3D1 JUMPI PUSH1 0x40 MLOAD PUSH32 0x0 PUSH1 0x1 PUSH1 0x1 PUSH1 0xA0 SHL SUB AND DUP2 MSTORE PUSH1 0x20 SWAP1 RETURN JUMPDEST CALLVALUE PUSH2 0x3D1 JUMPI PUSH1 0x60 CALLDATASIZE PUSH1 0x3 NOT ADD SLT PUSH2 0x3D1 JUMPI PUSH2 0x14CB PUSH2 0x903 JUMP JUMPDEST PUSH1 0x44 CALLDATALOAD PUSH1 0x1 PUSH1 0x1 PUSH1 0x40 SHL SUB DUP2 GT PUSH2 0x3D1 JUMPI PUSH1 0x20 SWAP2 PUSH2 0x14F0 PUSH2 0x1129 SWAP3 CALLDATASIZE SWAP1 PUSH1 0x4 ADD PUSH2 0x591 JUMP JUMPDEST POP PUSH1 0x24 CALLDATALOAD SWAP1 PUSH2 0x36E9 JUMP JUMPDEST CALLVALUE PUSH2 0x3D1 JUMPI PUSH1 0x0 CALLDATASIZE PUSH1 0x3 NOT ADD SLT PUSH2 0x3D1 JUMPI PUSH1 0x20 PUSH2 0x1129 PUSH2 0x2467 JUMP JUMPDEST CALLVALUE PUSH2 0x3D1 JUMPI PUSH1 0x0 CALLDATASIZE PUSH1 0x3 NOT ADD SLT PUSH2 0x3D1 JUMPI PUSH1 0x20 PUSH1 0x40 MLOAD PUSH1 0x0 DUP2 MSTORE RETURN JUMPDEST CALLVALUE PUSH2 0x3D1 JUMPI PUSH1 0xA0 CALLDATASIZE PUSH1 0x3 NOT ADD SLT PUSH2 0x3D1 JUMPI PUSH2 0x154A PUSH2 0x903 JUMP JUMPDEST POP PUSH2 0x1553 PUSH2 0x919 JUMP JUMPDEST POP PUSH1 0x1 PUSH1 0x1 PUSH1 0x40 SHL SUB PUSH1 0x44 CALLDATALOAD DUP2 DUP2 GT PUSH2 0x3D1 JUMPI PUSH2 0x1574 SWAP1 CALLDATASIZE SWAP1 PUSH1 0x4 ADD PUSH2 0xA97 JUMP JUMPDEST POP PUSH1 0x64 CALLDATALOAD DUP2 DUP2 GT PUSH2 0x3D1 JUMPI PUSH2 0x158D SWAP1 CALLDATASIZE SWAP1 PUSH1 0x4 ADD PUSH2 0xA97 JUMP JUMPDEST POP PUSH1 0x84 CALLDATALOAD SWAP1 DUP2 GT PUSH2 0x3D1 JUMPI PUSH2 0x15A6 SWAP1 CALLDATASIZE SWAP1 PUSH1 0x4 ADD PUSH2 0x591 JUMP JUMPDEST POP PUSH1 0x40 MLOAD PUSH4 0xBC197C81 PUSH1 0xE0 SHL DUP2 MSTORE PUSH1 0x20 SWAP1 RETURN JUMPDEST CALLVALUE PUSH2 0x3D1 JUMPI PUSH1 0x20 CALLDATASIZE PUSH1 0x3 NOT ADD SLT PUSH2 0x3D1 JUMPI PUSH1 0x4 CALLDATALOAD PUSH1 0x0 MSTORE PUSH1 0x3 PUSH1 0x20 MSTORE PUSH1 0x20 PUSH1 0x1 PUSH1 0x1 PUSH1 0x40 SHL SUB PUSH1 0x1 PUSH1 0x40 PUSH1 0x0 KECCAK256 ADD SLOAD AND PUSH1 0x40 MLOAD SWAP1 DUP2 MSTORE RETURN JUMPDEST PUSH1 0x60 CALLDATASIZE PUSH1 0x3 NOT ADD SLT PUSH2 0x3D1 JUMPI PUSH2 0x1605 PUSH2 0x903 JUMP JUMPDEST PUSH1 0x44 CALLDATALOAD SWAP1 PUSH1 0x1 PUSH1 0x1 PUSH1 0x40 SHL SUB DUP3 GT PUSH2 0x3D1 JUMPI PUSH1 0x0 DUP1 SWAP2 PUSH2 0x162C PUSH2 0x19 SWAP5 CALLDATASIZE SWAP1 PUSH1 0x4 ADD PUSH2 0x414 JUMP JUMPDEST SWAP1 PUSH2 0x1638 ADDRESS CALLER EQ PUSH2 0x208F JUMP JUMPDEST DUP2 PUSH1 0x40 MLOAD SWAP3 DUP4 SWAP3 DUP4 CALLDATACOPY DUP2 ADD DUP5 DUP2 MSTORE SUB SWAP2 PUSH1 0x24 CALLDATALOAD SWAP1 GAS CALL PUSH2 0x1656 PUSH2 0x20DB JUMP JUMPDEST PUSH1 0x40 MLOAD SWAP2 PUSH2 0x1663 DUP4 PUSH2 0x4AD JUMP JUMPDEST PUSH1 0x28 DUP4 MSTORE PUSH32 0x476F7665726E6F723A2072656C617920726576657274656420776974686F7574 PUSH1 0x20 DUP5 ADD MSTORE PUSH8 0x206D657373616765 PUSH1 0xC0 SHL PUSH1 0x40 DUP5 ADD MSTORE PUSH2 0x26F7 JUMP JUMPDEST CALLVALUE PUSH2 0x3D1 JUMPI PUSH1 0x20 PUSH2 0x1129 PUSH2 0x16B6 CALLDATASIZE PUSH2 0xB75 JUMP JUMPDEST SWAP3 SWAP2 SWAP1 SWAP2 PUSH2 0x1D1B JUMP JUMPDEST CALLVALUE PUSH2 0x3D1 JUMPI PUSH1 0x60 CALLDATASIZE PUSH1 0x3 NOT ADD SLT PUSH2 0x3D1 JUMPI PUSH1 0x4 CALLDATALOAD PUSH1 0x24 CALLDATALOAD PUSH1 0x1 PUSH1 0x1 PUSH1 0x40 SHL SUB DUP2 GT PUSH2 0x3D1 JUMPI PUSH2 0x16F2 SWAP1 CALLDATASIZE SWAP1 PUSH1 0x4 ADD PUSH2 0x414 JUMP JUMPDEST SWAP1 SWAP2 PUSH1 0x44 CALLDATALOAD SWAP1 PUSH1 0x4 DUP3 LT ISZERO PUSH2 0x3D1 JUMPI PUSH1 0x40 MLOAD PUSH4 0x70A08231 PUSH1 0xE0 SHL DUP2 MSTORE CALLER PUSH1 0x4 DUP3 ADD MSTORE SWAP3 PUSH1 0x20 DUP5 PUSH1 0x24 DUP2 PUSH1 0x1 PUSH1 0x1 PUSH1 0xA0 SHL SUB PUSH32 0x0 AND GAS STATICCALL SWAP1 DUP2 ISZERO PUSH2 0x18D5 JUMPI PUSH2 0x389 SWAP6 PUSH4 0xFFFFFFFF SWAP6 PUSH32 0xE83F5655E3BE48B8E6C02E6ED148DF38C5A083495EFE6B497887555B70B80F40 SWAP4 PUSH2 0x18A7 JUMPI JUMPDEST POP PUSH2 0x1857 PUSH2 0x184B PUSH2 0x1842 PUSH2 0x17B0 PUSH2 0x1794 PUSH2 0x2B66 JUMP JUMPDEST PUSH2 0x179C PUSH2 0x2B66 JUMP JUMPDEST PUSH2 0x17A4 PUSH2 0x2FE3 JUMP JUMPDEST SWAP1 PUSH2 0x132A CALLDATASIZE DUP11 DUP11 PUSH2 0x55A JUMP JUMPDEST SWAP9 DUP10 SWAP9 PUSH2 0x17BC DUP2 PUSH2 0x99A JUMP JUMPDEST PUSH1 0x3 DUP2 SUB PUSH2 0x186A JUMPI PUSH2 0x1825 PUSH1 0xA SWAP2 PUSH2 0x1800 PUSH1 0x1 PUSH2 0x17F3 DUP6 JUMPDEST PUSH2 0x17E6 PUSH2 0x17DF PUSH2 0x513 JUMP JUMPDEST SWAP6 DUP7 PUSH2 0x2FF6 JUMP JUMPDEST PUSH4 0xFFFFFFFF AND PUSH1 0x20 DUP6 ADD MSTORE JUMP JUMPDEST PUSH4 0xFFFFFFFF AND PUSH1 0x40 DUP4 ADD MSTORE JUMP JUMPDEST PUSH4 0xFFFFFFFF DUP4 AND PUSH1 0x60 DUP3 ADD MSTORE PUSH2 0x1820 DUP13 PUSH1 0x0 MSTORE PUSH1 0xC PUSH1 0x20 MSTORE PUSH1 0x40 PUSH1 0x0 KECCAK256 SWAP1 JUMP JUMPDEST PUSH2 0x3002 JUMP JUMPDEST DUP10 PUSH2 0x183A DUP11 PUSH1 0x0 MSTORE PUSH1 0xD PUSH1 0x20 MSTORE PUSH1 0x40 PUSH1 0x0 KECCAK256 SWAP1 JUMP JUMPDEST SSTORE AND TIMESTAMP PUSH2 0x2175 JUMP JUMPDEST PUSH4 0xFFFFFFFF AND SWAP1 JUMP JUMPDEST PUSH1 0x40 MLOAD SWAP4 DUP5 SWAP4 DUP5 PUSH2 0x307A JUMP JUMPDEST SUB SWAP1 LOG3 PUSH1 0x40 MLOAD SWAP1 DUP2 MSTORE SWAP1 DUP2 SWAP1 PUSH1 0x20 DUP3 ADD SWAP1 JUMP JUMPDEST PUSH2 0x1873 DUP2 PUSH2 0x99A JUMP JUMPDEST PUSH1 0x1 DUP2 SUB PUSH2 0x1891 JUMPI PUSH2 0x1825 PUSH1 0x1E SWAP2 PUSH2 0x1800 PUSH1 0x5 PUSH2 0x17F3 PUSH1 0x14 SWAP6 PUSH2 0x17D4 JUMP JUMPDEST PUSH2 0x1825 PUSH1 0x14 SWAP2 PUSH2 0x1800 PUSH1 0x3 PUSH2 0x17F3 PUSH1 0xF SWAP6 PUSH2 0x17D4 JUMP JUMPDEST PUSH2 0x18C7 SWAP1 PUSH1 0x20 RETURNDATASIZE DUP2 GT PUSH2 0x18CE JUMPI JUMPDEST PUSH2 0x18BF DUP2 DUP4 PUSH2 0x4E3 JUMP JUMPDEST DUP2 ADD SWAP1 PUSH2 0x2FD4 JUMP JUMPDEST POP CODESIZE PUSH2 0x177F JUMP JUMPDEST POP RETURNDATASIZE PUSH2 0x18B5 JUMP JUMPDEST PUSH2 0x22AA JUMP JUMPDEST CALLVALUE PUSH2 0x3D1 JUMPI PUSH1 0x0 CALLDATASIZE PUSH1 0x3 NOT ADD SLT PUSH2 0x3D1 JUMPI PUSH2 0x389 PUSH1 0x40 MLOAD PUSH2 0x18FA DUP2 PUSH2 0x477 JUMP JUMPDEST PUSH1 0x20 DUP2 MSTORE PUSH32 0x737570706F72743D627261766F2671756F72756D3D666F722C6162737461696E PUSH1 0x20 DUP3 ADD MSTORE PUSH1 0x40 MLOAD SWAP2 DUP3 SWAP2 PUSH1 0x20 DUP4 MSTORE PUSH1 0x20 DUP4 ADD SWAP1 PUSH2 0x7B5 JUMP JUMPDEST CALLVALUE PUSH2 0x3D1 JUMPI PUSH1 0x0 CALLDATASIZE PUSH1 0x3 NOT ADD SLT PUSH2 0x3D1 JUMPI PUSH1 0x20 PUSH1 0x40 MLOAD PUSH32 0x150214D74D59B7D1E90C73FC22EF3D991DD0A76B046543D4D80AB92D2A50328F DUP2 MSTORE RETURN JUMPDEST CALLVALUE PUSH2 0x3D1 JUMPI PUSH1 0x20 CALLDATASIZE PUSH1 0x3 NOT ADD SLT PUSH2 0x3D1 JUMPI PUSH1 0x4 CALLDATALOAD PUSH2 0x1992 ADDRESS CALLER EQ PUSH2 0x208F JUMP JUMPDEST DUP1 ISZERO PUSH2 0x19D1 JUMPI PUSH1 0x7 SLOAD PUSH1 0x40 DUP1 MLOAD SWAP2 DUP3 MSTORE PUSH1 0x20 DUP3 ADD DUP4 SWAP1 MSTORE PUSH32 0x7E3F7F0708A84DE9203036ABAA450DCCC85AD5FF52F78C170F3EDB55CF5E8828 SWAP2 LOG1 PUSH1 0x7 SSTORE STOP JUMPDEST PUSH1 0x40 MLOAD PUSH3 0x461BCD PUSH1 0xE5 SHL DUP2 MSTORE PUSH1 0x20 PUSH1 0x4 DUP3 ADD MSTORE PUSH1 0x27 PUSH1 0x24 DUP3 ADD MSTORE PUSH32 0x476F7665726E6F7253657474696E67733A20766F74696E6720706572696F6420 PUSH1 0x44 DUP3 ADD MSTORE PUSH7 0x746F6F206C6F77 PUSH1 0xC8 SHL PUSH1 0x64 DUP3 ADD MSTORE PUSH1 0x84 SWAP1 REVERT JUMPDEST CALLVALUE PUSH2 0x3D1 JUMPI PUSH1 0x40 CALLDATASIZE PUSH1 0x3 NOT ADD SLT PUSH2 0x3D1 JUMPI PUSH1 0x20 PUSH2 0x1129 PUSH2 0x1A44 PUSH2 0x903 JUMP JUMPDEST PUSH1 0x0 PUSH1 0x40 MLOAD PUSH2 0x1A52 DUP2 PUSH2 0x492 JUMP JUMPDEST MSTORE PUSH1 0x24 CALLDATALOAD SWAP1 PUSH2 0x36E9 JUMP JUMPDEST CALLVALUE PUSH2 0x3D1 JUMPI PUSH1 0x20 CALLDATASIZE PUSH1 0x3 NOT ADD SLT PUSH2 0x3D1 JUMPI PUSH1 0x4 CALLDATALOAD PUSH2 0x1A7B ADDRESS CALLER EQ PUSH2 0x208F JUMP JUMPDEST PUSH1 0x8 SLOAD PUSH1 0x40 DUP1 MLOAD SWAP2 DUP3 MSTORE PUSH1 0x20 DUP3 ADD DUP4 SWAP1 MSTORE PUSH32 0xCCB45DA8D5717E6C4544694297C4BA5CF151D455C9BB0ED4FC7A38411BC05461 SWAP2 LOG1 PUSH1 0x8 SSTORE STOP JUMPDEST CALLVALUE PUSH2 0x3D1 JUMPI PUSH1 0xA0 CALLDATASIZE PUSH1 0x3 NOT ADD SLT PUSH2 0x3D1 JUMPI PUSH2 0x1ACD PUSH2 0x903 JUMP JUMPDEST POP PUSH2 0x1AD6 PUSH2 0x919 JUMP JUMPDEST POP PUSH1 0x84 CALLDATALOAD PUSH1 0x1 PUSH1 0x1 PUSH1 0x40 SHL SUB DUP2 GT PUSH2 0x3D1 JUMPI PUSH2 0x1AF6 SWAP1 CALLDATASIZE SWAP1 PUSH1 0x4 ADD PUSH2 0x591 JUMP JUMPDEST POP PUSH1 0x40 MLOAD PUSH4 0xF23A6E61 PUSH1 0xE0 SHL DUP2 MSTORE PUSH1 0x20 SWAP1 RETURN JUMPDEST CALLVALUE PUSH2 0x3D1 JUMPI PUSH1 0x0 CALLDATASIZE PUSH1 0x3 NOT ADD SLT PUSH2 0x3D1 JUMPI PUSH1 0x40 MLOAD PUSH32 0x0 PUSH1 0x1 PUSH1 0x1 PUSH1 0xA0 SHL SUB AND DUP2 MSTORE PUSH1 0x20 SWAP1 RETURN JUMPDEST CALLVALUE PUSH2 0x3D1 JUMPI PUSH1 0x20 CALLDATASIZE PUSH1 0x3 NOT ADD SLT PUSH2 0x3D1 JUMPI PUSH1 0x40 MLOAD PUSH4 0x2394E7A3 PUSH1 0xE2 SHL DUP2 MSTORE PUSH1 0x4 DUP1 CALLDATALOAD SWAP1 DUP3 ADD DUP2 SWAP1 MSTORE PUSH1 0x20 DUP3 PUSH1 0x24 DUP2 PUSH32 0x0 PUSH1 0x1 PUSH1 0x1 PUSH1 0xA0 SHL SUB AND GAS STATICCALL SWAP2 DUP3 ISZERO PUSH2 0x18D5 JUMPI PUSH1 0x0 SWAP3 PUSH2 0x1BE6 JUMPI JUMPDEST POP PUSH2 0x1BC1 SWAP1 PUSH2 0x2502 JUMP JUMPDEST SWAP1 DUP2 DUP2 MUL SWAP2 DUP2 DUP4 DIV EQ SWAP1 ISZERO OR ISZERO PUSH2 0x1BE1 JUMPI PUSH1 0x40 MLOAD PUSH1 0x64 SWAP1 SWAP2 DIV DUP2 MSTORE PUSH1 0x20 SWAP1 RETURN JUMPDEST PUSH2 0x1DD6 JUMP JUMPDEST PUSH2 0x1BC1 SWAP2 SWAP3 POP PUSH2 0x1C03 SWAP1 PUSH1 0x20 RETURNDATASIZE DUP2 GT PUSH2 0x18CE JUMPI PUSH2 0x18BF DUP2 DUP4 PUSH2 0x4E3 JUMP JUMPDEST SWAP2 SWAP1 PUSH2 0x1BB7 JUMP JUMPDEST CALLVALUE PUSH2 0x3D1 JUMPI PUSH1 0x0 CALLDATASIZE PUSH1 0x3 NOT ADD SLT PUSH2 0x3D1 JUMPI PUSH1 0x40 MLOAD PUSH32 0x0 PUSH1 0x1 PUSH1 0x1 PUSH1 0xA0 SHL SUB AND DUP2 MSTORE PUSH1 0x20 SWAP1 RETURN JUMPDEST SWAP1 PUSH1 0x1 DUP3 DUP2 SHR SWAP3 AND DUP1 ISZERO PUSH2 0x1C7F JUMPI JUMPDEST PUSH1 0x20 DUP4 LT EQ PUSH2 0x1C69 JUMPI JUMP JUMPDEST PUSH4 0x4E487B71 PUSH1 0xE0 SHL PUSH1 0x0 MSTORE PUSH1 0x22 PUSH1 0x4 MSTORE PUSH1 0x24 PUSH1 0x0 REVERT JUMPDEST SWAP2 PUSH1 0x7F AND SWAP2 PUSH2 0x1C5E JUMP JUMPDEST SWAP1 DUP2 MLOAD DUP1 DUP3 MSTORE PUSH1 0x20 DUP1 DUP1 SWAP4 ADD SWAP4 ADD SWAP2 PUSH1 0x0 JUMPDEST DUP3 DUP2 LT PUSH2 0x1CA9 JUMPI POP POP POP POP SWAP1 JUMP JUMPDEST DUP4 MLOAD PUSH1 0x1 PUSH1 0x1 PUSH1 0xA0 SHL SUB AND DUP6 MSTORE SWAP4 DUP2 ADD SWAP4 SWAP3 DUP2 ADD SWAP3 PUSH1 0x1 ADD PUSH2 0x1C9B JUMP JUMPDEST SWAP1 DUP2 MLOAD DUP1 DUP3 MSTORE PUSH1 0x20 DUP1 SWAP3 ADD SWAP2 DUP3 DUP2 DUP4 PUSH1 0x5 SHL DUP6 ADD SWAP6 ADD SWAP4 PUSH1 0x0 SWAP2 JUMPDEST DUP5 DUP4 LT PUSH2 0x1CF1 JUMPI POP POP POP POP POP POP SWAP1 JUMP JUMPDEST SWAP1 SWAP2 SWAP3 SWAP4 SWAP5 SWAP6 DUP5 DUP1 PUSH2 0x1D0B DUP4 DUP6 PUSH1 0x1 SWAP6 SUB DUP8 MSTORE DUP11 MLOAD PUSH2 0x7B5 JUMP JUMPDEST SWAP9 ADD SWAP4 ADD SWAP4 ADD SWAP2 SWAP5 SWAP4 SWAP3 SWAP1 PUSH2 0x1CE1 JUMP JUMPDEST SWAP3 SWAP1 PUSH2 0x1D67 SWAP3 PUSH2 0x1D79 SWAP3 PUSH1 0x40 MLOAD SWAP5 DUP6 SWAP3 PUSH2 0x1D57 PUSH2 0x1D44 PUSH1 0x20 DUP7 ADD SWAP10 PUSH1 0x80 DUP12 MSTORE PUSH1 0xA0 DUP8 ADD SWAP1 PUSH2 0x1C89 JUMP JUMPDEST PUSH1 0x1F NOT SWAP7 DUP8 DUP8 DUP4 SUB ADD PUSH1 0x40 DUP9 ADD MSTORE PUSH2 0x1330 JUMP JUMPDEST SWAP1 DUP6 DUP6 DUP4 SUB ADD PUSH1 0x60 DUP7 ADD MSTORE PUSH2 0x1CC6 JUMP JUMPDEST SWAP1 PUSH1 0x80 DUP4 ADD MSTORE SUB SWAP1 DUP2 ADD DUP4 MSTORE DUP3 PUSH2 0x4E3 JUMP JUMPDEST MLOAD SWAP1 KECCAK256 SWAP1 JUMP JUMPDEST ISZERO PUSH2 0x1D86 JUMPI JUMP JUMPDEST PUSH1 0x40 MLOAD PUSH3 0x461BCD PUSH1 0xE5 SHL DUP2 MSTORE PUSH1 0x20 PUSH1 0x4 DUP3 ADD MSTORE PUSH1 0x22 PUSH1 0x24 DUP3 ADD MSTORE PUSH32 0x476F7665726E6F723A206F6E6C792070726F706F7365722063616E2063616E63 PUSH1 0x44 DUP3 ADD MSTORE PUSH2 0x195B PUSH1 0xF2 SHL PUSH1 0x64 DUP3 ADD MSTORE PUSH1 0x84 SWAP1 REVERT JUMPDEST PUSH4 0x4E487B71 PUSH1 0xE0 SHL PUSH1 0x0 MSTORE PUSH1 0x11 PUSH1 0x4 MSTORE PUSH1 0x24 PUSH1 0x0 REVERT JUMPDEST PUSH1 0x0 NOT DUP2 EQ PUSH2 0x1BE1 JUMPI PUSH1 0x1 ADD SWAP1 JUMP JUMPDEST PUSH4 0x4E487B71 PUSH1 0xE0 SHL PUSH1 0x0 MSTORE PUSH1 0x32 PUSH1 0x4 MSTORE PUSH1 0x24 PUSH1 0x0 REVERT JUMPDEST DUP1 MLOAD DUP3 LT ISZERO PUSH2 0x1E25 JUMPI PUSH1 0x20 SWAP2 PUSH1 0x5 SHL ADD ADD SWAP1 JUMP JUMPDEST PUSH2 0x1DFB JUMP JUMPDEST SWAP1 PUSH2 0x5AC SWAP2 PUSH1 0x0 PUSH1 0x40 MLOAD PUSH2 0x1E3D DUP2 PUSH2 0x492 JUMP JUMPDEST MSTORE PUSH2 0x36E9 JUMP JUMPDEST SWAP5 SWAP3 PUSH2 0x1ED0 PUSH2 0x5AC SWAP9 PUSH2 0x1ED8 SWAP5 SWAP4 SWAP7 SWAP9 PUSH2 0x1283 SWAP7 PUSH2 0xEB8 DUP11 DUP11 DUP14 PUSH2 0x1E68 CALLDATASIZE DUP11 DUP13 PUSH2 0x55A JUMP JUMPDEST PUSH1 0x20 DUP2 MLOAD SWAP2 ADD KECCAK256 SWAP1 PUSH1 0x20 DUP2 MLOAD SWAP2 ADD KECCAK256 SWAP1 PUSH1 0xFF PUSH1 0x40 MLOAD SWAP4 PUSH1 0x20 DUP6 ADD SWAP6 PUSH32 0xB3B3F3B703CD84CE352197DCFF232B1B5D3CFB2025CE47CF04742D0651F1AF88 DUP8 MSTORE PUSH1 0x40 DUP7 ADD MSTORE AND PUSH1 0x60 DUP5 ADD MSTORE PUSH1 0x80 DUP4 ADD MSTORE PUSH1 0xA0 DUP3 ADD MSTORE PUSH1 0xA0 DUP2 MSTORE PUSH2 0x1EC8 DUP2 PUSH2 0x4C8 JUMP JUMPDEST MLOAD SWAP1 KECCAK256 PUSH2 0x2A2C JUMP JUMPDEST SWAP5 SWAP1 SWAP5 PUSH2 0x288A JUMP JUMPDEST SWAP3 PUSH2 0x1F5A JUMP JUMPDEST SWAP2 PUSH2 0x5AC SWAP4 SWAP2 PUSH1 0x40 MLOAD SWAP4 PUSH2 0x1EF1 DUP6 PUSH2 0x492 JUMP JUMPDEST PUSH1 0x0 DUP6 MSTORE PUSH2 0x1F5A JUMP JUMPDEST SWAP4 SWAP1 SWAP3 PUSH1 0xFF PUSH2 0x1F26 SWAP4 PUSH2 0x5AC SWAP8 SWAP6 DUP8 MSTORE AND PUSH1 0x20 DUP7 ADD MSTORE PUSH1 0x40 DUP6 ADD MSTORE PUSH1 0xA0 PUSH1 0x60 DUP6 ADD MSTORE PUSH1 0xA0 DUP5 ADD SWAP1 PUSH2 0x7B5 JUMP JUMPDEST SWAP2 PUSH1 0x80 DUP2 DUP5 SUB SWAP2 ADD MSTORE PUSH2 0x7B5 JUMP JUMPDEST SWAP1 SWAP3 PUSH1 0xFF PUSH1 0x80 SWAP4 PUSH2 0x5AC SWAP7 SWAP6 DUP5 MSTORE AND PUSH1 0x20 DUP4 ADD MSTORE PUSH1 0x40 DUP3 ADD MSTORE DUP2 PUSH1 0x60 DUP3 ADD MSTORE ADD SWAP1 PUSH2 0x7B5 JUMP JUMPDEST SWAP3 SWAP2 SWAP1 DUP4 PUSH1 0x0 MSTORE PUSH1 0x3 PUSH1 0x20 MSTORE PUSH1 0x40 PUSH1 0x0 KECCAK256 PUSH1 0x1 PUSH2 0x1F76 DUP7 PUSH2 0x37AB JUMP JUMPDEST PUSH2 0x1F7F DUP2 PUSH2 0xEDB JUMP JUMPDEST SUB PUSH2 0x203E JUMPI PUSH2 0x1FA7 PUSH2 0x1F9B PUSH2 0x1FAD SWAP3 SLOAD PUSH1 0x1 PUSH1 0x1 PUSH1 0x40 SHL SUB AND SWAP1 JUMP JUMPDEST PUSH1 0x1 PUSH1 0x1 PUSH1 0x40 SHL SUB AND SWAP1 JUMP JUMPDEST DUP3 PUSH2 0x36E9 JUMP JUMPDEST SWAP5 PUSH2 0x1FBA DUP7 DUP5 DUP5 DUP9 PUSH2 0x2182 JUMP JUMPDEST DUP1 MLOAD PUSH2 0x2002 JUMPI POP PUSH2 0x1FFC PUSH32 0xB8E138887D0AA13BAB447E82DE9D5C1777041ECD21CA36BA824FF1E6C07DDDA4 SWAP4 DUP7 PUSH1 0x40 MLOAD SWAP5 DUP6 SWAP5 PUSH1 0x1 DUP1 PUSH1 0xA0 SHL SUB AND SWAP8 DUP6 PUSH2 0x1F34 JUMP JUMPDEST SUB SWAP1 LOG2 SWAP1 JUMP JUMPDEST PUSH2 0x1FFC SWAP1 PUSH32 0xE2BABFBAC5889A709B63BB7F598B324E08BC5A4FB9EC647FB3CBC9EC07EB8712 SWAP5 DUP8 PUSH1 0x40 MLOAD SWAP6 DUP7 SWAP6 PUSH1 0x1 DUP1 PUSH1 0xA0 SHL SUB AND SWAP9 DUP7 PUSH2 0x1EFA JUMP JUMPDEST PUSH1 0x40 MLOAD PUSH3 0x461BCD PUSH1 0xE5 SHL DUP2 MSTORE PUSH1 0x20 PUSH1 0x4 DUP3 ADD MSTORE PUSH1 0x23 PUSH1 0x24 DUP3 ADD MSTORE PUSH32 0x476F7665726E6F723A20766F7465206E6F742063757272656E746C7920616374 PUSH1 0x44 DUP3 ADD MSTORE PUSH3 0x697665 PUSH1 0xE8 SHL PUSH1 0x64 DUP3 ADD MSTORE PUSH1 0x84 SWAP1 REVERT JUMPDEST ISZERO PUSH2 0x2096 JUMPI JUMP JUMPDEST PUSH1 0x40 MLOAD PUSH3 0x461BCD PUSH1 0xE5 SHL DUP2 MSTORE PUSH1 0x20 PUSH1 0x4 DUP3 ADD MSTORE PUSH1 0x18 PUSH1 0x24 DUP3 ADD MSTORE PUSH32 0x476F7665726E6F723A206F6E6C79476F7665726E616E63650000000000000000 PUSH1 0x44 DUP3 ADD MSTORE PUSH1 0x64 SWAP1 REVERT JUMPDEST RETURNDATASIZE ISZERO PUSH2 0x2106 JUMPI RETURNDATASIZE SWAP1 PUSH2 0x20EC DUP3 PUSH2 0x53F JUMP JUMPDEST SWAP2 PUSH2 0x20FA PUSH1 0x40 MLOAD SWAP4 DUP5 PUSH2 0x4E3 JUMP JUMPDEST DUP3 MSTORE RETURNDATASIZE PUSH1 0x0 PUSH1 0x20 DUP5 ADD RETURNDATACOPY JUMP JUMPDEST PUSH1 0x60 SWAP1 JUMP JUMPDEST ISZERO PUSH2 0x2112 JUMPI JUMP JUMPDEST PUSH1 0x40 MLOAD PUSH3 0x461BCD PUSH1 0xE5 SHL DUP2 MSTORE PUSH1 0x20 PUSH1 0x4 DUP3 ADD MSTORE PUSH1 0x27 PUSH1 0x24 DUP3 ADD MSTORE PUSH32 0x476F7665726E6F72566F74696E6753696D706C653A20766F746520616C726561 PUSH1 0x44 DUP3 ADD MSTORE PUSH7 0x191E4818D85CDD PUSH1 0xCA SHL PUSH1 0x64 DUP3 ADD MSTORE PUSH1 0x84 SWAP1 REVERT JUMPDEST SWAP1 PUSH1 0x1 DUP3 ADD DUP1 SWAP3 GT PUSH2 0x1BE1 JUMPI JUMP JUMPDEST SWAP2 SWAP1 DUP3 ADD DUP1 SWAP3 GT PUSH2 0x1BE1 JUMPI JUMP JUMPDEST SWAP2 PUSH2 0x21FE PUSH2 0x21F1 PUSH2 0x21A0 PUSH1 0xFF SWAP5 SWAP6 PUSH1 0x0 MSTORE PUSH1 0x9 PUSH1 0x20 MSTORE PUSH1 0x40 PUSH1 0x0 KECCAK256 SWAP1 JUMP JUMPDEST SWAP5 PUSH1 0x3 DUP7 ADD PUSH2 0x21DA PUSH2 0x21D5 PUSH2 0x21D1 PUSH2 0x21CA DUP6 DUP6 SWAP1 PUSH1 0x1 DUP1 PUSH1 0xA0 SHL SUB AND PUSH1 0x0 MSTORE PUSH1 0x20 MSTORE PUSH1 0x40 PUSH1 0x0 KECCAK256 SWAP1 JUMP JUMPDEST SLOAD PUSH1 0xFF AND SWAP1 JUMP JUMPDEST ISZERO SWAP1 JUMP JUMPDEST PUSH2 0x210B JUMP JUMPDEST SWAP1 PUSH1 0x1 DUP1 PUSH1 0xA0 SHL SUB AND PUSH1 0x0 MSTORE PUSH1 0x20 MSTORE PUSH1 0x40 PUSH1 0x0 KECCAK256 SWAP1 JUMP JUMPDEST DUP1 SLOAD PUSH1 0xFF NOT AND PUSH1 0x1 OR SWAP1 SSTORE JUMP JUMPDEST AND DUP1 PUSH2 0x2215 JUMPI POP SWAP1 PUSH2 0x2211 SWAP1 DUP3 SLOAD PUSH2 0x2175 JUMP JUMPDEST SWAP1 SSTORE JUMP JUMPDEST PUSH1 0x1 DUP2 SUB PUSH2 0x222D JUMPI POP PUSH1 0x1 PUSH2 0x2211 SWAP2 ADD SWAP2 DUP3 SLOAD PUSH2 0x2175 JUMP JUMPDEST PUSH1 0x2 SUB PUSH2 0x2243 JUMPI PUSH1 0x2 PUSH2 0x2211 SWAP2 ADD SWAP2 DUP3 SLOAD PUSH2 0x2175 JUMP JUMPDEST PUSH1 0x40 MLOAD PUSH3 0x461BCD PUSH1 0xE5 SHL DUP2 MSTORE PUSH1 0x20 PUSH1 0x4 DUP3 ADD MSTORE PUSH1 0x35 PUSH1 0x24 DUP3 ADD MSTORE PUSH32 0x476F7665726E6F72566F74696E6753696D706C653A20696E76616C6964207661 PUSH1 0x44 DUP3 ADD MSTORE PUSH21 0x6C756520666F7220656E756D20566F746554797065 PUSH1 0x58 SHL PUSH1 0x64 DUP3 ADD MSTORE PUSH1 0x84 SWAP1 REVERT JUMPDEST SUB SWAP1 REVERT JUMPDEST PUSH1 0x40 MLOAD RETURNDATASIZE PUSH1 0x0 DUP3 RETURNDATACOPY RETURNDATASIZE SWAP1 REVERT JUMPDEST PUSH1 0x40 MLOAD PUSH4 0x24776B7D PUSH1 0xE2 SHL DUP2 MSTORE PUSH1 0x20 DUP2 PUSH1 0x4 DUP2 PUSH32 0x0 PUSH1 0x1 PUSH1 0x1 PUSH1 0xA0 SHL SUB AND GAS STATICCALL DUP1 SWAP2 PUSH1 0x0 SWAP2 PUSH2 0x230F JUMPI JUMPDEST POP SWAP1 PUSH2 0x5AC JUMPI POP PUSH2 0x5AC NUMBER PUSH2 0x2F08 JUMP JUMPDEST PUSH1 0x20 DUP2 RETURNDATASIZE DUP3 GT PUSH2 0x234B JUMPI JUMPDEST DUP2 PUSH2 0x2327 PUSH1 0x20 SWAP4 DUP4 PUSH2 0x4E3 JUMP JUMPDEST DUP2 ADD SUB SLT PUSH2 0x2347 JUMPI MLOAD SWAP1 PUSH6 0xFFFFFFFFFFFF DUP3 AND DUP3 SUB PUSH2 0x8C9 JUMPI POP CODESIZE PUSH2 0x22FF JUMP JUMPDEST POP DUP1 REVERT JUMPDEST RETURNDATASIZE SWAP2 POP PUSH2 0x231A JUMP JUMPDEST PUSH1 0x40 MLOAD SWAP1 PUSH2 0x2360 DUP3 PUSH2 0x477 JUMP JUMPDEST PUSH1 0x1D DUP3 MSTORE PUSH32 0x6D6F64653D626C6F636B6E756D6265722666726F6D3D64656661756C74000000 PUSH1 0x20 DUP4 ADD MSTORE JUMP JUMPDEST PUSH1 0x40 MLOAD PUSH4 0x4BF5D7E9 PUSH1 0xE0 SHL DUP2 MSTORE PUSH1 0x0 DUP1 DUP3 PUSH1 0x4 DUP2 PUSH32 0x0 PUSH1 0x1 PUSH1 0x1 PUSH1 0xA0 SHL SUB AND GAS STATICCALL SWAP1 SWAP2 DUP3 DUP3 PUSH2 0x23E4 JUMPI JUMPDEST POP POP PUSH2 0x5AC JUMPI POP PUSH2 0x5AC PUSH2 0x2353 JUMP JUMPDEST SWAP1 SWAP2 SWAP3 POP RETURNDATASIZE DUP1 DUP3 DUP5 RETURNDATACOPY PUSH2 0x23F7 DUP2 DUP5 PUSH2 0x4E3 JUMP JUMPDEST DUP3 ADD SWAP2 PUSH1 0x20 DUP2 DUP5 SUB SLT PUSH2 0x2347 JUMPI DUP1 MLOAD SWAP1 PUSH1 0x1 PUSH1 0x1 PUSH1 0x40 SHL SUB DUP3 GT PUSH2 0x2463 JUMPI ADD DUP3 PUSH1 0x1F DUP3 ADD SLT ISZERO PUSH2 0x2347 JUMPI DUP1 MLOAD SWAP2 PUSH2 0x242D DUP4 PUSH2 0x53F JUMP JUMPDEST SWAP4 PUSH2 0x243B PUSH1 0x40 MLOAD SWAP6 DUP7 PUSH2 0x4E3 JUMP JUMPDEST DUP4 DUP6 MSTORE PUSH1 0x20 DUP5 DUP5 ADD ADD GT PUSH2 0x8C9 JUMPI POP SWAP1 PUSH2 0x245B SWAP2 PUSH1 0x20 DUP1 DUP6 ADD SWAP2 ADD PUSH2 0x792 JUMP JUMPDEST SWAP1 CODESIZE DUP1 PUSH2 0x23D5 JUMP JUMPDEST DUP3 DUP1 REVERT JUMPDEST PUSH1 0xB SLOAD PUSH1 0x0 SWAP1 DUP1 PUSH2 0x247A JUMPI POP POP PUSH1 0xA SLOAD SWAP1 JUMP JUMPDEST DUP1 PUSH1 0x0 NOT DUP2 ADD GT PUSH2 0x1BE1 JUMPI PUSH1 0xB PUSH32 0x175B7A638427703F0DBE7BB9BBF987A2551717B34E79F33B5B1008D1FA01DB8 SWAP3 MSTORE ADD SLOAD PUSH1 0x20 SHR SWAP1 JUMP JUMPDEST PUSH1 0x0 NOT DUP2 ADD SWAP2 SWAP1 DUP3 GT PUSH2 0x1BE1 JUMPI JUMP JUMPDEST PUSH1 0x27 NOT DUP2 ADD SWAP2 SWAP1 DUP3 GT PUSH2 0x1BE1 JUMPI JUMP JUMPDEST SWAP1 PUSH1 0x40 MLOAD PUSH1 0x40 DUP2 ADD DUP2 DUP2 LT PUSH1 0x1 PUSH1 0x1 PUSH1 0x40 SHL SUB DUP3 GT OR PUSH2 0x472 JUMPI PUSH1 0x40 MSTORE PUSH1 0x20 DUP2 SWAP4 SLOAD PUSH4 0xFFFFFFFF DUP2 AND DUP4 MSTORE DUP2 SHR SWAP2 ADD MSTORE JUMP JUMPDEST PUSH1 0xB SWAP1 DUP2 SLOAD DUP1 ISZERO PUSH2 0x2694 JUMPI PUSH1 0x0 NOT DUP2 ADD DUP2 DUP2 GT PUSH2 0x1BE1 JUMPI DUP2 GT ISZERO PUSH2 0x1E25 JUMPI PUSH1 0x0 SWAP3 DUP1 DUP5 MSTORE PUSH2 0x2551 PUSH32 0x175B7A638427703F0DBE7BB9BBF987A2551717B34E79F33B5B1008D1FA01DB8 DUP4 ADD PUSH2 0x24D0 JUMP JUMPDEST SWAP3 PUSH4 0xFFFFFFFF SWAP4 DUP2 DUP6 DUP3 MLOAD AND GT ISZERO PUSH2 0x267E JUMPI POP PUSH2 0x256D SWAP1 PUSH2 0x2F6F JUMP JUMPDEST SWAP3 DUP5 DUP4 PUSH1 0x5 DUP2 GT PUSH2 0x262E JUMPI JUMPDEST POP SWAP3 SWAP4 SWAP2 SWAP3 SWAP2 DUP2 AND SWAP1 JUMPDEST DUP5 DUP4 LT PUSH2 0x25DA JUMPI POP POP POP POP DUP1 ISZERO PUSH1 0x0 EQ PUSH2 0x25A5 JUMPI POP JUMPDEST PUSH1 0x1 PUSH1 0x1 PUSH1 0xE0 SHL SUB AND SWAP1 JUMP JUMPDEST PUSH2 0x25D5 SWAP2 POP PUSH2 0x25B6 PUSH2 0x25CE SWAP2 PUSH2 0x24B2 JUMP JUMPDEST PUSH1 0xB PUSH1 0x0 MSTORE PUSH1 0x0 DUP1 MLOAD PUSH1 0x20 PUSH2 0x3B63 DUP4 CODECOPY DUP2 MLOAD SWAP2 MSTORE ADD SWAP1 JUMP JUMPDEST SLOAD PUSH1 0x20 SHR SWAP1 JUMP JUMPDEST PUSH2 0x2599 JUMP JUMPDEST SWAP1 SWAP2 SWAP3 SWAP4 DUP1 DUP5 AND SWAP1 DUP1 DUP6 XOR PUSH1 0x1 SHR DUP3 ADD DUP1 SWAP3 GT PUSH2 0x1BE1 JUMPI DUP6 DUP8 MSTORE DUP4 DUP4 DUP4 PUSH1 0x0 DUP1 MLOAD PUSH1 0x20 PUSH2 0x3B63 DUP4 CODECOPY DUP2 MLOAD SWAP2 MSTORE ADD SLOAD AND GT PUSH1 0x0 EQ PUSH2 0x261C JUMPI POP SWAP4 JUMPDEST SWAP3 SWAP2 SWAP1 PUSH2 0x2583 JUMP JUMPDEST SWAP5 SWAP4 POP PUSH2 0x2628 SWAP1 PUSH2 0x2167 JUMP JUMPDEST SWAP3 PUSH2 0x2614 JUMP JUMPDEST SWAP1 SWAP4 PUSH2 0x2639 DUP3 PUSH2 0x2D4D JUMP JUMPDEST DUP3 SUB SWAP2 DUP3 GT PUSH2 0x1BE1 JUMPI DUP4 DUP8 MSTORE PUSH1 0x0 DUP1 MLOAD PUSH1 0x20 PUSH2 0x3B63 DUP4 CODECOPY DUP2 MLOAD SWAP2 MSTORE DUP3 ADD SLOAD DUP4 AND DUP7 DUP5 AND LT ISZERO PUSH2 0x266D JUMPI POP DUP2 SWAP1 SWAP4 JUMPDEST SWAP1 PUSH2 0x2579 JUMP JUMPDEST SWAP4 POP PUSH2 0x2679 DUP3 SWAP2 PUSH2 0x2167 JUMP JUMPDEST PUSH2 0x2667 JUMP JUMPDEST PUSH1 0x20 ADD MLOAD PUSH1 0x1 PUSH1 0x1 PUSH1 0xE0 SHL SUB AND SWAP6 SWAP5 POP POP POP POP POP JUMP JUMPDEST POP POP POP PUSH1 0xA SLOAD SWAP1 JUMP JUMPDEST PUSH1 0xB SLOAD SWAP1 PUSH9 0x10000000000000000 DUP3 LT ISZERO PUSH2 0x472 JUMPI PUSH1 0x1 DUP3 ADD DUP1 PUSH1 0xB SSTORE DUP3 LT ISZERO PUSH2 0x1E25 JUMPI PUSH1 0xB PUSH1 0x0 MSTORE DUP1 MLOAD PUSH1 0x20 SWAP2 DUP3 ADD MLOAD SWAP1 SWAP2 SHL PUSH4 0xFFFFFFFF NOT AND PUSH4 0xFFFFFFFF SWAP2 SWAP1 SWAP2 AND OR PUSH1 0x0 DUP1 MLOAD PUSH1 0x20 PUSH2 0x3B63 DUP4 CODECOPY DUP2 MLOAD SWAP2 MSTORE SWAP1 SWAP2 ADD SSTORE JUMP JUMPDEST SWAP1 SWAP2 SWAP1 ISZERO PUSH2 0x2703 JUMPI POP SWAP1 JUMP JUMPDEST DUP2 MLOAD ISZERO PUSH2 0x2713 JUMPI POP DUP1 MLOAD SWAP1 PUSH1 0x20 ADD REVERT JUMPDEST PUSH1 0x40 MLOAD PUSH3 0x461BCD PUSH1 0xE5 SHL DUP2 MSTORE PUSH1 0x20 PUSH1 0x4 DUP3 ADD MSTORE SWAP1 DUP2 SWAP1 PUSH2 0x22A6 SWAP1 PUSH1 0x24 DUP4 ADD SWAP1 PUSH2 0x7B5 JUMP JUMPDEST ISZERO PUSH2 0x273E JUMPI JUMP JUMPDEST PUSH1 0x40 MLOAD PUSH3 0x461BCD PUSH1 0xE5 SHL DUP2 MSTORE PUSH1 0x20 PUSH1 0x4 DUP3 ADD MSTORE PUSH1 0x1B PUSH1 0x24 DUP3 ADD MSTORE PUSH32 0x436865636B706F696E743A2064656372656173696E67206B6579730000000000 PUSH1 0x44 DUP3 ADD MSTORE PUSH1 0x64 SWAP1 REVERT JUMPDEST PUSH1 0xB SLOAD SWAP2 SWAP3 SWAP2 DUP1 ISZERO PUSH2 0x2856 JUMPI PUSH2 0x281C SWAP2 DUP2 DUP6 PUSH2 0x27AB PUSH2 0x27A6 PUSH2 0x25B6 PUSH1 0x20 SWAP7 PUSH2 0x24B2 JUMP JUMPDEST PUSH2 0x24D0 JUMP JUMPDEST SWAP3 PUSH2 0x27BA DUP5 MLOAD PUSH4 0xFFFFFFFF AND SWAP1 JUMP JUMPDEST PUSH2 0x27D1 PUSH4 0xFFFFFFFF SWAP2 DUP3 DUP5 AND SWAP3 DUP4 SWAP2 AND GT ISZERO PUSH2 0x2737 JUMP JUMPDEST PUSH2 0x27E2 PUSH2 0x1842 DUP7 MLOAD PUSH4 0xFFFFFFFF AND SWAP1 JUMP JUMPDEST SUB PUSH2 0x2820 JUMPI POP PUSH2 0x27F7 PUSH2 0x25B6 PUSH2 0x280E SWAP4 PUSH2 0x24B2 JUMP JUMPDEST SWAP1 PUSH4 0xFFFFFFFF DUP3 SLOAD SWAP2 DUP2 NOT SWAP1 PUSH1 0x20 SHL AND SWAP2 AND OR SWAP1 SSTORE JUMP JUMPDEST ADD MLOAD PUSH1 0x1 PUSH1 0x1 PUSH1 0xE0 SHL SUB AND SWAP1 JUMP JUMPDEST SWAP2 SWAP1 JUMP JUMPDEST SWAP1 POP PUSH2 0x2851 SWAP2 POP PUSH2 0x283E PUSH2 0x2832 PUSH2 0x504 JUMP JUMPDEST PUSH4 0xFFFFFFFF SWAP1 SWAP3 AND DUP3 MSTORE JUMP JUMPDEST PUSH1 0x1 PUSH1 0x1 PUSH1 0xE0 SHL SUB DUP8 AND DUP2 DUP6 ADD MSTORE PUSH2 0x269D JUMP JUMPDEST PUSH2 0x280E JUMP JUMPDEST POP PUSH2 0x287A SWAP1 PUSH2 0x2866 PUSH2 0x2832 PUSH2 0x504 JUMP JUMPDEST PUSH1 0x1 PUSH1 0x1 PUSH1 0xE0 SHL SUB DUP5 AND PUSH1 0x20 DUP3 ADD MSTORE PUSH2 0x269D JUMP JUMPDEST PUSH1 0x0 SWAP2 SWAP1 JUMP JUMPDEST PUSH1 0x5 GT ISZERO PUSH2 0x9A4 JUMPI JUMP JUMPDEST PUSH2 0x2893 DUP2 PUSH2 0x2880 JUMP JUMPDEST DUP1 PUSH2 0x289B JUMPI POP JUMP JUMPDEST PUSH2 0x28A4 DUP2 PUSH2 0x2880 JUMP JUMPDEST PUSH1 0x1 DUP2 SUB PUSH2 0x28F1 JUMPI PUSH1 0x40 MLOAD PUSH3 0x461BCD PUSH1 0xE5 SHL DUP2 MSTORE PUSH1 0x20 PUSH1 0x4 DUP3 ADD MSTORE PUSH1 0x18 PUSH1 0x24 DUP3 ADD MSTORE PUSH32 0x45434453413A20696E76616C6964207369676E61747572650000000000000000 PUSH1 0x44 DUP3 ADD MSTORE PUSH1 0x64 SWAP1 REVERT JUMPDEST PUSH2 0x28FA DUP2 PUSH2 0x2880 JUMP JUMPDEST PUSH1 0x2 DUP2 SUB PUSH2 0x2947 JUMPI PUSH1 0x40 MLOAD PUSH3 0x461BCD PUSH1 0xE5 SHL DUP2 MSTORE PUSH1 0x20 PUSH1 0x4 DUP3 ADD MSTORE PUSH1 0x1F PUSH1 0x24 DUP3 ADD MSTORE PUSH32 0x45434453413A20696E76616C6964207369676E6174757265206C656E67746800 PUSH1 0x44 DUP3 ADD MSTORE PUSH1 0x64 SWAP1 REVERT JUMPDEST DUP1 PUSH2 0x2953 PUSH1 0x3 SWAP3 PUSH2 0x2880 JUMP JUMPDEST EQ PUSH2 0x295A JUMPI JUMP JUMPDEST PUSH1 0x40 MLOAD PUSH3 0x461BCD PUSH1 0xE5 SHL DUP2 MSTORE PUSH1 0x20 PUSH1 0x4 DUP3 ADD MSTORE PUSH1 0x22 PUSH1 0x24 DUP3 ADD MSTORE PUSH32 0x45434453413A20696E76616C6964207369676E6174757265202773272076616C PUSH1 0x44 DUP3 ADD MSTORE PUSH2 0x7565 PUSH1 0xF0 SHL PUSH1 0x64 DUP3 ADD MSTORE PUSH1 0x84 SWAP1 REVERT JUMPDEST SWAP3 SWAP2 SWAP1 PUSH32 0x7FFFFFFFFFFFFFFFFFFFFFFFFFFFFFFF5D576E7357A4501DDFE92F46681B20A0 DUP4 GT PUSH2 0x2A20 JUMPI SWAP2 PUSH1 0x80 SWAP5 SWAP4 SWAP2 PUSH1 0xFF PUSH1 0x20 SWAP5 PUSH1 0x40 MLOAD SWAP5 DUP6 MSTORE AND DUP5 DUP5 ADD MSTORE PUSH1 0x40 DUP4 ADD MSTORE PUSH1 0x60 DUP3 ADD MSTORE PUSH1 0x0 SWAP4 DUP5 SWAP2 DUP3 DUP1 MSTORE PUSH1 0x1 GAS STATICCALL ISZERO PUSH2 0x18D5 JUMPI DUP2 MLOAD PUSH1 0x1 PUSH1 0x1 PUSH1 0xA0 SHL SUB DUP2 AND ISZERO PUSH2 0x2A1A JUMPI SWAP2 SWAP1 JUMP JUMPDEST POP PUSH1 0x1 SWAP1 JUMP JUMPDEST POP POP POP POP PUSH1 0x0 SWAP1 PUSH1 0x3 SWAP1 JUMP JUMPDEST PUSH1 0x42 SWAP1 PUSH2 0x2A37 PUSH2 0x2A52 JUMP JUMPDEST SWAP1 PUSH1 0x40 MLOAD SWAP2 PUSH2 0x1901 PUSH1 0xF0 SHL DUP4 MSTORE PUSH1 0x2 DUP4 ADD MSTORE PUSH1 0x22 DUP3 ADD MSTORE KECCAK256 SWAP1 JUMP JUMPDEST ADDRESS PUSH32 0x0 PUSH1 0x1 PUSH1 0x1 PUSH1 0xA0 SHL SUB AND EQ DUP1 PUSH2 0x2B3D JUMPI JUMPDEST ISZERO PUSH2 0x2AAD JUMPI PUSH32 0x0 SWAP1 JUMP JUMPDEST PUSH1 0x40 MLOAD PUSH1 0x20 DUP2 ADD SWAP1 PUSH32 0x8B73C3C69BB8FE3D512ECC4CF759CC79239F7B179B0FFACAA9A75D522B39400F DUP3 MSTORE PUSH32 0x0 PUSH1 0x40 DUP3 ADD MSTORE PUSH32 0x0 PUSH1 0x60 DUP3 ADD MSTORE CHAINID PUSH1 0x80 DUP3 ADD MSTORE ADDRESS PUSH1 0xA0 DUP3 ADD MSTORE PUSH1 0xA0 DUP2 MSTORE PUSH2 0x1D79 DUP2 PUSH2 0x4C8 JUMP JUMPDEST POP PUSH32 0x0 CHAINID EQ PUSH2 0x2A84 JUMP JUMPDEST PUSH1 0x40 MLOAD PUSH2 0x2B72 DUP2 PUSH2 0x492 JUMP JUMPDEST PUSH1 0x0 DUP2 MSTORE SWAP1 PUSH1 0x0 CALLDATASIZE DUP2 CALLDATACOPY JUMP JUMPDEST PUSH1 0xFF DUP2 EQ PUSH2 0x2BBC JUMPI PUSH1 0xFF DUP2 AND SWAP1 PUSH1 0x1F DUP3 GT PUSH2 0x2BAA JUMPI PUSH1 0x40 MLOAD SWAP2 PUSH2 0x2BA0 DUP4 PUSH2 0x477 JUMP JUMPDEST DUP3 MSTORE PUSH1 0x20 DUP3 ADD MSTORE SWAP1 JUMP JUMPDEST PUSH1 0x40 MLOAD PUSH4 0x2CD44AC3 PUSH1 0xE2 SHL DUP2 MSTORE PUSH1 0x4 SWAP1 REVERT JUMPDEST POP PUSH1 0x40 MLOAD PUSH1 0x0 DUP2 DUP2 SLOAD SWAP2 PUSH2 0x2BCF DUP4 PUSH2 0x1C4F JUMP JUMPDEST DUP1 DUP4 MSTORE SWAP3 PUSH1 0x1 SWAP1 DUP2 DUP2 AND SWAP1 DUP2 ISZERO PUSH2 0x2C53 JUMPI POP PUSH1 0x1 EQ PUSH2 0x2BF6 JUMPI JUMPDEST POP PUSH2 0x5AC SWAP3 POP SUB DUP3 PUSH2 0x4E3 JUMP JUMPDEST PUSH1 0x0 DUP1 DUP1 MSTORE SWAP2 POP PUSH32 0x290DECD9548B62A8D60345A988386FC84BA6BC95484008F6362F93160EF3E563 JUMPDEST DUP5 DUP4 LT PUSH2 0x2C38 JUMPI POP PUSH2 0x5AC SWAP4 POP POP DUP2 ADD PUSH1 0x20 ADD CODESIZE PUSH2 0x2BE9 JUMP JUMPDEST DUP2 SWAP4 POP SWAP1 DUP2 PUSH1 0x20 SWAP3 SLOAD DUP4 DUP6 DUP10 ADD ADD MSTORE ADD SWAP2 ADD SWAP1 SWAP2 DUP5 SWAP3 PUSH2 0x2C1F JUMP JUMPDEST SWAP1 POP PUSH1 0x20 SWAP3 POP PUSH2 0x5AC SWAP5 SWAP2 POP PUSH1 0xFF NOT AND DUP3 DUP5 ADD MSTORE ISZERO ISZERO PUSH1 0x5 SHL DUP3 ADD ADD CODESIZE PUSH2 0x2BE9 JUMP JUMPDEST PUSH1 0xFF DUP2 EQ PUSH2 0x2C97 JUMPI PUSH1 0xFF DUP2 AND SWAP1 PUSH1 0x1F DUP3 GT PUSH2 0x2BAA JUMPI PUSH1 0x40 MLOAD SWAP2 PUSH2 0x2BA0 DUP4 PUSH2 0x477 JUMP JUMPDEST POP PUSH1 0x40 MLOAD PUSH1 0x0 DUP2 PUSH1 0x1 SWAP2 DUP3 SLOAD SWAP3 PUSH2 0x2CAD DUP5 PUSH2 0x1C4F JUMP JUMPDEST DUP1 DUP5 MSTORE SWAP4 DUP2 DUP2 AND SWAP1 DUP2 ISZERO PUSH2 0x2C53 JUMPI POP PUSH1 0x1 EQ PUSH2 0x2CD0 JUMPI POP PUSH2 0x5AC SWAP3 POP SUB DUP3 PUSH2 0x4E3 JUMP JUMPDEST PUSH1 0x0 DUP2 DUP2 MSTORE SWAP2 POP PUSH32 0xB10E2D527612073B26EECDFD717E6A320CF44B4AFAC2B0732D9FCBE2B7FA0CF6 JUMPDEST DUP5 DUP4 LT PUSH2 0x2D12 JUMPI POP PUSH2 0x5AC SWAP4 POP POP DUP2 ADD PUSH1 0x20 ADD CODESIZE PUSH2 0x2BE9 JUMP JUMPDEST DUP2 SWAP4 POP SWAP1 DUP2 PUSH1 0x20 SWAP3 SLOAD DUP4 DUP6 DUP10 ADD ADD MSTORE ADD SWAP2 ADD SWAP1 SWAP2 DUP5 SWAP3 PUSH2 0x2CF9 JUMP JUMPDEST DUP2 ISZERO PUSH2 0x2D37 JUMPI DIV SWAP1 JUMP JUMPDEST PUSH4 0x4E487B71 PUSH1 0xE0 SHL PUSH1 0x0 MSTORE PUSH1 0x12 PUSH1 0x4 MSTORE PUSH1 0x24 PUSH1 0x0 REVERT JUMPDEST DUP1 ISZERO PUSH2 0x2E87 JUMPI DUP1 PUSH2 0x2E20 PUSH2 0x2E19 PUSH2 0x2E0F PUSH2 0x2E05 PUSH2 0x2DFB PUSH2 0x2DF1 PUSH2 0x2DE7 PUSH2 0x2DDD PUSH1 0x1 PUSH2 0x5AC SWAP11 PUSH1 0x0 SWAP1 DUP12 PUSH1 0x80 SHR DUP1 PUSH2 0x2E7B JUMPI JUMPDEST POP DUP1 PUSH1 0x40 SHR DUP1 PUSH2 0x2E6E JUMPI JUMPDEST POP DUP1 PUSH1 0x20 SHR DUP1 PUSH2 0x2E61 JUMPI JUMPDEST POP DUP1 PUSH1 0x10 SHR DUP1 PUSH2 0x2E54 JUMPI JUMPDEST POP DUP1 PUSH1 0x8 SHR DUP1 PUSH2 0x2E47 JUMPI JUMPDEST POP DUP1 PUSH1 0x4 SHR DUP1 PUSH2 0x2E3A JUMPI JUMPDEST POP DUP1 PUSH1 0x2 SHR DUP1 PUSH2 0x2E2D JUMPI JUMPDEST POP DUP3 SHR PUSH2 0x2E26 JUMPI JUMPDEST DUP2 SHR SHL PUSH2 0x2DD6 DUP2 DUP12 PUSH2 0x2D2D JUMP JUMPDEST ADD PUSH1 0x1 SHR SWAP1 JUMP JUMPDEST PUSH2 0x2DD6 DUP2 DUP11 PUSH2 0x2D2D JUMP JUMPDEST PUSH2 0x2DD6 DUP2 DUP10 PUSH2 0x2D2D JUMP JUMPDEST PUSH2 0x2DD6 DUP2 DUP9 PUSH2 0x2D2D JUMP JUMPDEST PUSH2 0x2DD6 DUP2 DUP8 PUSH2 0x2D2D JUMP JUMPDEST PUSH2 0x2DD6 DUP2 DUP7 PUSH2 0x2D2D JUMP JUMPDEST PUSH2 0x2DD6 DUP2 DUP6 PUSH2 0x2D2D JUMP JUMPDEST DUP1 SWAP3 PUSH2 0x2D2D JUMP JUMPDEST SWAP1 PUSH2 0x2E8D JUMP JUMPDEST DUP2 ADD PUSH2 0x2DC9 JUMP JUMPDEST PUSH1 0x2 SWAP2 POP SWAP2 ADD SWAP1 CODESIZE PUSH2 0x2DC1 JUMP JUMPDEST PUSH1 0x4 SWAP2 POP SWAP2 ADD SWAP1 CODESIZE PUSH2 0x2DB6 JUMP JUMPDEST PUSH1 0x8 SWAP2 POP SWAP2 ADD SWAP1 CODESIZE PUSH2 0x2DAB JUMP JUMPDEST PUSH1 0x10 SWAP2 POP SWAP2 ADD SWAP1 CODESIZE PUSH2 0x2DA0 JUMP JUMPDEST PUSH1 0x20 SWAP2 POP SWAP2 ADD SWAP1 CODESIZE PUSH2 0x2D95 JUMP JUMPDEST PUSH1 0x40 SWAP2 POP SWAP2 ADD SWAP1 CODESIZE PUSH2 0x2D8A JUMP JUMPDEST SWAP2 POP POP PUSH1 0x80 SWAP1 CODESIZE PUSH2 0x2D7F JUMP JUMPDEST POP PUSH1 0x0 SWAP1 JUMP JUMPDEST SWAP1 DUP1 DUP3 LT ISZERO PUSH2 0x2E9A JUMPI POP SWAP1 JUMP JUMPDEST SWAP1 POP SWAP1 JUMP JUMPDEST PUSH1 0x1 PUSH1 0x1 PUSH1 0xE0 SHL SUB SWAP1 DUP2 DUP2 GT PUSH2 0x2EB3 JUMPI AND SWAP1 JUMP JUMPDEST PUSH1 0x40 MLOAD PUSH3 0x461BCD PUSH1 0xE5 SHL DUP2 MSTORE PUSH1 0x20 PUSH1 0x4 DUP3 ADD MSTORE PUSH1 0x27 PUSH1 0x24 DUP3 ADD MSTORE PUSH32 0x53616665436173743A2076616C756520646F65736E27742066697420696E2032 PUSH1 0x44 DUP3 ADD MSTORE PUSH7 0x32342062697473 PUSH1 0xC8 SHL PUSH1 0x64 DUP3 ADD MSTORE PUSH1 0x84 SWAP1 REVERT JUMPDEST PUSH6 0xFFFFFFFFFFFF SWAP1 DUP2 DUP2 GT PUSH2 0x2F1B JUMPI AND SWAP1 JUMP JUMPDEST PUSH1 0x40 MLOAD PUSH3 0x461BCD PUSH1 0xE5 SHL DUP2 MSTORE PUSH1 0x20 PUSH1 0x4 DUP3 ADD MSTORE PUSH1 0x26 PUSH1 0x24 DUP3 ADD MSTORE PUSH32 0x53616665436173743A2076616C756520646F65736E27742066697420696E2034 PUSH1 0x44 DUP3 ADD MSTORE PUSH6 0x382062697473 PUSH1 0xD0 SHL PUSH1 0x64 DUP3 ADD MSTORE PUSH1 0x84 SWAP1 REVERT JUMPDEST PUSH4 0xFFFFFFFF SWAP1 DUP2 DUP2 GT PUSH2 0x2F80 JUMPI AND SWAP1 JUMP JUMPDEST PUSH1 0x40 MLOAD PUSH3 0x461BCD PUSH1 0xE5 SHL DUP2 MSTORE PUSH1 0x20 PUSH1 0x4 DUP3 ADD MSTORE PUSH1 0x26 PUSH1 0x24 DUP3 ADD MSTORE PUSH32 0x53616665436173743A2076616C756520646F65736E27742066697420696E2033 PUSH1 0x44 DUP3 ADD MSTORE PUSH6 0x322062697473 PUSH1 0xD0 SHL PUSH1 0x64 DUP3 ADD MSTORE PUSH1 0x84 SWAP1 REVERT JUMPDEST SWAP1 DUP2 PUSH1 0x20 SWAP2 SUB SLT PUSH2 0x3D1 JUMPI MLOAD SWAP1 JUMP JUMPDEST PUSH1 0x40 MLOAD PUSH2 0x2FEF DUP2 PUSH2 0x492 JUMP JUMPDEST PUSH1 0x0 DUP2 MSTORE SWAP1 JUMP JUMPDEST PUSH1 0x4 DUP3 LT ISZERO PUSH2 0x9A4 JUMPI MSTORE JUMP JUMPDEST SWAP1 DUP1 MLOAD SWAP1 PUSH1 0x4 DUP3 LT ISZERO PUSH2 0x9A4 JUMPI DUP3 SLOAD PUSH1 0x20 DUP3 ADD MLOAD PUSH1 0x40 DUP4 ADD MLOAD PUSH1 0x60 SWAP1 SWAP4 ADD MLOAD PUSH13 0xFFFFFFFFFFFFFFFFFFFFFFFFFF NOT SWAP1 SWAP3 AND PUSH1 0xFF SWAP5 SWAP1 SWAP5 AND SWAP4 SWAP1 SWAP4 OR PUSH1 0x8 SWAP4 SWAP1 SWAP4 SHL PUSH5 0xFFFFFFFF00 AND SWAP3 SWAP1 SWAP3 OR PUSH1 0x28 SWAP2 SWAP1 SWAP2 SHL PUSH9 0xFFFFFFFF0000000000 AND OR PUSH1 0x48 SWAP2 SWAP1 SWAP2 SHL PUSH13 0xFFFFFFFF000000000000000000 AND OR SWAP1 SSTORE JUMP JUMPDEST SWAP2 PUSH1 0x60 DUP2 PUSH4 0xFFFFFFFF SWAP3 PUSH1 0x20 SWAP5 SWAP8 SWAP7 SWAP8 PUSH1 0x40 DUP8 MSTORE DUP2 PUSH1 0x40 DUP9 ADD MSTORE DUP4 DUP8 ADD CALLDATACOPY PUSH1 0x0 DUP3 DUP3 DUP8 ADD ADD MSTORE PUSH1 0x1F DUP1 NOT SWAP2 ADD AND DUP5 ADD ADD SWAP5 AND SWAP2 ADD MSTORE JUMP JUMPDEST ISZERO PUSH2 0x30B8 JUMPI JUMP JUMPDEST PUSH1 0x40 MLOAD PUSH3 0x461BCD PUSH1 0xE5 SHL DUP2 MSTORE PUSH1 0x20 PUSH1 0x4 DUP3 ADD MSTORE PUSH1 0x1D PUSH1 0x24 DUP3 ADD MSTORE PUSH32 0x476F7665726E6F723A2070726F706F7365722072657374726963746564000000 PUSH1 0x44 DUP3 ADD MSTORE PUSH1 0x64 SWAP1 REVERT JUMPDEST ISZERO PUSH2 0x3104 JUMPI JUMP JUMPDEST PUSH1 0x40 MLOAD PUSH3 0x461BCD PUSH1 0xE5 SHL DUP2 MSTORE PUSH1 0x20 PUSH1 0x4 DUP3 ADD MSTORE PUSH1 0x21 PUSH1 0x24 DUP3 ADD MSTORE PUSH32 0x476F7665726E6F723A20696E76616C69642070726F706F73616C206C656E6774 PUSH1 0x44 DUP3 ADD MSTORE PUSH1 0xD PUSH1 0xFB SHL PUSH1 0x64 DUP3 ADD MSTORE PUSH1 0x84 SWAP1 REVERT JUMPDEST ISZERO PUSH2 0x315A JUMPI JUMP JUMPDEST PUSH1 0x40 MLOAD PUSH3 0x461BCD PUSH1 0xE5 SHL DUP2 MSTORE PUSH1 0x20 PUSH1 0x4 DUP3 ADD MSTORE PUSH1 0x18 PUSH1 0x24 DUP3 ADD MSTORE PUSH32 0x476F7665726E6F723A20656D7074792070726F706F73616C0000000000000000 PUSH1 0x44 DUP3 ADD MSTORE PUSH1 0x64 SWAP1 REVERT JUMPDEST ISZERO PUSH2 0x31A6 JUMPI JUMP JUMPDEST PUSH1 0x40 MLOAD PUSH3 0x461BCD PUSH1 0xE5 SHL DUP2 MSTORE PUSH1 0x20 PUSH1 0x4 DUP3 ADD MSTORE PUSH1 0x21 PUSH1 0x24 DUP3 ADD MSTORE PUSH32 0x476F7665726E6F723A2070726F706F73616C20616C7265616479206578697374 PUSH1 0x44 DUP3 ADD MSTORE PUSH1 0x73 PUSH1 0xF8 SHL PUSH1 0x64 DUP3 ADD MSTORE PUSH1 0x84 SWAP1 REVERT JUMPDEST DUP2 MLOAD PUSH1 0x20 DUP4 ADD MLOAD PUSH1 0x40 DUP1 DUP6 ADD MLOAD PUSH1 0x1 PUSH1 0x1 PUSH1 0x40 SHL SUB SWAP4 DUP5 AND SWAP3 SWAP1 SWAP2 SHL PUSH9 0x10000000000000000 PUSH1 0x1 PUSH1 0xE0 SHL SUB AND SWAP2 SWAP1 SWAP2 OR PUSH1 0x1 PUSH1 0x1 PUSH1 0xE0 SHL SUB NOT SWAP1 SWAP2 AND OR DUP3 SSTORE PUSH1 0x60 DUP4 ADD MLOAD PUSH1 0x80 DUP5 ADD MLOAD PUSH8 0xFFFFFFFFFFFFFFFF NOT AND SWAP2 AND OR PUSH1 0x1 DUP3 ADD SSTORE PUSH2 0x511 SWAP2 SWAP1 PUSH2 0x328B SWAP1 PUSH1 0xC0 SWAP1 PUSH1 0x2 ADD SWAP3 PUSH2 0x3284 PUSH2 0x3272 PUSH1 0xA0 DUP4 ADD MLOAD ISZERO ISZERO SWAP1 JUMP JUMPDEST DUP6 SWAP1 PUSH1 0xFF DUP1 NOT DUP4 SLOAD AND SWAP2 ISZERO ISZERO AND OR SWAP1 SSTORE JUMP JUMPDEST ADD MLOAD ISZERO ISZERO SWAP1 JUMP JUMPDEST DUP2 SLOAD PUSH2 0xFF00 NOT AND SWAP1 ISZERO ISZERO PUSH1 0x8 SHL PUSH2 0xFF00 AND OR SWAP1 SSTORE JUMP JUMPDEST SWAP1 PUSH2 0x32AB DUP3 PUSH2 0xA12 JUMP JUMPDEST PUSH2 0x32B8 PUSH1 0x40 MLOAD SWAP2 DUP3 PUSH2 0x4E3 JUMP JUMPDEST DUP3 DUP2 MSTORE DUP1 SWAP3 PUSH2 0x32C9 PUSH1 0x1F NOT SWAP2 PUSH2 0xA12 JUMP JUMPDEST ADD SWAP1 PUSH1 0x0 JUMPDEST DUP3 DUP2 LT PUSH2 0x32DA JUMPI POP POP POP JUMP JUMPDEST DUP1 PUSH1 0x60 PUSH1 0x20 DUP1 SWAP4 DUP6 ADD ADD MSTORE ADD PUSH2 0x32CE JUMP JUMPDEST SWAP6 SWAP3 PUSH2 0x331E SWAP1 PUSH2 0x332C SWAP4 SWAP12 SWAP11 SWAP9 SWAP10 SWAP7 SWAP6 SWAP3 DUP9 MSTORE PUSH1 0x20 SWAP12 PUSH1 0x1 DUP1 PUSH1 0xA0 SHL SUB AND DUP13 DUP10 ADD MSTORE PUSH2 0x120 DUP1 PUSH1 0x40 DUP11 ADD MSTORE DUP9 ADD SWAP1 PUSH2 0x1C89 JUMP JUMPDEST SWAP1 DUP7 DUP3 SUB PUSH1 0x60 DUP9 ADD MSTORE PUSH2 0x1330 JUMP JUMPDEST SWAP8 DUP5 DUP10 SUB PUSH1 0x80 DUP7 ADD MSTORE DUP3 MLOAD DUP1 DUP11 MSTORE DUP2 DUP11 ADD SWAP2 DUP1 DUP1 DUP4 PUSH1 0x5 SHL DUP14 ADD ADD SWAP6 ADD SWAP3 PUSH1 0x0 SWAP1 JUMPDEST DUP4 DUP3 LT PUSH2 0x338B JUMPI POP POP POP POP POP PUSH2 0x5AC SWAP7 SWAP8 POP SWAP1 PUSH2 0x3372 SWAP2 DUP5 DUP3 SUB PUSH1 0xA0 DUP7 ADD MSTORE PUSH2 0x1CC6 JUMP JUMPDEST SWAP4 PUSH1 0xC0 DUP4 ADD MSTORE PUSH1 0xE0 DUP3 ADD MSTORE PUSH2 0x100 DUP2 DUP5 SUB SWAP2 ADD MSTORE PUSH2 0x7B5 JUMP JUMPDEST SWAP1 SWAP2 SWAP3 SWAP4 SWAP6 DUP4 DUP1 PUSH2 0x33AA DUP16 SWAP4 PUSH1 0x1 SWAP5 PUSH1 0x1F NOT SWAP1 DUP3 SUB ADD DUP7 MSTORE DUP11 MLOAD PUSH2 0x7B5 JUMP JUMPDEST SWAP9 ADD SWAP3 ADD SWAP3 ADD SWAP1 SWAP4 SWAP3 SWAP2 PUSH2 0x334E JUMP JUMPDEST PUSH2 0x352D PUSH32 0x7D84A6263AE0D98D3329BD7B46BB4E8D6F98CD35A7ADB45C274C8B7FD5EBD5E0 SWAP4 SWAP5 PUSH2 0x33F1 PUSH2 0x33EC DUP3 CALLER PUSH2 0x3544 JUMP JUMPDEST PUSH2 0x30B1 JUMP JUMPDEST PUSH2 0x33FC PUSH2 0x6A7 PUSH2 0x22B6 JUMP JUMPDEST SWAP6 PUSH2 0x340F PUSH2 0x3409 DUP9 PUSH2 0x24B2 JUMP JUMPDEST CALLER PUSH2 0x1E2A JUMP JUMPDEST POP PUSH2 0x348B PUSH2 0x3425 DUP4 MLOAD PUSH1 0x20 DUP6 ADD KECCAK256 DUP4 DUP9 DUP9 PUSH2 0x1D1B JUMP JUMPDEST SWAP8 PUSH2 0x3433 DUP7 MLOAD DUP9 MLOAD EQ PUSH2 0x30FD JUMP JUMPDEST PUSH2 0x3440 DUP7 MLOAD DUP5 MLOAD EQ PUSH2 0x30FD JUMP JUMPDEST PUSH2 0x344C DUP7 MLOAD ISZERO ISZERO PUSH2 0x3153 JUMP JUMPDEST PUSH2 0x3482 PUSH1 0x1 PUSH1 0x1 PUSH1 0x40 SHL SUB PUSH2 0x347B PUSH2 0x346E DUP13 PUSH1 0x0 MSTORE PUSH1 0x3 PUSH1 0x20 MSTORE PUSH1 0x40 PUSH1 0x0 KECCAK256 SWAP1 JUMP JUMPDEST SLOAD PUSH1 0x1 PUSH1 0x1 PUSH1 0x40 SHL SUB AND SWAP1 JUMP JUMPDEST AND ISZERO PUSH2 0x319F JUMP JUMPDEST PUSH1 0x6 SLOAD SWAP1 PUSH2 0x2175 JUMP JUMPDEST PUSH2 0x3497 PUSH1 0x7 SLOAD DUP3 PUSH2 0x2175 JUMP JUMPDEST SWAP2 PUSH2 0x3515 PUSH2 0x34A4 DUP4 PUSH2 0x3681 JUMP JUMPDEST PUSH2 0x34E7 PUSH2 0x34B0 DUP7 PUSH2 0x3681 JUMP JUMPDEST PUSH2 0x34CA PUSH2 0x34BB PUSH2 0x520 JUMP JUMPDEST PUSH1 0x1 PUSH1 0x1 PUSH1 0x40 SHL SUB SWAP1 SWAP5 AND DUP5 MSTORE JUMP JUMPDEST CALLER PUSH1 0x20 DUP5 ADD MSTORE PUSH1 0x0 PUSH1 0x40 DUP5 ADD MSTORE PUSH1 0x1 PUSH1 0x1 PUSH1 0x40 SHL SUB AND PUSH1 0x60 DUP4 ADD MSTORE JUMP JUMPDEST PUSH1 0x0 PUSH1 0x80 DUP3 ADD MSTORE PUSH1 0x0 PUSH1 0xA0 DUP3 ADD MSTORE PUSH1 0x0 PUSH1 0xC0 DUP3 ADD MSTORE PUSH2 0x3510 DUP12 PUSH1 0x0 MSTORE PUSH1 0x3 PUSH1 0x20 MSTORE PUSH1 0x40 PUSH1 0x0 KECCAK256 SWAP1 JUMP JUMPDEST PUSH2 0x31F5 JUMP JUMPDEST PUSH2 0x351F DUP7 MLOAD PUSH2 0x32A1 JUMP JUMPDEST PUSH1 0x40 MLOAD SWAP8 DUP9 SWAP8 CALLER DUP13 DUP11 PUSH2 0x32EB JUMP JUMPDEST SUB SWAP1 LOG1 SWAP1 JUMP JUMPDEST SWAP1 DUP2 MLOAD DUP2 LT ISZERO PUSH2 0x1E25 JUMPI ADD PUSH1 0x20 ADD SWAP1 JUMP JUMPDEST DUP2 MLOAD PUSH1 0x34 DUP2 LT PUSH2 0x35FB JUMPI PUSH1 0x13 NOT DUP2 DUP5 ADD ADD MLOAD PUSH1 0x1 PUSH1 0x1 PUSH1 0xA0 SHL SUB NOT AND PUSH12 0x1B91F1B211F2119351B859F1 PUSH1 0xA3 SHL ADD PUSH2 0x35FB JUMPI SWAP2 PUSH1 0x0 SWAP3 PUSH2 0x3582 DUP2 PUSH2 0x24C1 JUMP JUMPDEST SWAP2 JUMPDEST DUP2 DUP4 LT PUSH2 0x359F JUMPI POP POP POP PUSH1 0x1 PUSH1 0x1 PUSH1 0xA0 SHL SUB SWAP2 DUP3 AND SWAP2 AND EQ SWAP1 JUMP JUMPDEST SWAP1 SWAP2 SWAP4 PUSH2 0x35C5 PUSH2 0x35C0 PUSH2 0x35B2 DUP8 DUP6 PUSH2 0x3533 JUMP JUMPDEST MLOAD PUSH1 0x1 PUSH1 0x1 PUSH1 0xF8 SHL SUB NOT AND SWAP1 JUMP JUMPDEST PUSH2 0x3603 JUMP JUMPDEST SWAP2 SWAP1 ISZERO PUSH2 0x35F0 JUMPI PUSH1 0x4 SHL PUSH1 0x10 PUSH1 0x1 PUSH1 0xA0 SHL SUB AND PUSH1 0xFF SWAP2 SWAP1 SWAP2 AND OR SWAP4 PUSH2 0x35E9 SWAP1 PUSH2 0x1DEC JUMP JUMPDEST SWAP2 SWAP1 PUSH2 0x3584 JUMP JUMPDEST POP POP POP POP POP POP PUSH1 0x1 SWAP1 JUMP JUMPDEST POP POP POP PUSH1 0x1 SWAP1 JUMP JUMPDEST PUSH1 0xF8 SHR SWAP1 DUP2 PUSH1 0x2F LT DUP1 PUSH2 0x3677 JUMPI JUMPDEST ISZERO PUSH2 0x3623 JUMPI PUSH1 0x1 SWAP2 PUSH1 0x2F NOT ADD PUSH1 0xFF AND SWAP1 JUMP JUMPDEST DUP2 PUSH1 0x40 LT DUP1 PUSH2 0x366D JUMPI JUMPDEST ISZERO PUSH2 0x363F JUMPI PUSH1 0x1 SWAP2 PUSH1 0x36 NOT ADD PUSH1 0xFF AND SWAP1 JUMP JUMPDEST DUP2 PUSH1 0x60 LT DUP1 PUSH2 0x3663 JUMPI JUMPDEST ISZERO PUSH2 0x365B JUMPI PUSH1 0x1 SWAP2 PUSH1 0x56 NOT ADD PUSH1 0xFF AND SWAP1 JUMP JUMPDEST PUSH1 0x0 SWAP2 POP DUP2 SWAP1 JUMP JUMPDEST POP PUSH1 0x67 DUP3 LT PUSH2 0x3649 JUMP JUMPDEST POP PUSH1 0x47 DUP3 LT PUSH2 0x362D JUMP JUMPDEST POP PUSH1 0x3A DUP3 LT PUSH2 0x3611 JUMP JUMPDEST PUSH1 0x1 PUSH1 0x1 PUSH1 0x40 SHL SUB SWAP1 DUP2 DUP2 GT PUSH2 0x3695 JUMPI AND SWAP1 JUMP JUMPDEST PUSH1 0x40 MLOAD PUSH3 0x461BCD PUSH1 0xE5 SHL DUP2 MSTORE PUSH1 0x20 PUSH1 0x4 DUP3 ADD MSTORE PUSH1 0x26 PUSH1 0x24 DUP3 ADD MSTORE PUSH32 0x53616665436173743A2076616C756520646F65736E27742066697420696E2036 PUSH1 0x44 DUP3 ADD MSTORE PUSH6 0x342062697473 PUSH1 0xD0 SHL PUSH1 0x64 DUP3 ADD MSTORE PUSH1 0x84 SWAP1 REVERT JUMPDEST PUSH1 0x40 MLOAD PUSH4 0x748D635 PUSH1 0xE3 SHL DUP2 MSTORE PUSH1 0x1 PUSH1 0x1 PUSH1 0xA0 SHL SUB SWAP2 DUP3 AND PUSH1 0x4 DUP3 ADD MSTORE PUSH1 0x24 DUP2 ADD SWAP3 SWAP1 SWAP3 MSTORE PUSH1 0x20 SWAP1 DUP3 SWAP1 PUSH1 0x44 SWAP1 DUP3 SWAP1 PUSH32 0x0 AND GAS STATICCALL SWAP1 DUP2 ISZERO PUSH2 0x18D5 JUMPI PUSH1 0x0 SWAP2 PUSH2 0x378D JUMPI JUMPDEST POP PUSH1 0x1 DUP1 DUP3 ADD DUP1 DUP4 GT PUSH2 0x1BE1 JUMPI DUP2 SHR SWAP1 DUP3 SWAP1 JUMPDEST DUP4 DUP4 LT PUSH2 0x376B JUMPI POP POP POP SWAP1 JUMP JUMPDEST SWAP2 SWAP3 POP SWAP1 DUP3 PUSH2 0x377A DUP2 DUP5 PUSH2 0x2D2D JUMP JUMPDEST SWAP1 DUP2 ADD DUP1 SWAP2 GT PUSH2 0x1BE1 JUMPI DUP2 SHR SWAP2 SWAP1 PUSH2 0x375E JUMP JUMPDEST PUSH2 0x37A5 SWAP2 POP PUSH1 0x20 RETURNDATASIZE DUP2 GT PUSH2 0x18CE JUMPI PUSH2 0x18BF DUP2 DUP4 PUSH2 0x4E3 JUMP JUMPDEST CODESIZE PUSH2 0x374B JUMP JUMPDEST PUSH1 0x2 PUSH2 0x37C1 DUP3 PUSH1 0x0 MSTORE PUSH1 0x3 PUSH1 0x20 MSTORE PUSH1 0x40 PUSH1 0x0 KECCAK256 SWAP1 JUMP JUMPDEST ADD SLOAD PUSH1 0xFF DUP2 AND PUSH2 0x38CD JUMPI PUSH1 0x8 SHR PUSH1 0xFF AND PUSH2 0x38C7 JUMPI PUSH2 0x37EF PUSH2 0x1F9B PUSH2 0x346E DUP4 PUSH1 0x0 MSTORE PUSH1 0x3 PUSH1 0x20 MSTORE PUSH1 0x40 PUSH1 0x0 KECCAK256 SWAP1 JUMP JUMPDEST DUP1 ISZERO PUSH2 0x3882 JUMPI PUSH2 0x3800 PUSH2 0x6A7 PUSH2 0x22B6 JUMP JUMPDEST DUP1 SWAP2 LT ISZERO PUSH2 0x387B JUMPI PUSH2 0x3832 PUSH2 0x1F9B PUSH1 0x1 PUSH2 0x3824 DUP6 PUSH1 0x0 MSTORE PUSH1 0x3 PUSH1 0x20 MSTORE PUSH1 0x40 PUSH1 0x0 KECCAK256 SWAP1 JUMP JUMPDEST ADD SLOAD PUSH1 0x1 PUSH1 0x1 PUSH1 0x40 SHL SUB AND SWAP1 JUMP JUMPDEST LT ISZERO PUSH2 0x2A1A JUMPI PUSH2 0x3841 DUP2 PUSH2 0x38D4 JUMP JUMPDEST SWAP1 DUP2 PUSH2 0x3858 JUMPI JUMPDEST POP ISZERO PUSH2 0x3853 JUMPI PUSH1 0x4 SWAP1 JUMP JUMPDEST PUSH1 0x3 SWAP1 JUMP JUMPDEST PUSH2 0x3875 SWAP2 POP PUSH1 0x0 MSTORE PUSH1 0x9 PUSH1 0x20 MSTORE PUSH1 0x40 PUSH1 0x0 KECCAK256 PUSH1 0x1 DUP2 ADD SLOAD SWAP1 SLOAD LT SWAP1 JUMP JUMPDEST CODESIZE PUSH2 0x3848 JUMP JUMPDEST POP POP PUSH1 0x0 SWAP1 JUMP JUMPDEST PUSH1 0x40 MLOAD PUSH3 0x461BCD PUSH1 0xE5 SHL DUP2 MSTORE PUSH1 0x20 PUSH1 0x4 DUP3 ADD MSTORE PUSH1 0x1D PUSH1 0x24 DUP3 ADD MSTORE PUSH32 0x476F7665726E6F723A20756E6B6E6F776E2070726F706F73616C206964000000 PUSH1 0x44 DUP3 ADD MSTORE PUSH1 0x64 SWAP1 REVERT JUMPDEST POP PUSH1 0x2 SWAP1 JUMP JUMPDEST POP POP PUSH1 0x7 SWAP1 JUMP JUMPDEST PUSH1 0x0 MSTORE PUSH1 0x9 PUSH1 0x20 MSTORE PUSH1 0x40 PUSH1 0x0 KECCAK256 PUSH1 0x3 PUSH1 0x20 MSTORE PUSH1 0x1 PUSH1 0x1 PUSH1 0x40 SHL SUB PUSH1 0x40 PUSH1 0x0 KECCAK256 SLOAD AND SWAP1 PUSH1 0x40 MLOAD SWAP2 PUSH4 0x2394E7A3 PUSH1 0xE2 SHL DUP4 MSTORE DUP1 PUSH1 0x4 DUP5 ADD MSTORE PUSH1 0x20 DUP4 PUSH1 0x24 DUP2 PUSH1 0x1 DUP1 PUSH1 0xA0 SHL SUB PUSH32 0x0 AND GAS STATICCALL SWAP3 DUP4 ISZERO PUSH2 0x18D5 JUMPI PUSH1 0x0 SWAP4 PUSH2 0x3982 JUMPI JUMPDEST POP PUSH2 0x3954 SWAP1 PUSH2 0x2502 JUMP JUMPDEST SWAP2 DUP3 DUP2 MUL SWAP3 DUP2 DUP5 DIV EQ SWAP1 ISZERO OR ISZERO PUSH2 0x1BE1 JUMPI PUSH2 0x397B DUP2 PUSH1 0x2 PUSH1 0x1 PUSH1 0x64 SWAP5 ADD SLOAD SWAP2 ADD SLOAD SWAP1 PUSH2 0x2175 JUMP JUMPDEST SWAP2 DIV GT ISZERO SWAP1 JUMP JUMPDEST PUSH2 0x3954 SWAP2 SWAP4 POP PUSH2 0x399F SWAP1 PUSH1 0x20 RETURNDATASIZE DUP2 GT PUSH2 0x18CE JUMPI PUSH2 0x18BF DUP2 DUP4 PUSH2 0x4E3 JUMP JUMPDEST SWAP3 SWAP1 PUSH2 0x394A JUMP JUMPDEST SWAP1 SWAP3 SWAP2 PUSH1 0x40 MLOAD SWAP4 PUSH2 0x39B6 DUP6 PUSH2 0x4AD JUMP JUMPDEST PUSH1 0x27 DUP6 MSTORE PUSH1 0x20 SWAP2 PUSH32 0x476F7665726E6F723A2063616C6C20726576657274656420776974686F757420 DUP4 DUP8 ADD MSTORE PUSH7 0x6D657373616765 PUSH1 0xC8 SHL PUSH1 0x40 DUP8 ADD MSTORE PUSH1 0x0 SWAP4 DUP5 JUMPDEST DUP2 MLOAD DUP2 LT ISZERO PUSH2 0x3A57 JUMPI PUSH2 0x3A52 SWAP1 PUSH2 0x3A4C DUP10 DUP9 DUP1 PUSH1 0x1 PUSH1 0x1 PUSH1 0xA0 SHL SUB PUSH2 0x3A1C DUP7 DUP10 PUSH2 0x1E11 JUMP JUMPDEST MLOAD AND PUSH2 0x3A28 DUP7 DUP12 PUSH2 0x1E11 JUMP JUMPDEST MLOAD SWAP1 PUSH2 0x3A34 DUP8 DUP12 PUSH2 0x1E11 JUMP JUMPDEST MLOAD SWAP2 DUP13 DUP4 MLOAD SWAP4 ADD SWAP2 GAS CALL PUSH2 0x3A46 PUSH2 0x20DB JUMP JUMPDEST SWAP1 PUSH2 0x26F7 JUMP JUMPDEST POP PUSH2 0x1DEC JUMP JUMPDEST PUSH2 0x39F7 JUMP JUMPDEST POP POP POP POP POP POP SWAP1 POP JUMP JUMPDEST SWAP1 PUSH2 0x3A6D SWAP4 SWAP3 SWAP2 PUSH2 0x1D1B JUMP JUMPDEST PUSH2 0x3A76 DUP2 PUSH2 0x37AB JUMP JUMPDEST PUSH1 0x8 DUP2 LT ISZERO PUSH2 0x9A4 JUMPI PUSH1 0x2 DUP2 EQ ISZERO SWAP1 DUP2 PUSH2 0x3B4C JUMPI JUMPDEST DUP2 PUSH2 0x3B37 JUMPI JUMPDEST POP ISZERO PUSH2 0x3AF2 JUMPI PUSH2 0x3AC0 PUSH1 0x2 PUSH2 0x3AB0 DUP4 PUSH1 0x0 MSTORE PUSH1 0x3 PUSH1 0x20 MSTORE PUSH1 0x40 PUSH1 0x0 KECCAK256 SWAP1 JUMP JUMPDEST ADD DUP1 SLOAD PUSH2 0xFF00 NOT AND PUSH2 0x100 OR SWAP1 SSTORE JUMP JUMPDEST PUSH1 0x40 MLOAD DUP2 DUP2 MSTORE PUSH32 0x789CF55BE980739DAD1D0699B93B58E806B51C9D96619BFA8FE0A28ABAA7B30C SWAP1 DUP1 PUSH1 0x20 DUP2 ADD PUSH2 0x352D JUMP JUMPDEST PUSH1 0x40 MLOAD PUSH3 0x461BCD PUSH1 0xE5 SHL DUP2 MSTORE PUSH1 0x20 PUSH1 0x4 DUP3 ADD MSTORE PUSH1 0x1D PUSH1 0x24 DUP3 ADD MSTORE PUSH32 0x476F7665726E6F723A2070726F706F73616C206E6F7420616374697665000000 PUSH1 0x44 DUP3 ADD MSTORE PUSH1 0x64 SWAP1 REVERT JUMPDEST PUSH1 0x7 SWAP2 POP PUSH2 0x3B44 DUP2 PUSH2 0xEDB JUMP JUMPDEST EQ ISZERO CODESIZE PUSH2 0x3A91 JUMP JUMPDEST SWAP1 POP PUSH2 0x3B57 DUP2 PUSH2 0xEDB JUMP JUMPDEST PUSH1 0x6 DUP2 EQ ISZERO SWAP1 PUSH2 0x3A8B JUMP INVALID ADD PUSH22 0xB7A638427703F0DBE7BB9BBF987A2551717B34E79F33 0xB5 0xB1 STOP DUP14 0x1F LOG0 SAR 0xB9 LOG2 PUSH5 0x6970667358 0x22 SLT KECCAK256 SWAP3 PUSH25 0x5F79D136AA8D5F9406FA7B8EBBC23EE8E043124BBAB6D3661C STOP 0xB7 DIV PUSH26 0x664736F6C634300081400330553476BF02EF2726E8CE5CED78D PUSH4 0xE26E602E 0x4A 0x22 JUMPI 0xB1 CREATE2 MSIZE COINBASE DUP15 0x24 0xB4 PUSH4 0x39970000 "},"methodIdentifiers":{"BALLOT_TYPEHASH()":"deaaa7cc","CLOCK_MODE()":"4bf5d7e9","COUNTING_MODE()":"dd4e2ba5","EXTENDED_BALLOT_TYPEHASH()":"2fe3e261","cancel(address[],uint256[],bytes[],bytes32)":"452115d6","castVote(uint256,uint8)":"56781388","castVoteBySig(uint256,uint8,uint8,bytes32,bytes32)":"3bccf4fd","castVoteWithReason(uint256,uint8,string)":"7b3c71d3","castVoteWithReasonAndParams(uint256,uint8,string,bytes)":"5f398a14","castVoteWithReasonAndParamsBySig(uint256,uint8,string,bytes,uint8,bytes32,bytes32)":"03420181","clock()":"91ddadf4","createProjectProposal(uint256,string,uint8)":"c5a86c2d","eip712Domain()":"84b0196e","execute(address[],uint256[],bytes[],bytes32)":"2656227d","fundingContract()":"995df76c","getProjectProposal(uint256)":"56a474e4","getProposalDetails(uint256)":"3b4d01a7","getVotes(address,uint256)":"eb9019d4","getVotesWithParams(address,uint256,bytes)":"9a802a6d","hasVoted(uint256,address)":"43859632","hashProposal(address[],uint256[],bytes[],bytes32)":"c59057e4","name()":"06fdde03","onERC1155BatchReceived(address,address,uint256[],uint256[],bytes)":"bc197c81","onERC1155Received(address,address,uint256,uint256,bytes)":"f23a6e61","onERC721Received(address,address,uint256,bytes)":"150b7a02","projectProposals(uint256)":"dbc1d569","proposalDeadline(uint256)":"c01f9e37","proposalDetails(uint256)":"16e9eaec","proposalProposer(uint256)":"143489d0","proposalSnapshot(uint256)":"2d63f693","proposalThreshold()":"b58131b0","proposalVotes(uint256)":"544ffc9c","propose(address[],uint256[],bytes[],string)":"7d5e81e2","quorum(uint256)":"f8ce560a","quorumDenominator()":"97c3d334","quorumNumerator()":"a7713a70","quorumNumerator(uint256)":"60c4247f","relay(address,uint256,bytes)":"c28bc2fa","rewardToken()":"f7c618c1","setProposalThreshold(uint256)":"ece40cc1","setVotingDelay(uint256)":"70b0f660","setVotingPeriod(uint256)":"ea0217cf","state(uint256)":"3e4f49e6","supportsInterface(bytes4)":"01ffc9a7","token()":"fc0c546a","updateQuorumNumerator(uint256)":"06f3f9e6","version()":"54fd4d50","votingDelay()":"3932abb1","votingPeriod()":"02a251a3"}}}}}