{
  "_format": "hh-sol-artifact-1",
  "contractName": "FundingContract",
  "sourceName": "contracts/FundingContract.sol",
  "abi": [
    {
      "inputs": [
        {
          "internalType": "address",
          "name": "_rewardToken",
          "type": "address"
        },
        {
          "internalType": "address",
          "name": "_projectDAO",
          "type": "address"
        }
      ],
      "stateMutability": "nonpayable",
      "type": "constructor"
    },
    {
      "anonymous": false,
      "inputs": [
        {
          "indexed": true,
          "internalType": "uint256",
          "name": "projectId",
          "type": "uint256"
        },
        {
          "indexed": true,
          "internalType": "address",
          "name": "contributor",
          "type": "address"
        },
        {
          "indexed": false,
          "internalType": "uint96",
          "name": "amount",
          "type": "uint96"
        },
        {
          "indexed": false,
          "internalType": "uint32",
          "name": "timestamp",
          "type": "uint32"
        }
      ],
      "name": "ContributionMade",
      "type": "event"
    },
    {
      "anonymous": false,
      "inputs": [
        {
          "indexed": true,
          "internalType": "uint256",
          "name": "projectId",
          "type": "uint256"
        },
        {
          "indexed": true,
          "internalType": "address",
          "name": "creator",
          "type": "address"
        },
        {
          "indexed": false,
          "internalType": "uint96",
          "name": "amount",
          "type": "uint96"
        }
      ],
      "name": "FundsWithdrawn",
      "type": "event"
    },
    {
      "anonymous": false,
      "inputs": [
        {
          "indexed": true,
          "internalType": "address",
          "name": "previousOwner",
          "type": "address"
        },
        {
          "indexed": true,
          "internalType": "address",
          "name": "newOwner",
          "type": "address"
        }
      ],
      "name": "OwnershipTransferred",
      "type": "event"
    },
    {
      "anonymous": false,
      "inputs": [
        {
          "indexed": true,
          "internalType": "uint256",
          "name": "projectId",
          "type": "uint256"
        },
        {
          "indexed": false,
          "internalType": "string",
          "name": "name",
          "type": "string"
        },
        {
          "indexed": true,
          "internalType": "address",
          "name": "creator",
          "type": "address"
        },
        {
          "indexed": false,
          "internalType": "uint96",
          "name": "fundingGoal",
          "type": "uint96"
        },
        {
          "indexed": false,
          "internalType": "uint32",
          "name": "deadline",
          "type": "uint32"
        }
      ],
      "name": "ProjectCreated",
      "type": "event"
    },
    {
      "anonymous": false,
      "inputs": [
        {
          "indexed": true,
          "internalType": "uint256",
          "name": "projectId",
          "type": "uint256"
        },
        {
          "indexed": false,
          "internalType": "uint96",
          "name": "totalAmount",
          "type": "uint96"
        }
      ],
      "name": "ProjectFunded",
      "type": "event"
    },
    {
      "inputs": [],
      "name": "MAX_FUNDING_PERIOD",
      "outputs": [
        {
          "internalType": "uint32",
          "name": "",
          "type": "uint32"
        }
      ],
      "stateMutability": "view",
      "type": "function"
    },
    {
      "inputs": [],
      "name": "MIN_FUNDING_GOAL",
      "outputs": [
        {
          "internalType": "uint96",
          "name": "",
          "type": "uint96"
        }
      ],
      "stateMutability": "view",
      "type": "function"
    },
    {
      "inputs": [],
      "name": "TOKEN_REWARD_RATE",
      "outputs": [
        {
          "internalType": "uint96",
          "name": "",
          "type": "uint96"
        }
      ],
      "stateMutability": "view",
      "type": "function"
    },
    {
      "inputs": [
        {
          "internalType": "uint256",
          "name": "_projectId",
          "type": "uint256"
        }
      ],
      "name": "contribute",
      "outputs": [],
      "stateMutability": "payable",
      "type": "function"
    },
    {
      "inputs": [
        {
          "internalType": "uint256",
          "name": "",
          "type": "uint256"
        },
        {
          "internalType": "address",
          "name": "",
          "type": "address"
        },
        {
          "internalType": "uint256",
          "name": "",
          "type": "uint256"
        }
      ],
      "name": "contributions",
      "outputs": [
        {
          "internalType": "uint96",
          "name": "amount",
          "type": "uint96"
        },
        {
          "internalType": "uint32",
          "name": "timestamp",
          "type": "uint32"
        }
      ],
      "stateMutability": "view",
      "type": "function"
    },
    {
      "inputs": [
        {
          "internalType": "string",
          "name": "_name",
          "type": "string"
        },
        {
          "internalType": "string",
          "name": "_description",
          "type": "string"
        },
        {
          "internalType": "uint96",
          "name": "_fundingGoal",
          "type": "uint96"
        },
        {
          "internalType": "uint32",
          "name": "_duration",
          "type": "uint32"
        }
      ],
      "name": "createProject",
      "outputs": [
        {
          "internalType": "uint256",
          "name": "",
          "type": "uint256"
        }
      ],
      "stateMutability": "nonpayable",
      "type": "function"
    },
    {
      "inputs": [
        {
          "internalType": "uint256",
          "name": "_projectId",
          "type": "uint256"
        },
        {
          "internalType": "string",
          "name": "_description",
          "type": "string"
        }
      ],
      "name": "createProposal",
      "outputs": [],
      "stateMutability": "nonpayable",
      "type": "function"
    },
    {
      "inputs": [
        {
          "internalType": "uint256",
          "name": "_projectId",
          "type": "uint256"
        },
        {
          "internalType": "address",
          "name": "_contributor",
          "type": "address"
        }
      ],
      "name": "getContributions",
      "outputs": [
        {
          "components": [
            {
              "internalType": "uint96",
              "name": "amount",
              "type": "uint96"
            },
            {
              "internalType": "uint32",
              "name": "timestamp",
              "type": "uint32"
            }
          ],
          "internalType": "struct FundingContract.Contribution[]",
          "name": "",
          "type": "tuple[]"
        }
      ],
      "stateMutability": "view",
      "type": "function"
    },
    {
      "inputs": [
        {
          "internalType": "uint256",
          "name": "_projectId",
          "type": "uint256"
        }
      ],
      "name": "getContributors",
      "outputs": [
        {
          "internalType": "address[]",
          "name": "",
          "type": "address[]"
        }
      ],
      "stateMutability": "view",
      "type": "function"
    },
    {
      "inputs": [
        {
          "internalType": "uint256",
          "name": "_projectId",
          "type": "uint256"
        }
      ],
      "name": "getProject",
      "outputs": [
        {
          "internalType": "string",
          "name": "name",
          "type": "string"
        },
        {
          "internalType": "string",
          "name": "description",
          "type": "string"
        },
        {
          "internalType": "address",
          "name": "creator",
          "type": "address"
        },
        {
          "internalType": "uint96",
          "name": "fundingGoal",
          "type": "uint96"
        },
        {
          "internalType": "uint96",
          "name": "currentFunding",
          "type": "uint96"
        },
        {
          "internalType": "uint32",
          "name": "deadline",
          "type": "uint32"
        },
        {
          "internalType": "bool",
          "name": "funded",
          "type": "bool"
        },
        {
          "internalType": "bool",
          "name": "exists",
          "type": "bool"
        }
      ],
      "stateMutability": "view",
      "type": "function"
    },
    {
      "inputs": [
        {
          "internalType": "uint256",
          "name": "_projectId",
          "type": "uint256"
        }
      ],
      "name": "getProjectVotes",
      "outputs": [
        {
          "internalType": "uint256",
          "name": "againstVotes",
          "type": "uint256"
        },
        {
          "internalType": "uint256",
          "name": "forVotes",
          "type": "uint256"
        },
        {
          "internalType": "uint256",
          "name": "abstainVotes",
          "type": "uint256"
        }
      ],
      "stateMutability": "view",
      "type": "function"
    },
    {
      "inputs": [],
      "name": "owner",
      "outputs": [
        {
          "internalType": "address",
          "name": "",
          "type": "address"
        }
      ],
      "stateMutability": "view",
      "type": "function"
    },
    {
      "inputs": [
        {
          "internalType": "uint256",
          "name": "",
          "type": "uint256"
        },
        {
          "internalType": "uint256",
          "name": "",
          "type": "uint256"
        }
      ],
      "name": "projectContributors",
      "outputs": [
        {
          "internalType": "address",
          "name": "",
          "type": "address"
        }
      ],
      "stateMutability": "view",
      "type": "function"
    },
    {
      "inputs": [],
      "name": "projectDAO",
      "outputs": [
        {
          "internalType": "address",
          "name": "",
          "type": "address"
        }
      ],
      "stateMutability": "view",
      "type": "function"
    },
    {
      "inputs": [
        {
          "internalType": "uint256",
          "name": "",
          "type": "uint256"
        }
      ],
      "name": "projects",
      "outputs": [
        {
          "internalType": "string",
          "name": "name",
          "type": "string"
        },
        {
          "internalType": "string",
          "name": "description",
          "type": "string"
        },
        {
          "internalType": "address payable",
          "name": "creator",
          "type": "address"
        },
        {
          "internalType": "uint96",
          "name": "fundingGoal",
          "type": "uint96"
        },
        {
          "internalType": "uint96",
          "name": "currentFunding",
          "type": "uint96"
        },
        {
          "internalType": "uint32",
          "name": "deadline",
          "type": "uint32"
        },
        {
          "internalType": "bool",
          "name": "funded",
          "type": "bool"
        },
        {
          "internalType": "bool",
          "name": "exists",
          "type": "bool"
        }
      ],
      "stateMutability": "view",
      "type": "function"
    },
    {
      "inputs": [],
      "name": "renounceOwnership",
      "outputs": [],
      "stateMutability": "nonpayable",
      "type": "function"
    },
    {
      "inputs": [],
      "name": "rewardToken",
      "outputs": [
        {
          "internalType": "contract RewardToken",
          "name": "",
          "type": "address"
        }
      ],
      "stateMutability": "view",
      "type": "function"
    },
    {
      "inputs": [
        {
          "internalType": "address",
          "name": "newOwner",
          "type": "address"
        }
      ],
      "name": "transferOwnership",
      "outputs": [],
      "stateMutability": "nonpayable",
      "type": "function"
    },
    {
      "inputs": [
        {
          "internalType": "uint256",
          "name": "_projectId",
          "type": "uint256"
        }
      ],
      "name": "withdrawFunds",
      "outputs": [],
      "stateMutability": "nonpayable",
      "type": "function"
    }
  ],
  "bytecode": "0x60c0346100d657601f61188438819003918201601f19168301916001600160401b038311848410176100db5780849260409485528339810103126100d657610052602061004b836100f1565b92016100f1565b60008054336001600160a01b0319821681178355604051946001600160a01b039390928416907f8be0079c531659141344cd1fd0a4f28419497f9722a3daafe3b4186f6b6457e09080a31660805260a05261177e908161010682396080518181816107980152610a73015260a05181818161013c01528181610ec2015261135f0152f35b600080fd5b634e487b7160e01b600052604160045260246000fd5b51906001600160a01b03821682036100d65756fe6080604052600436101561001257600080fd5b6000803560e01c806302d52fa4146112b4578063107046bd14611257578063155dd5ee146110da5780631dbcfc441461105257806329af9b511461103457806336d95f56146110125780633c1ab00f14610f605780633d3b686514610f0d5780636203a99514610ef15780636d24419a14610eac578063715018a614610e525780638da5cb5b14610e2b578063aafc92d614610cff578063c1cbbca714610949578063f0f3f2c81461088f578063f2fde38b146107c7578063f7c618c114610782578063fa3fc9b3146102175763fdfda408146100ee57600080fd5b3461021457602080600319360112610210576004358083526001825261012060ff600360408620015460881c16611703565b6040516315a91d3960e21b8152600481019190915281816024817f00000000000000000000000000000000000000000000000000000000000000006001600160a01b03165afa9081156102055783916101d3575b501561018f5781606092604051928184528301526040820152f35b6064906040519062461bcd60e51b82526004820152601e60248201527f4e6f2070726f706f73616c2065786973747320666f722070726f6a65637400006044820152fd5b90508181813d83116101fe575b6101ea818361146c565b810103126101f9575138610174565b600080fd5b503d6101e0565b6040513d85823e3d90fd5b5080fd5b80fd5b50346102145760803660031901126102145760043567ffffffffffffffff811161021057610249903690600401611645565b60243567ffffffffffffffff811161077e57610269903690600401611645565b92906044356001600160601b038116810361077a576064359163ffffffff831680930361077657662386f26fc100006001600160601b038316106107445762015180831161070e576004549560001987146106fa576001870160045583420142116106fa57604051918261010081011067ffffffffffffffff610100850111176106e45761030d9161010084016040526103043689896114aa565b845236916114aa565b60208201523360408201526001600160601b038216606082015286608082015263ffffffff8342011660a08201528660c0820152600160e0820152858752600160205260408720815180519067ffffffffffffffff821161061357819061037484546114e1565b601f8111610696575b50602090601f8311600114610632578b92610627575b50508160011b916000199060031b1c19161781555b602082015180519067ffffffffffffffff8211610613576103cc60018401546114e1565b601f81116105cf575b50918896959493918a9360209b508b90601f83116001146105245763ffffffff96938387946001600160601b0397946003947fd2067d759b1a8eb6be1e22e6331135d428fffba535ea17351bf01fae7bd3f4da9d9c9a92610519575b505060001982851b1c1916600191821b17908201555b60018060a01b036040840151168660a01b606085015160a01b1617600282015501908460808201511685198354161782556104a48760a083015116839081549063ffffffff60601b9060601b169063ffffffff60601b1916179055565b60c081015115159082549060e060ff60881b910151151560881b169160ff60801b9060801b169061ffff60801b191617179055886040519660608852816060890152608088013760808987010152168884015242011660408201526080813395601f80199101168101030190a3604051908152f35b015190503880610431565b60018493929a9998979695940185528c852090855b601f19841681106105b55750926001836003937fd2067d759b1a8eb6be1e22e6331135d428fffba535ea17351bf01fae7bd3f4da9c9d6001600160601b03999763ffffffff9c9b9997601f1981161061059d575b505050811b016001820155610447565b015160001983871b60f8161c1916905538808061058d565b818c015183559a8e019a8d9a506001909201918e01610539565b600184018b5260208b20601f840160051c81016020851061060c575b601f830160051c820181106106015750506103d5565b8c81556001016105eb565b50806105eb565b634e487b7160e01b8a52604160045260248afd5b015190503880610393565b848c5260208c209250601f1984168c5b81811061067e5750908460019594939210610665575b505050811b0181556103a8565b015160001960f88460031b161c19169055388080610658565b92936020600181928786015181550195019301610642565b909150838b5260208b20601f840160051c8101602085106106dd575b90849392915b8d601f840160051c830182106106d05750505061037d565b81558594506001016106b8565b50806106b2565b634e487b7160e01b600052604160045260246000fd5b634e487b7160e01b88526011600452602488fd5b60405162461bcd60e51b815260206004820152600e60248201526d088eae4c2e8d2dedc407c40dac2f60931b6044820152606490fd5b60405162461bcd60e51b815260206004820152600a60248201526923b7b0b6101e1036b4b760b11b6044820152606490fd5b8680fd5b8580fd5b8380fd5b50346102145780600319360112610214576040517f00000000000000000000000000000000000000000000000000000000000000006001600160a01b03168152602090f35b5034610214576020366003190112610214576004356001600160a01b03818116918290036101f9576107f7611673565b811561083b57600054826001600160601b0360a01b821617600055167f8be0079c531659141344cd1fd0a4f28419497f9722a3daafe3b4186f6b6457e0600080a380f35b60405162461bcd60e51b815260206004820152602660248201527f4f776e61626c653a206e6577206f776e657220697320746865207a65726f206160448201526564647265737360d01b6064820152608490fd5b50346102145760203660031901126102145760406108ea916004358152600160205220600281015460ff60038301546108f86108d660016108cf8761151b565b960161151b565b6040519687966101008089528801906115c1565b9086820360208801526115c1565b9260018060a01b038116604086015260a01c60608501526001600160601b038116608085015263ffffffff8160601c1660a0850152818160801c16151560c085015260881c16151560e08301520390f35b506020806003193601126102105760043580835260018252604083206003810180549361097b60ff8660881c166116cb565b63ffffffff92838660601c16421015610cd2573415610ca0576001600160601b0392833416968785821601858111610c8c579085916001600160601b03199283911691161782558689526002845260408920338a528452604089209086421696604051916109e883611450565b8a8352868301908982528454680100000000000000009586821015610c785790610a1791600182018155611617565b949094610c6457518454925163ffffffff60601b1992909316908a161716911660601b63ffffffff60601b16179055868952600284526040808a20338b528552892054600114610c1d575b5060648702848116908103610c09577f00000000000000000000000000000000000000000000000000000000000000006001600160a01b0316908990823b15610210576044670de0b6b3a76400009183899560405196879586946340c10f1960e01b8652336004870152041660248401525af18015610bfe57610bae575b50927f3fc3b070e9894cd62cadb58d640d5365f025b5d368f467497da53fa9885b541894928692856002610b55975494851692015460a01c82101580610ba0575b610b5b575b505050505060405191829133968390929163ffffffff6020916001600160601b03604085019616845216910152565b0390a380f35b60ff60801b19909316600160801b179092556040519182527f6f5e2acfc35d551f42648c89245aa19df07bc207bfa00ccb27d46b6674f25d3e91a28338808080610b26565b5060ff8460801c1615610b21565b67ffffffffffffffff8199929911610bea57604052967f3fc3b070e9894cd62cadb58d640d5365f025b5d368f467497da53fa9885b5418610ae0565b634e487b7160e01b82526041600452602482fd5b6040513d8b823e3d90fd5b634e487b7160e01b89526011600452602489fd5b86895260038452604089208054918210156106135790610c4291600182018155611617565b81546001600160a01b0360039290921b91821b19163390911b17905538610a62565b634e487b7160e01b8e5260048e905260248efd5b634e487b7160e01b8f52604160045260248ffd5b634e487b7160e01b8a52601160045260248afd5b60405162461bcd60e51b815260048101839052600a6024820152695a65726f2076616c756560b01b6044820152606490fd5b60405162461bcd60e51b8152600481018390526005602482015264115b99195960da1b6044820152606490fd5b503461021457604036600319011261021457610d19611601565b60043582526002602090815260408084206001600160a01b039093168452918152908220805490929167ffffffffffffffff8211610e175791929060405190610d67848260051b018361146c565b8082528382018093865284862086915b838310610dd357505050506040519280840191818552518092526040840192945b828110610da55784840385f35b855180516001600160601b0316855282015163ffffffff168483015294810194604090930192600101610d98565b600187819260409a9997989a51610de981611450565b63ffffffff86546001600160601b038116835260601c16838201528152019201920191909694939596610d77565b634e487b7160e01b83526041600452602483fd5b5034610214578060031936011261021457546040516001600160a01b039091168152602090f35b5034610214578060031936011261021457610e6b611673565b80546001600160a01b03198116825581906001600160a01b03167f8be0079c531659141344cd1fd0a4f28419497f9722a3daafe3b4186f6b6457e08280a380f35b50346102145780600319360112610214576040517f00000000000000000000000000000000000000000000000000000000000000006001600160a01b03168152602090f35b5034610214578060031936011261021457602060405160648152f35b503461021457604036600319011261021457602435906004358152600360205260408120908154831015610214576020610f478484611617565b905460405160039290921b1c6001600160a01b03168152f35b503461021457602080600319360112610210576004358252600381526040822060405192838383549182815201908193835284832090835b818110610ff55750505084610fae91038561146c565b60405193838594850191818652518092526040850193925b828110610fd557505050500390f35b83516001600160a01b031685528695509381019392810192600101610fc6565b82546001600160a01b031684529286019260019283019201610f98565b50346102145780600319360112610214576020604051662386f26fc100008152f35b50346102145780600319360112610214576020604051620151808152f35b50346102145760603660031901126102145761106c611601565b60043582526002602090815260408084206001600160a01b039093168452919052812080546044359290831015610214576110d66110aa8484611617565b5054604080516001600160601b038316815260609290921c63ffffffff16602083015290918291820190565b0390f35b50346102145760208060031936011261021057600435808352600182526040832091600383019283549061111360ff8360881c166116cb565b60ff8260801c16156112255760020180546001600160a01b0392908316338190036111f2578780838194936001600160601b038395169a8b926001600160601b03191690555af13d156111ed573d61116a8161148e565b90611178604051928361146c565b815287853d92013e5b156111b6575460405194855216927f3ea4bc8159b46f009306e75d69bbe83dab3219666b8ea594e45937ab83abe2019190a380f35b60405162461bcd60e51b815260048101849052600f60248201526e151c985b9cd9995c8819985a5b1959608a1b6044820152606490fd5b611181565b60405162461bcd60e51b815260048101869052600b60248201526a2737ba1031b932b0ba37b960a91b6044820152606490fd5b60405162461bcd60e51b815260048101849052600a602482015269139bdd08199d5b99195960b21b6044820152606490fd5b50346102145760203660031901126102145760406108ea9160043581526001602052206112838161151b565b9060ff6112926001830161151b565b6108f860036002850154940154916040519687966101008089528801906115c1565b50346102145760403660031901126102145760043560243567ffffffffffffffff811161140b573660238201121561140b576112fa9036906024816004013591016114aa565b8183526020916001835260ff600360408620015461131c828260881c16611703565b60801c161561141657611353918391604051938492839263c5a86c2d60e01b845260048401526060602484015260648301906115c1565b600260448301520381867f00000000000000000000000000000000000000000000000000000000000000006001600160a01b03165af19081156102055783916113e5575b50156113a1575080f35b6064906040519062461bcd60e51b82526004820152601960248201527f4661696c656420746f206372656174652070726f706f73616c000000000000006044820152fd5b90508181813d831161140f575b6113fc818361146c565b8101031261140b575138611397565b8280fd5b503d6113f2565b60405162461bcd60e51b8152600481018490526012602482015271141c9bda9958dd081b9bdd08199d5b99195960721b6044820152606490fd5b6040810190811067ffffffffffffffff8211176106e457604052565b90601f8019910116810190811067ffffffffffffffff8211176106e457604052565b67ffffffffffffffff81116106e457601f01601f191660200190565b9291926114b68261148e565b916114c4604051938461146c565b8294818452818301116101f9578281602093846000960137010152565b90600182811c92168015611511575b60208310146114fb57565b634e487b7160e01b600052602260045260246000fd5b91607f16916114f0565b906040519182600082549261152f846114e1565b90818452600194858116908160001461159e575060011461155b575b50506115599250038361146c565b565b9093915060005260209081600020936000915b8183106115865750506115599350820101388061154b565b8554888401850152948501948794509183019161156e565b91505061155994506020925060ff191682840152151560051b820101388061154b565b919082519283825260005b8481106115ed575050826000602080949584010152601f8019910116010190565b6020818301810151848301820152016115cc565b602435906001600160a01b03821682036101f957565b805482101561162f5760005260206000200190600090565b634e487b7160e01b600052603260045260246000fd5b9181601f840112156101f95782359167ffffffffffffffff83116101f957602083818601950101116101f957565b6000546001600160a01b0316330361168757565b606460405162461bcd60e51b815260206004820152602060248201527f4f776e61626c653a2063616c6c6572206973206e6f7420746865206f776e65726044820152fd5b156116d257565b60405162461bcd60e51b8152602060048201526009602482015268139bdd08199bdd5b9960ba1b6044820152606490fd5b1561170a57565b60405162461bcd60e51b8152602060048201526016602482015275141c9bda9958dd08191bd95cc81b9bdd08195e1a5cdd60521b6044820152606490fdfea2646970667358221220e20b5658df48531e63f82d446fcc8f78863be93709b2d0410368f6c7d01d3e3164736f6c63430008140033",
  "linkReferences": {},
  "deployedLinkReferences": {}
}